:100000000C94AE1B0C94DF1B0C94DF1B0C94DF1BB9
:100010000C94DF1B0C94DF1B0C94DF1B0C94DF1B78
:100020000C94DF1B0C94DF1B0C94DF1B0C94DF1B68
:100030000C94DF1B0C945DDC0C94DF1B0C94DF1B19
:100040000C94DF1B0C948B790C94DF1B0C94DF1B3E
:100050000C94DF1B0C94DF1B0C94E28E0C9437D6AF
:100060000C94DF1B0C94F42C0C94DF1B0C94DF1B02
:100070000C94DF1B0C94DF1B0C94DF1B0C94DF1B18
:100080000C94DF1B0C94DF1B0C94DF1B0C94DF1B08
:100090000C94DF1B0C94DF1B0C94DF1B0C941CCF07
:1000A0000C94DF1B0C94DF1B0C94DF1B0C94DF1BE8
:1000B0000C94DF1B0C94DF1B0C94DF1B0C94DF1BD8
:1000C0000C94DF1B0C94DF1B0C94DF1B0C94DF1BC8
:1000D0000C94DF1B0C94DF1B0C94DF1B0C94DF1BB8
:1000E0000C94DF1BE94BE94BF44BF44BF44BFF4B07
:1000F000FF4BFF4B144C0A4C0A4C0A4C3C8F4B8F65
:100100006A8F798F948FA38FBE8FC38FC68FCB8F4B
:10011000CE8FD38FDD8F5BD760D765D76FD779D779
:10012000F2D783D78BD793D79DD7A7D7B1D7C0D7CF
:10013000CAD7F2D7D4D7DED7E8D714D817D806D87D
:100140000AD810D84ED81BD81FD825D829D82DD8D2
:1001500033D837D83BD84ED841D845D849D8084AA3
:10016000D73B3BCE016E84BCBFFDC12F3D6C7431CB
:100170009ABD56833DDA3D00C77F11BED9E4BB4C22
:100180003E916BAAAABE000000803F05A84CCDB2EC
:10019000D44EB93836A9020C50B9918688083CA6CD
:1001A000AAAA2ABE000000803F004D383420582003
:1001B00059205A20450043616E6E6F7420656E743D
:1001C0006572207375626469723A20004D323400A2
:1001D0004D3233202573006175746F25692E6700D9
:1001E0006572726F722077726974696E6720746FBE
:1001F0002066696C65004E6F7420534420707269EC
:100200006E74696E67002F005344207072696E74BB
:10021000696E67206279746520002E0044656C6504
:1002200074696F6E206661696C65642C2046696C28
:10023000653A200046696C652064656C6574656488
:100240003A002E006F70656E206661696C65642CE3
:100250002046696C653A200057726974696E6720A0
:10026000746F2066696C653A20002E006F70656EB1
:10027000206661696C65642C2046696C653A2000D3
:100280002E006F70656E206661696C65642C204677
:10029000696C653A200046696C652073656C65631E
:1002A000746564002053697A653A200046696C657C
:1002B000206F70656E65643A20002E006F70656E69
:1002C000206661696C65642C2046696C653A200083
:1002D0004E6F772066726573682066696C653A2098
:1002E000004E6F7720646F696E672066696C653AAF
:1002F00020002220706F73002220706172656E747E
:100300003A2200535542524F5554494E45204341DD
:100310004C4C207461726765743A2200747279697A
:100320006E6720746F2063616C6C207375622D673B
:10033000636F64652066696C6573207769746820F3
:10034000746F6F206D616E79206C6576656C732EAD
:10035000204D4158206C6576656C2069733A0053D6
:10036000442063617264206F6B006F70656E526F22
:100370006F74206661696C656400766F6C756D657D
:100380002E696E6974206661696C6564005344204F
:10039000696E6974206661696C00205A005A2D509C
:1003A000726F6265204F666673657420286D6D29D3
:1003B0003A0046696C616D656E742073657474698A
:1003C0006E67733A2044697361626C656400202033
:1003D000204D32303020440046696C616D656E748A
:1003E0002073657474696E67733A00204400204975
:1003F000002020204D3330312050005049442073DC
:10040000657474696E67733A00205A0020590020A1
:10041000204D323036205800486F6D65206F66667B
:1004200073657420286D6D293A00204500205A001C
:1004300020580020420020540020204D323035202A
:100440005300416476616E63656420766172696110
:10045000626C65733A20533D4D696E206665656434
:100460007261746520286D6D2F73292C20543D4DC9
:10047000696E2074726176656C2066656564726170
:10048000746520286D6D2F73292C20423D6D696E97
:10049000696D756D207365676D656E742074696D27
:1004A0006520286D73292C20583D6D6178696D7524
:1004B0006D205859206A65726B20286D6D2F732945
:1004C0002C20205A3D6D6178696D756D205A206A27
:1004D00065726B20286D6D2F73292C2020453D6D92
:1004E0006178696D756D2045206A65726B20286D95
:1004F0006D2F73290020540020520020204D3230EF
:1005000034205000416363656C65726174696F6E7D
:10051000733A20503D7072696E74696E672C205278
:100520003D7265747261637420616E6420543D7421
:10053000726176656C00204500205A002059002029
:10054000204D3230312058004D6178696D756D2035
:10055000416363656C65726174696F6E20286D6DAF
:100560002F7332293A00204500205A0020590020DC
:10057000204D3230332058004D6178696D756D2003
:1005800066656564726174657320286D6D2F7329CB
:100590003A00204500205A0020590020204D3932D1
:1005A00020580053746570732070657220756E69F1
:1005B000743A0048617264636F64656420446566E0
:1005C00061756C742053657474696E6773204C6F29
:1005D000616465640053544F505045442E200050D0
:1005E00072696E7465722073746F707065642064D4
:1005F000756520746F206572726F72732E20466964
:100600007820746865206572726F7220616E642054
:10061000757365204D39393920746F207265737494
:100620006172742E202854656D70657261747572E4
:10063000652069732072657365742E20536574207C
:100640006974206166746572207265737461727476
:10065000696E6729004B494C4C45442E200050726E
:10066000696E7465722068616C7465642E206B69B4
:100670006C6C28292063616C6C656421006F6B00D1
:10068000526573656E643A20005A204F6666736542
:1006900074203A20007A5F6D61783A20007A5F6DAD
:1006A000696E3A20005A204F6666736574005A20BE
:1006B0004F6666736574206F6B006C636420636FB4
:1006C0006E74726173742076616C75653A200053A4
:1006D000657474696E672054726176656C2041633D
:1006E00063656C65726174696F6E3A20005365745E
:1006F00074696E672052657472616374204163632C
:10070000656C65726174696F6E3A2000536574742C
:10071000696E67205072696E74696E672041636309
:10072000656C65726174696F6E3A2000536574740C
:10073000696E67205072696E74696E6720616E64BD
:100740002054726176656C6C696E672041636365E5
:100750006C65726174696F6E3A20007A5F6D6178C2
:100760003A20007A5F6D696E3A2000795F6D61789A
:100770003A2000795F6D696E3A2000785F6D61788C
:100780003A2000785F6D696E3A2000205A3A0020C6
:10079000593A0020436F756E7420583A2000204566
:1007A0003A00205A3A0020593A00583A0046495235
:1007B0004D574152455F4E414D453A4D61726C690E
:1007C0006E2056313B20537072696E7465722F67CC
:1007D00072626C206D617368757020666F7220673D
:1007E000656E36204649524D574152455F55524C31
:1007F0003A68747470733A2F2F6769746875622E43
:10080000636F6D2F4D61726C696E4669726D7761B1
:1008100072652F4D61726C696E2050524F544F4378
:100820004F4C5F56455253494F4E3A312E30204D72
:10083000414348494E455F545950453A54617A20E6
:1008400045585452554445525F434F554E543A31E2
:1008500020555549443A30303030303030302D302A
:100860003030302D303030302D303030302D303091
:10087000303030303030303030300A0054617A203F
:100880004F66662E0054617A2072656164792E008D
:1008900042656420646F6E652E0020423A00204558
:1008A0003A00543A004265642048656174696E6795
:1008B0002E0048656174696E6720646F6E652E0056
:1008C00020573A0020453A00543A0048656174695F
:1008D0006E672E2E2E002042403A0020403A002023
:1008E0002F003A00205400202F0020423A00202FF1
:1008F000006F6B20543A002569206D696E2C20250D
:10090000692073656300456E642066696C65206CC0
:1009100069737400426567696E2066696C65206C56
:10092000697374004E6F206D6F76652E0054617A86
:100930002072656164792E00526573756D696E670A
:10094000207072696E74005761697420666F72203E
:10095000757365722E2E2E00536C6565702E2E2ECB
:10096000002200556E6B6E6F776E20636F6D6D6148
:100970006E643A202200256920686F757273202505
:1009800069206D696E7574657300446F6E652070C3
:1009900072696E74696E672066696C650053544FA6
:1009A000505045442E20005072696E746572207359
:1009B000746F707065642064756520746F20657253
:1009C000726F72732E204669782074686520657294
:1009D000726F7220616E6420757365204D393939EC
:1009E00020746F20726573746172742E20285465B0
:1009F0006D706572617475726520697320726573BC
:100A000065742E2053657420697420616674657264
:100A10002072657374617274696E6729004E6F206D
:100A20004C696E65204E756D6265722077697468D9
:100A300020636865636B73756D2C204C6173742043
:100A40004C696E653A20004E6F20436865636B7396
:100A5000756D2077697468206C696E65206E756DA0
:100A60006265722C204C617374204C696E653A206B
:100A700000636865636B73756D206D69736D617478
:100A800063682C204C617374204C696E653A2000B9
:100A90004C696E65204E756D626572206973206EBB
:100AA0006F74204C617374204C696E65204E756DB7
:100AB0006265722B312C204C617374204C696E6519
:100AC0003A20004D31313000446F6E6520736176FD
:100AD000696E672066696C652E006F6B004D323958
:100AE000002020506C616E6E65724275666665729C
:100AF00042797465733A20002046726565204D6521
:100B00006D6F72793A200041707220323620323097
:100B1000313500436F6D70696C65643A2000286E52
:100B20006F6E652C2064656661756C7420636F6EF2
:100B30006669672900207C20417574686F723A20CD
:100B40000041707220323620323031352030323A56
:100B500033323A353900204C61737420557064612A
:100B60007465643A2000312E302E32004D61726C73
:100B7000696E0020536F66747761726520526573E9
:100B8000657400205761746368646F6720526573F1
:100B90006574002042726F776E206F757420526505
:100BA000736574002045787465726E616C205265BF
:100BB00073657400506F776572557000737461725D
:100BC00074002200656E717565696E67202200FFF2
:100BD000FFFF0000A0400000A04000008040000097
:100BE00095430080894300007A4300000000000024
:100BF00000000000000000009543008089430000D1
:100C00007A4300000000000000000000000065635F
:100C1000686F3A004572726F723A0020746F6F20ED
:100C20006C6F6E6720657874727573696F6E207073
:100C3000726576656E7465640020636F6C64206510
:100C40007874727573696F6E2070726576656E74F4
:100C50006564007C3C3E5E2B3D3F2F5B5D3B2C2A58
:100C6000225C0045313A200045303A20005A3A20B3
:100C700000593A2000583A20004D53312C4D533240
:100C80002050696E730A004D383420582059205A7C
:100C9000204500656E6473746F7073206869743AE0
:100CA000205A00205A3A00656E6473746F70732086
:100CB0006869743A20590020593A00656E6473746B
:100CC0006F7073206869743A20580020583A0065A4
:100CD0006E6473746F7073206869743A200024F432
:100CE000D43050C38E20C2A24017828B7011127A6A
:100CF000910D816CD90AA861E108C7586607615156
:100D000043061E4B5D05C145A7041A411104093D68
:100D10009803713931034036DB0265339102D430D8
:100D20005402802E1D02632CEE01752AC501B028E5
:100D3000A001102781018F2564012B244B01E022A3
:100D40003401AC211F018D200D01801FFC00841E89
:100D5000ED00971DDF00B81CD200E61BC600201B6B
:100D6000BC00641AB200B219A8000A19A0006A18DF
:100D70009900D117910040178B00B51684003116E9
:100D80007E00B31579003A157300C7146F0058142C
:100D90006A00EE1366008813630025135E00C71215
:100DA0005B006C12570015125400C11151007011F4
:100DB0004F0021114B00D61049008D1047004610FE
:100DC000440002104200C00F4000800F3E00420F5E
:100DD0003C00060F3B00CB0E3800930E37005C0E34
:100DE0003500270E3400F30D3200C10D3100900D97
:100DF0003000600D2E00320D2D00050D2C00D90C99
:100E00002B00AE0C2900850C29005C0C2700350C4A
:100E100027000E0C2600E80B2400C40B2400A00BB6
:100E200023007D0B23005A0B2100390B2100180BE6
:100E30002000F80A1F00D90A1E00BB0A1E009D0AE6
:100E40001D00800A1D00630A1C00470A1B002C0AB3
:100E50001B00110A1A00F7091A00DD091900C4095C
:100E60001900AB091900920917007B0918006309E2
:100E700017004C09160036091600200916000A0949
:100E80001500F5081500E0081400CC081400B80897
:100E90001400A4081400900813007D0812006B08C9
:100EA00013005808120046081200340811002308E5
:100EB00011001208110001081100F0071000E007EE
:100EC0001000D0071000C0071000B0070F00A107E6
:100ED000100091070E0083070F0074070F006507CD
:100EE0000E0057070E0049070E003B070D002E07A6
:100EF0000E0020070D0013070D0006070D00F90670
:100F00000C00ED060D00E0060C00D4060C00C8062F
:100F10000C00BC060C00B0060C00A4060B009906E1
:100F20000C008D060B0082060B0077060B006C068A
:100F30000B0061060A0057060B004C060A00420629
:100F40000A0038060A002E060A0024060A001A06BD
:100F50000A001006090007060A00FD050900F4054D
:100F60000900EB050900E2050900D9050900D005D3
:100F70000900C7050900BE050900B5050800AD0553
:100F80000800A50509009C050800940508008C05CB
:100F90000800840508007C050800740508006C053D
:100FA0000700650508005D050700560508004E05A9
:100FB0000700470507004005080038050700310510
:100FC00007002A050700230507001C050600160573
:100FD00007000F0507000805060002050700FB04CF
:100FE0000600F5040700EE040600E8040600E2042B
:100FF0000700DB040600D5040600CF040600C90480
:101000000600C3040600BD040600B7040600B104D0
:101010000500AC040600A6040600A00405009B041D
:10102000060095040500900406008A040500850466
:101030000500800406007A040500750405007004AC
:1010400005006B04050066040500610405005C04EE
:10105000050057040500520405004D04050048042E
:101060000500430405003E0404003A04050035046D
:101070000500300404002C040500270404002304A8
:1010800005001E0404001A040400160405001104DF
:1010900004000D0404000904050004040400000415
:1010A0000400FC030400F8030400F4030400F0034C
:1010B0000400EC030400E8030400E4030400E0037C
:1010C0000400DC030400D8030400D4030400D003AC
:1010D0000400CC030400C8030300C503030024F488
:1010E00004D9201BC40C5C0E9804C4095F02650778
:1010F0007101F405F900FB04B30048048700C10343
:1011000069005803550003034500BE023A008402FB
:10111000310053022A002902250004022000E401C4
:101120001C00C8011900AF011700980114008401C8
:101130001300710110006101100051010E00430104
:101140000D0036010B002B010B0020010B001501D7
:1011500009000C01090003010800FB000800F3006E
:101160000800EB000700E4000600DE000600D800DF
:101170000600D2000600CC000500C7000500C20032
:101180000500BD000400B9000400B5000400B10072
:101190000400AD000400A9000400A5000300A200A3
:1011A00003009F0004009B000300980003009500CB
:1011B000020093000300900003008D0002008B00EA
:1011C0000300880002008600020084000300810002
:1011D00002007F0002007D0002007B000200790017
:1011E0000200770001007600020074000200720025
:1011F0000100710002006F0002006D0001006C0030
:1012000002006A0001006900020067000100660038
:10121000010065000100640002006200010061003D
:101220000100600001005F0002005D0001005C0041
:1012300001005B0001005A00010059000100580044
:101240000100570001005600010055000100540044
:101250000100530000005300010052000100510042
:101260000100500001004F0001004E0000004E0040
:1012700001004D0001004C0001004B0000004B003C
:1012800001004A0001004900010048000000480038
:101290000100470001004600000046000100450033
:1012A000000045000100440001004300000043002D
:1012B0000100420000004200010041000000410026
:1012C0000100400001003F0000003F0001003E001F
:1012D00000003E0001003D0000003D0001003C0018
:1012E00000003C0000003C0001003B0000003B000F
:1012F00001003A0000003A00010039000000390006
:1013000001003800000038000000380001003700FC
:1013100000003700010036000000360000003600F3
:1013200001003500000035000000350001003400E8
:1013300000003400000034000100330000003300DE
:1013400000003300010032000000320000003200D3
:1013500001003100000031000000310001003000C8
:10136000000030000000300001002F0000002F00BE
:1013700000002F0000002F0001002E0000002E00B2
:1013800000002E0001002D0000002D0000002D00A7
:1013900000002D0001002C0000002C0000002C009B
:1013A00000002C0001002B0000002B0000002B008F
:1013B00000002B0001002A0000002A0000002A0083
:1013C00000002A0001002900000029000000290077
:1013D000000029000000290001002800000028006A
:1013E000000028000000280000002800010027005D
:1013F0000000270000002700000027000000270051
:101400000100260000002600000026000000260043
:101410000000260001002500000025000000250036
:101420000000250000002500000025000100240028
:10143000000024000000240000002400000024001C
:10144000010023000000230000002300000023000F
:101450000000230000002300000023000100220000
:1014600000002200000022000000220000002200F4
:1014700000002200010021000000210000002100E6
:1014800000002100000021000000210000002100D8
:1014900001002000000020000000200000002000CB
:1014A00000002000000020000000200000002000BC
:1014B00001001F0000001F0000001F0000001F00AF
:1014C00000001F0000001F0000001F0001001E00A0
:1014D00000001E0000001E0000001E000000486505
:1014E00061746564206265642073776974636865FC
:1014F00064206F66662E204D415854454D5020742F
:101500007269676765726564202121004572723ACD
:10151000204D415854454D5020424544003A204505
:101520007874727564657220737769746368656432
:10153000206F66662E204D494E54454D50207472E2
:10154000696767657265642021004572723A204DB3
:10155000494E54454D50003A204578747275646583
:1015600072207377697463686564206F66662E20E5
:101570004D415854454D50207472696767657265D6
:1015800064202121004572723A204D415854454D46
:101590005000202D20496E76616C69642065787456
:1015A0007275646572206E756D62657220210050DF
:1015B0004944204175746F74756E652066696E6963
:1015C00073686564212050757420746865206C61AF
:1015D0007374204B702C204B6920616E64204B6427
:1015E00020636F6E7374616E74732066726F6D200A
:1015F00061626F766520696E746F20436F6E6669F5
:101600006775726174696F6E2E680050494420419D
:1016100075746F74756E65206661696C65642120F0
:1016200074696D656F75740020403A006F6B2054CB
:101630003A006F6B20423A00504944204175746F64
:1016400074756E65206661696C6564212054656DF2
:10165000706572617475726520746F6F2068696758
:101660006800204B643A2000204B693A2000204B50
:10167000703A200020436C617373696320504944C1
:1016800020002054753A2000204B753A2000206D30
:1016900061783A2000206D696E3A200020643A207B
:1016A0000020626961733A20001000AD0330016AC6
:1016B0000150022B0170030A019004F500B005E50A
:1016C00000D006D800F007CE001009C500300ABED1
:1016D00000500BB700700CB100900DAB00B00EA61F
:1016E00000D00FA200F0109D001012990030139549
:1016F000005014920070158E0090168B00B0178762
:1017000000D0188400F0198100101B7E00301C7B73
:1017100000501D7900701E7600901F7300B020707D
:1017200000D0216E00F0226B001024690030256685
:1017300000502663007027610090285E00B0295C8D
:1017400000D02A5900F02B5600102D5400302E5195
:1017500000502F4E0070304B0090314800B03245A1
:1017600000D0334200F0343E0010363B00303737B3
:10177000005038330070392E00903A2900B03B23D6
:1017800000D03C1B00F03D1100103F0100F03F0075
:1017900000436172642072656D6F76656400436119
:1017A000726420696E736572746564004D33303005
:1017B000205336353920503230300A4D3330302006
:1017C00053363938205032303000B02000B020007D
:1017D0002D2D3A2D2D00466C6F77203100466C6F11
:1017E00077203100466C6F77203000466C6F772091
:1017F0003000466C6F7700466C6F770046616E2054
:1018000073706565640046616E2073706565640081
:1018100042656400426564004E6F7A7A6C652032DE
:10182000004E6F7A7A6C652032004E6F7A7A6C6562
:10183000004E6F7A7A6C6500537065656400537072
:10184000656564004D61696E00507265686561741C
:1018500020504C4120426564005072656865617497
:1018600020504C4120416C6C005072656865617479
:1018700020504C41203200507265686561742050E0
:101880004C41203100507265706172650050726584
:10189000686561742041425320426564005072655E
:1018A000686561742041425320416C6C0050726540
:1018B000686561742041425320320050726568654A
:1018C000617420414253203100507265706172652D
:1018D00000580059005A00457874727564657200AA
:1018E0004578747275646572004D6F7665205A0094
:1018F0004D6F76652059004D6F76652058004D6F0D
:1019000076652061786973004D6F766520302E31E1
:101910006D6D004D6F766520316D6D004D6F766594
:101920002031306D6D0050726570617265004D6FD1
:1019300076652061786973004D383000537769749B
:10194000636820706F776572206F6E004D383100CC
:1019500053776974636820706F776572206F66666D
:1019600000436F6F6C646F776E00507265686561DD
:101970007420414253005072656865617420504C78
:10198000410053657420686F6D65206F66667365EE
:10199000747300473238004175746F20686F6D654D
:1019A000004D38340044697361626C65207374655E
:1019B0007070657273004D61696E0042656400422B
:1019C0006564004E6F7A7A6C65004E6F7A7A6C654A
:1019D0000046616E2073706565640046616E207319
:1019E000706565640054656D7065726174757265CB
:1019F0000042656400426564004E6F7A7A6C65004F
:101A00004E6F7A7A6C650046616E2073706565640E
:101A10000046616E2073706565640054656D706585
:101A200072617475726500507265686561742041F9
:101A3000425320636F6E6600507265686561742062
:101A4000504C4120636F6E66005049442D43005056
:101A500049442D43005049442D44005049442D44ED
:101A6000005049442D49005049442D4900504944F3
:101A70002D50005049442D500020FF2046616374D2
:101A80000020FF20466163740020FF204D61780034
:101A900020FF204D61780020FF204D696E0020FF5F
:101AA000204D696E004175746F74656D70004F66EE
:101AB00066004F6E200046616E207370656564009D
:101AC00046616E207370656564004265640042651E
:101AD00064004E6F7A7A6C65004E6F7A7A6C65009E
:101AE000436F6E74726F6C004573746570732F6D05
:101AF0006D004573746570732F6D6D005A73746556
:101B000070732F6D6D005A73746570732F6D6D0057
:101B10005973746570732F6D6D00597374657073AC
:101B20002F6D6D005873746570732F6D6D00587351
:101B3000746570732F6D6D00412D74726176656CE4
:101B400000412D74726176656C00412D726574726E
:101B500061637400412D7265747261637400416D3C
:101B60006178206500416D6178206500416D617884
:101B7000207A00416D6178207A00416D617820798A
:101B800000416D6178207900416D617820780041D5
:101B90006D61782078005654726176206D696E0010
:101BA0005654726176206D696E00566D696E0056EE
:101BB0006D696E00566D6178206500566D61782004
:101BC0006500566D6178207A00566D6178207A0044
:101BD000566D6178207900566D6178207900566DD8
:101BE0006178207800566D617820780056652D6AFE
:101BF00065726B0056652D6A65726B00567A2D6AA8
:101C000065726B00567A2D6A65726B005678792D75
:101C10006A65726B005678792D6A65726B00416354
:101C200063656C00416363656C00436F6E74726F33
:101C30006C0046696C2E204469612E203100466993
:101C40006C2E204469612E2031004520696E206D84
:101C50006DB3004F6666004F6E2000436F6E747266
:101C60006F6C004C434420636F6E74726173740038
:101C7000526573746F7265206661696C7361666525
:101C8000004C434420636F6E747261737400466944
:101C90006C616D656E74004D6F74696F6E00546594
:101CA0006D7065726174757265004D61696E004D8D
:101CB0003234004D323320257300F92E2E004D6151
:101CC000696E004E6F20534420636172640050724D
:101CD000696E742066726F6D2053440053746F7088
:101CE000207072696E7400526573756D6520707234
:101CF000696E74005061757365207072696E74004E
:101D0000436F6E74726F6C00507265706172650023
:101D100054756E6500496E666F2073637265656EFB
:101D20000000060900FE070192032120FFFF08FEC4
:101D300007FF000000060000010707060200808080
:101D40008080800080030202060105A0A00507072D
:101D50000600005050F850F85050050707060000E4
:101D60002078A07028F020050707060000C0C810E2
:101D7000204098180507070600006090A040A89032
:101D800068020303060104C0408003070706010040
:101D9000204080808040200307070601008040200B
:101DA0002020408005050506000120A870A8200518
:101DB00005050600012020F820200203030602FF8B
:101DC000C04080050101060003F80202020602007D
:101DD000C0C0050505060001081020408005070762
:101DE000060000708888888888700307070601004D
:101DF00040C040404040E0050707060000708808EA
:101E0000708080F8050707060000F8102010080809
:101E1000F005070706000010305090F81010050775
:101E200007060000F880F00808887005070706001C
:101E300000708080F0888870050707060000F808A9
:101E40001020202020050707060000708888708871
:101E500088700507070600007088887808087002F7
:101E60000505060200C0C000C0C00206060602FF4B
:101E7000C0C000C04080040707060000102040805A
:101E8000402010050303060002F800F804070706C7
:101E900001008040201020408005070706000070E8
:101EA00088081020002005070706000070880868D1
:101EB000A8A870050707060000708888F888888839
:101EC000050707060000F08888F08888F0050707F6
:101ED0000600007088808080887005070706000073
:101EE000F08888888888F0050707060000F8808059
:101EF000F08080F8050707060000F88080F08080F9
:101F000080050707060000708880B888887005077C
:101F100007060000888888F8888888010707060275
:101F200000808080808080800507070600003810D0
:101F300010101090600507070600008890A0C0A050
:101F40009088050707060000808080808080F80563
:101F5000070706000088D8A888888888050707062C
:101F600000008888C8A898888805070706000070C0
:101F7000888888888870050707060000F08888F040
:101F800080808005070706000070888888A8906810
:101F9000050707060000F08888F0A090880507076D
:101FA000060000788080700808F00507070600002A
:101FB000F8202020202020050707060000888888B8
:101FC00088888870050707060000888888888850F8
:101FD000200507070600008888888888A85005071C
:101FE00007060000888850205088880507070600EB
:101FF0000088888850202020050707060000F80880
:1020000010204080F8030707060100E080808080F0
:1020100080E0050505060001804020100803070741
:10202000060100E02020202020E005030306000434
:10203000205088050101060000F802020206020590
:1020400080400505050600007008788878050707B8
:102050000600008080B0C88888F0050505060000ED
:102060007080808870050707060000080868988857
:1020700088780505050600007088F8807005070758
:102080000600003048E0404040400506060600FFDC
:102090007088887808700507070600008080B0C83F
:1020A0008888880107070602008000808080808081
:1020B0000308080601FF200020202020A04004077C
:1020C00007060000808090A0C0A0900307070601CB
:1020D00000C04040404040E0050505060000D0A893
:1020E000A8A8A8050505060000B0C88888880505C9
:1020F0000506000070888888700506060600FFF057
:102100008888F080800506060600FF7888887808B1
:1021100008050505060000B0C88080800505050695
:10212000000070807008F00407070600004040E0DF
:1021300040404030050505060000888888986805FD
:102140000505060000888888502005050506000062
:102150008888A8A8500505050600008850205088EA
:102160000506060600FF88888878087005050506BC
:102170000000F8102040F803070706010020404047
:102180008040402001070706020080808080808018
:102190008003070706010080404020404080050280
:1021A0000206000268900000000600000000000621
:1021B0000000000000060000000000060000000013
:1021C00000060000000000060000000000060000FD
:1021D00000000006000000000006000000000006ED
:1021E00000000000000600000000000600000000E3
:1021F00000060000000000060000000000060000CD
:1022000000000006000000000006000000000006BC
:1022100000000000000600000000000600000000B2
:10222000000600000000000600000000000600009C
:10223000000000060000000000060000000000068C
:102240000000000000060000000000060000000082
:10225000000600000000000600000000000600006C
:10226000000000060000000000060000000000065C
:102270000000010707060200800080808080800542
:1022800007070600002070A8A0A870200507070611
:102290000000304040E04050A805050506000088D9
:1022A00070507088050707060000885020F820F855
:1022B00020010707060200808080008080800508DA
:1022C00008060000304820505020906003010106AD
:1022D0000107A0050707060000F888B8B8B888F815
:1022E000050707060001700878887800F8050505DD
:1022F0000600012850A05028050303060001F80835
:10230000080202020602064080050707060000F8E0
:1023100088A88898A8F8050101060006F8040404B6
:10232000060003609090600507070600002020F873
:10233000202000F804050506000360902040F0030B
:102340000505060003E020E020E002020206020686
:1023500040800508080600FF8888888898E8808003
:1023600005070706000078989878181818020202E6
:10237000060202C0C00202020602FF4080030505F9
:1023800006000340C04040E00507070600017088D2
:1023900088887000F8050505060001A0502850A0A7
:1023A0000507070600008890A858B8080805070721
:1023B0000600008890B848982038050808060000F4
:1023C000C040C048D83808080507070600002000AC
:1023D00020408088700508080600004020007088B2
:1023E000F888880508080600001020007088F88822
:1023F000880508080600002050007088F8888805C5
:1024000008080600006890007088F88888050808A9
:102410000600005000708888F888880508080600C3
:10242000002050207088F8888805070706000038CB
:1024300060A0B8E0A0B80508080600FF708880809A
:1024400088702060050808060000402000F880F031
:1024500080F8050808060000081000F880F080F8F1
:10246000050808060000205000F880F080F80507F5
:10247000070600005000F880F080F8030808060105
:1024800000804000E0404040E003080806010020D2
:102490004000E0404040E003080806010040A00082
:1024A000E0404040E0030707060100A000E0404094
:1024B00040E0050707060000704848E848487005F6
:1024C000080806000068900088C8A89888050808D1
:1024D000060000402070888888887005080806007B
:1024E0000010207088888888700508080600002081
:1024F0005000708888887005080806000068900001
:102500007088888870050808060000500070888868
:102510008888700505050600018850205088050848
:10252000080600FF1070A8A8A8A8704005080806B3
:102530000000402088888888887005080806000008
:1025400010208888888888700508080600002050B8
:102550000088888888700508080600005000888870
:102560008888887005080806000010208850202000
:1025700020200509090600FFC0407048487040400F
:10258000E00408080601FF609090A09090E08005AC
:1025900008080600004020007008788878050808C0
:1025A00006000010200070087888780508080600EA
:1025B0000020500070087888780508080600006838
:1025C00090007008788878050707060000500070B2
:1025D00008788878050808060000205020700878E0
:1025E0008878050606060000D02878A0A8500506C1
:1025F000060600FF7080887020600508080600004D
:102600004020007088F8807005080806000010203F
:10261000007088F8807005080806000020500070DF
:1026200088F8807005070706000050007088F88061
:102630007003080806010080400040C04040E003ED
:10264000080806010020400040C04040E0030808A0
:1026500006010040A00040C04040E003070706011B
:1026600000A00040C04040E0050707060000A04071
:10267000A010788870050808060000689000B0C8AF
:10268000888888050808060000402000708888882F
:102690007005080806000010200070888888700502
:1026A0000808060000205000708888887005080817
:1026B000060000689000708888887005070706008B
:1026C000005000708888887005050506000120000C
:1026D000F8002005080806000040F0C888889878AF
:1026E00010050808060000C0F88888888888F80562
:1026F00005050600012030F8302005080806000016
:102700002070F820202020E00509090600FF207035
:10271000A8A8B8888870200509090600FFE080C0D5
:10272000B0A8283028280509090600FFF8A88888DD
:10273000888888A8F8050A0A0600FE2050505050E4
:1027400088A8A888700000000000000000000000B9
:10275000007FFFE00000000000000000000000001B
:102760007000E000000000000000000000000061B8
:10277000F86000000000000000000000000041F8C8
:102780002000000000000000000000000040F020D9
:102790000000000000000000000000004060200079
:1027A00000000000000000000000005801A07F8031
:1027B000000000000000004104005C63A0FFC000B6
:1027C0000000000000002082005EF7A0FFC00000B3
:1027D00000000000002082005EF7A0FFC0000000A3
:1027E000000000004104005C63A07F800000000046
:1027F0000000008208005801A07F80000000000057
:102800000001041000406020FFC000000000000034
:102810000104100040F020FFC00000000000000094
:1028200082080041F820FFC00000000000000041C5
:10283000040061F8603F000000000000000000009C
:10284000007000E01E0000000000000001FFFF809B
:102850007FFFE00C0000000000000001FFFF80008F
:1028600000000000000000000000000000007FFFEA
:10287000E00000000000000000000000007000E028
:10288000000000000000000000000000630C600079
:102890000000000000000000000000470E200000C3
:1028A000000000000000000000004F0F20000000AA
:1028B0000000000000000000005F0FA0000000000A
:1028C00000000000000000005E07A07F8000000004
:1028D00000000000410400406020FFC00000000034
:1028E00000000020820040F020FFC0000000000037
:1028F000000020820040F020FFC000000000000027
:10290000004104004060207F8000000000000000C3
:102910008208005E07A07F80000000000000010424
:1029200010005F0FA0FFC0000000000000010410B5
:10293000004F0F20FFC000000000000000820800D0
:10294000470E20FFC00000000000000041040063AB
:102950000C603F000000000000000000000070005C
:10296000E01E0000000000000001FFFF807FFFE08C
:102970000C0000000000000001FFFF800000001FAD
:10298000FFFFFFFFFFFF600000000001FF400000AD
:10299000000000FF8000000000007F83CF00000CDB
:1029A000303F87FF80000C301F867980000C000FBD
:1029B0008C30C7838C30E78C30CFC7CC31F38C3070
:1029C000DCECEC33B98C30D86C6C33198C30D06CB7
:1029D0000C33198C30D86C0C33198C30DC6C0E3BFA
:1029E000198C30CF7C079F198C30C77C038F19401E
:1029F000000000000002600000000000061FFFFF52
:102A0000FFFFFFF800091200FC0A01E803D720FFCE
:102A1000FD0EFD0BFD00000009000E010B0B09046B
:102A20000080808080808080000080800404040911
:102A3000030790909090080A0A090000242424FFBC
:102A40002424FF242424070B0B0901FF107C9290FF
:102A500050381412927C10070A0A09010042A4A4FB
:102A6000481010244A4A84070A0A0901006090901D
:102A70009060629488946201040409040780808055
:102A800080030C0C0903FF20404080808080808000
:102A9000404020030C0C0903FF80404020202020F0
:102AA0002020404080070707090103109254385442
:102AB0009210070707090101101010FE10101002F4
:102AC00004040904FEC0C04080070101090104FE9E
:102AD000020202090400C0C0070A0A090100020438
:102AE0000408101020404080070A0A0901003844F9
:102AF0008282828282824438070A0A0901001030E9
:102B000050901010101010FE070A0A0901003844F6
:102B100082020408102040FE070A0A090100FE0292
:102B20000408180402028478070A0A090100040C48
:102B300014244484FE040404070A0A090100FE80E8
:102B40008080F80402028478070A0A0901003C40E8
:102B50008080B8C482824438070A0A090100FE0254
:102B60000404080810101010070A0A09010038446C
:102B70008244384482824438070A0A0901003844F2
:102B80008282463A02020478020707090400C0C0A4
:102B9000000000C0C00209090904FEC0C000000016
:102BA000C0C040800509090902000810204080408B
:102BB000201008070404090102FE0000FE050909AF
:102BC000090200804020100810204080070A0A09EE
:102BD000010038448202040810100010070A0A0994
:102BE000010038449AAAAAAAAA9C403C070A0A09EA
:102BF000010010282828447C44828282070A0A099E
:102C00000100F8848284F884828284F8070A0A0921
:102C100001003C42808080808080423C070A0A0993
:102C20000100F88482828282828284F8070A0A097B
:102C30000100FE808080F880808080FE070A0A09FB
:102C40000100FE808080F88080808080070A0A0969
:102C5000010038448280808E82824438070A0A0943
:102C6000010082828282FE8282828282050A0A09B1
:102C70000200F82020202020202020F8070A0A093E
:102C800001003E080808080808888870070A0A0931
:102C9000010082848890A0D088848282070A0A0971
:102CA0000100808080808080808080FE070A0A0981
:102CB00001008282C6AA928282828282070A0A095F
:102CC00001008282C2A2928A86828282070A0A094F
:102CD00001007C82828282828282827C070A0A09C7
:102CE0000100F884828284F880808080080B0B09C0
:102CF00001FF384482828282828A443A01070A0AAA
:102D0000090100F884828284F890888482070A0A84
:102D10000901007C8280807C020202827C070A0A10
:102D2000090100FE101010101010101010070A0AF0
:102D300009010082828282828282824438070A0AE2
:102D400009010082828244444428282810070A0A84
:102D50000901008282828292929292AA44070A0A10
:102D600009010082824428101028448282070A0A3E
:102D700009010082824428101010101010070A0A5E
:102D8000090100FE0204081020408080FE040C0CA3
:102D90000903FFF080808080808080808080F00741
:102DA0000A0A0901008040402010100804040204AF
:102DB0000C0C0902FFF01010101010101010101061
:102DC000F0070404090106102844820801010900E3
:102DD000FFFF03030309030A8040200707070901D7
:102DE000007C02027E82867A070A0A09010080803E
:102DF00080BCC2828282C2BC0707070901007C82B4
:102E0000808080827C070A0A0901000202027A8619
:102E1000828282867A0707070901007C8282FE800F
:102E2000827C070A0A0901001C22222020F82020A7
:102E30002020070A0A0901FD7A84848478807C8234
:102E4000827C070A0A090100808080BCC2828282DB
:102E50008282050A0A090200600000E0202020208A
:102E600020F8050D0D0902FD1800003808080808B3
:102E70000808888870070A0A090100808080848811
:102E800090B0C88482050A0A090200E020202020B0
:102E900020202020F8070707090100EC9292929267
:102EA0009282070707090100BCC2828282828207E0
:102EB00007070901007C82828282827C070A0A0954
:102EC00001FDB8C4828282C4B8808080070A0A09E2
:102ED00001FD3A46828282463A020202070707094A
:102EE00001009C6242404040400707070901007C06
:102EF00082807C02827C0709090901002020FC20D5
:102F0000202020221C07070709010082828282827A
:102F1000867A07070709010082824444282810079F
:102F200007070901008282929292AA4407070709C3
:102F3000010082442810284482070A0A0901FD4240
:102F4000422424241818109060070707090100FE86
:102F50000408102040FE060B0B0902001C20202054
:102F600020C0202020201C010C0C0904FF80808040
:102F7000808080808080808080060B0B090100E0CB
:102F8000101010100C10101010E0070303090107B7
:102F900062928CFFFFFFFFFFFFFFFFFFFFFFFFFFBE
:102FA000FFFFFFFFFFFFFFFFFFFFFFFFFFFFFFFF31
:102FB000FFFFFFFF00000009000E010B0B090400DA
:102FC0008080000080808080808080060808090161
:102FD0000008789490A0A47840070A0A0901001C10
:102FE000222020F8202060A25C0706060901038247
:102FF0007C44447C82070A0A090100828244287CBE
:10300000107C101010010B0B0904FF808080808061
:10301000008080808080040B0B0902FF609080603C
:103020009090906010906003020209030BA0A0082A
:1030300009090900013C4299A5A1A599423C05074F
:1030400007090103609070907800F80708080901EB
:10305000011224489090482412060404090102FC3D
:10306000040404050101090204F808090909000122
:103070003C42B9A5BDA9A5423C060101090109FCD4
:10308000040404090306609090600709090901011E
:10309000101010FE10101000FE0406060901046056
:1030A00090106080F00406060901046090201090E2
:1030B0006003030309030A2040800709090901FE90
:1030C0008282828282C6BA8080070A0A0901007E53
:1030D0008A8A8A7A0A0A0A0A0A020202090404C0CF
:1030E000C00403030902FD209060030606090104E1
:1030F00040C0404040E00506060901047088887021
:1031000000F8070808090101904824121224489089
:10311000070A0A09010040C0404042E60A121A06A6
:10312000070A0A09010040C040404CF2020C101E80
:10313000070A0A0901006090201092660A121A0616
:10314000070A0A0901001000101020408082827CCA
:10315000070E0E0901002010080010282828447CC2
:1031600044828282070E0E090100081020001028F8
:103170002828447C44828282070E0E090100102810
:10318000440010282828447C44828282070D0D09BF
:10319000010034580010282828447C448282820789
:1031A0000D0D09010028280010282828447C44829D
:1031B0008282070E0E0901001028281010282828E6
:1031C000447C44828282070A0A0901001E282828BA
:1031D0004E784888888E070D0D0901FD3C4280809D
:1031E00080808080423C082418070E0E09010020D0
:1031F000100800FE808080F880808080FE070E0E20
:1032000009010008102000FE808080F88080808006
:10321000FE070E0E09010010284400FE808080F891
:1032200080808080FE070D0D090100282800FE80A7
:103230008080F880808080FE050E0E09020040200C
:103240001000F82020202020202020F8050E0E0954
:10325000020010204000F82020202020202020F80C
:10326000050E0E09020020508800F82020202020A2
:10327000202020F8050D0D090200505000F82020F4
:10328000202020202020F8070A0A09010078444263
:1032900042F24242424478070D0D090100345800C1
:1032A0008282C2A2928A86828282070E0E09010061
:1032B000201008007C82828282828282827C070EB9
:1032C0000E090100081020007C82828282828282A4
:1032D000827C070E0E090100102844007C82828245
:1032E00082828282827C070D0D0901003458007CA5
:1032F00082828282828282827C070D0D09010028EF
:1033000028007C82828282828282827C070707096F
:10331000010182442810284482070C0C0901FF0295
:103320007C868A8A9292A2A2C27C80070E0E090134
:1033300000201008008282828282828282443807C2
:103340000E0E090100081020008282828282828291
:10335000824438070E0E0901001028440082828240
:1033600082828282824438070D0D090100282800DC
:1033700082828282828282824438070E0E09010094
:103380000810200082824428101010101010070A24
:103390000A0901008080FC828282FC808080060A0B
:1033A0000A09010038444448D04844444458070BB3
:1033B0000B090100201008007C02027E82867A0739
:1033C0000B0B090100081020007C02027E82867A25
:1033D000070B0B090100102844007C02027E828644
:1033E0007A070A0A0901003458007C02027E8286AC
:1033F0007A070A0A0901002828007C02027E8286D8
:103400007A070C0C09010010282810007C02027EAB
:1034100082867A0707070901006C12127E90926C6F
:10342000070A0A0901FD7C82808080827C10483076
:10343000070B0B090100201008007C8282FE8082AD
:103440007C070B0B090100081020007C8282FE80A3
:10345000827C070B0B090100102844007C8282FE4D
:1034600080827C070A0A0901002828007C8282FEEB
:1034700080827C050C0C0902008040200000E020C6
:1034800020202020F8050C0C09020010204000002C
:10349000E02020202020F8050C0C09020020508894
:1034A0000000E02020202020F8050B0B090200502E
:1034B000500000E02020202020F8070B0B0901001D
:1034C000483050083C448282824438070A0A090185
:1034D00000345800BCC28282828282070B0B090131
:1034E00000201008007C82828282827C070B0B09FC
:1034F0000100081020007C82828282827C070B0BF4
:10350000090100102844007C82828282827C070AA2
:103510000A0901003458007C82828282827C070A78
:103520000A0901002828007C82828282827C0709A5
:103530000909010010381000FE00103810070909B1
:103540000901FF027C8A8A92A2A27C80070B0B09E8
:103550000100402010008282828282867A070B0B53
:10356000090100081020008282828282867A070B7D
:103570000B090100102844008282828282867A0729
:103580000A0A0901002828008282828282867A073C
:103590000E0E0901FD0408100042422424241818CC
:1035A000109060070B0B0901FE8080B8C4828282F4
:1035B000C4B88080070D0D0901FD24240042422477
:1035C0002424181810906000000A0B02090C0D0E3C
:1035D00008070304010000000000000000000000D4
:1035E00000000000000000000000000000000000DB
:1035F0000000001211100000000000000000000098
:1036000000000000000000000000000000000000BA
:103610000000000000000000000000000001021097
:1036200020200808102040102040800201020108DC
:10363000040201010204081020408080402010088C
:1036400004020180040201804020100804020108E5
:103650000402010102040810204080010204081045
:103660002040801008040880102040044080102072
:103670004004800505050507050808080802020240
:10368000020A0A08080404040401010101010101FD
:10369000010303030303030303040707070C0C0CD4
:1036A0000C0C0C0C0C0202020206060606060606AC
:1036B000060B0B0B0B0B0B0B0B07070A0A0A0A0A6C
:1036C0000A0505050404040808000020002300265C
:1036D0000029002C002F0032000001000003010629
:1036E00001090100002200250028002B002E0031D6
:1036F00000340002010000050108010B0100002157
:1037000000240027002A002D0030003300010100B2
:1037100000040107010A01024E414E494E49545925
:10372000494E46CDCCCC3D0AD7233C17B7D138778C
:10373000CC2B329595E6241FB14F0A0000204100A2
:1037400000C84200401C4620BCBE4CCA1B0E5AAEEC
:10375000C59D7400905556CEF0CE945511241FBED1
:10376000CFEFD1E2DEBFCDBF00E00CBF15E0A0E09F
:10377000B2E0E4E0F0ED01E00BBF02C007900D9273
:10378000A630B107D9F725E1A6E0B5E001C01D924A
:10379000A53DB207E1F717E3CAE5D7E300E006C0AD
:1037A00022970109FE010BBF0E94CBE1C435D1076E
:1037B00080E00807A9F70E94E6D80C94F1E70C9482
:1037C0000000FC01148217821382128288E694E0C2
:1037D00091838083089528E634E0FC0131832083BF
:1037E0002781222319F004960C94A46F0895CF9298
:1037F000DF92EF92FF920F931F93CF93DF93EC0131
:103800008F96DFDFCE01805B9F4FDBDF7E012FE6EF
:10381000E20EF11C87016E013BE5C31A3EEFD30AAD
:10382000C801CFDF015E1F4F0C151D05C9F7FE0152
:10383000E955FE4F89E1818314823596178ACE01BE
:1038400086539E4FBEDFFE01E558FD4F1082118268
:1038500012821382389610821182128213821A8287
:103860001B8218821982F80111821082FE01E75131
:10387000FE4F108286E391E0F7019C0111922150E6
:103880003040E1F7FE01E957FD4F81E080831EA63D
:103890001DA60E9481D6C158DD4F68577C4E8F4FC0
:1038A0009F4F688379838A839B83DF91CF911F9198
:1038B0000F91FF90EF90DF90CF900895FC0120E0F2
:1038C0003EE2DB014C91403241F0283011F430836C
:1038D0003196DB014C91408331962F5F6F5F7F4FB4
:1038E0002B3079F7108208952F923F924F925F927A
:1038F0006F927F928F929F92AF92BF92CF92DF9200
:10390000EF92FF920F931F93CF93DF93CDB7DEB764
:10391000C858D1090FB6F894DEBF0FBECDBF8C01D9
:103920006B017A014901CA57DF4F1882C658D0404F
:1039300084E0E80EF11C1801E2E12E0E311C380182
:10394000F8E76F1AFDEF7F0A580186E7A81A8DEF96
:10395000B80A80E4482E512C4C0E5D1EE4E04E0E59
:10396000511CA101BE016F5F7F4FC7010E940E6E07
:1039700018160CF031C12C85322F3871303109F016
:103980009EC0F301808191810197029708F497C04E
:10399000BE016F5F7F4FCE0187589F4F8FDFA0968C
:1039A0001FAEA097F6018081811107C06FED72E014
:1039B000CE01815A9F4F0E94E9E4B601CE01815A9F
:1039C0009F4F0E94E9E4BE0167587F4FCE01815AA4
:1039D0009F4F0E94E9E46FED72E0CE01815A9F4F44
:1039E0000E94E9E4CE01805C9F4FEBDE21E0AE0156
:1039F00047585F4FB701C2010E949B71811139C0C6
:103A0000F30180819181892BA1F5EEE0FCE08491A6
:103A1000882341F09091C00095FFFCCF8093C600B1
:103A20003196F5CFE1EEF2E08191882339F0909163
:103A3000C00095FFFCCF8093C600F6CF8091C000F8
:103A400085FFFCCF8AE08093C600FE01E758FF4F58
:103A50008191882339F09091C00095FFFCCF80932D
:103A6000C600F6CF8091C00085FFFCCF8AE080932E
:103A7000C6008BE1FE01EC5BFF4FDE0195960190E5
:103A80000D928A95E1F724968EAD9FAD24979CA365
:103A90008BA388E694E09AA389A320E030E0AE01EE
:103AA0004F5D5F4FBE01615A7F4FC8011DDFCE01E0
:103AB000819691DECE01805C9F4F8DDE52CF898151
:103AC000882309F489C08E3209F44BCFF80182892A
:103AD0008E3209F446CF23FD44CF81E0303109F026
:103AE00080E0F8018483811108C08985873409F05A
:103AF00038CF8A858E3709F434CF98012B5F3F4F3A
:103B0000BE016F5F7F4FC901C957DF4F2883C75878
:103B1000D040C857DF4F3883C858D040CFDEF301BC
:103B200080819181C957DF4F2881C758D040C8573D
:103B3000DF4F3881C858D0400097F1F4F6018191E9
:103B4000882339F09091C00095FFFCCF8093C60088
:103B5000F6CFF9018191882339F09091C00095FF4B
:103B6000FCCF8093C600F6CF8091C00085FFFCCFCC
:103B70008AE08093C600F5CE8130910539F4F501D5
:103B800080819181019691838083EBCE029709F029
:103B9000E8CE8114910439F0B901C4010E94D6E441
:103BA000892B71F419C0CA57DF4FF881C658D0402D
:103BB0002F2F30E0F501808191812817390761F0BE
:103BC000CA57DF4FF881C658D040FF5FCA57DF4F52
:103BD000F883C658D040C5CEC857DF4F0FB6F8940B
:103BE000DEBF0FBECDBFDF91CF911F910F91FF9030
:103BF000EF90DF90CF90BF90AF909F908F907F908D
:103C00006F905F904F903F902F900895EF92FF92AA
:103C10000F931F93CF93DF93CDB7DEB76F970FB698
:103C2000F894DEBF0FBECDBF8C01FC01E857FD4FFD
:103C3000118210827C0183E3E80EF11C40E050E029
:103C4000BA01C7010E94C16E8BE1F701DE01159632
:103C500001900D928A95E1F7F80181A992A99C83C0
:103C60008B8388E694E09A83898320E030E0AE017C
:103C70004F5F5F4F6FE774E0C80136DECE010196FB
:103C8000AADD6F960FB6F894DEBF0FBECDBFDF91F1
:103C9000CF911F910F91FF90EF9008952BE1FB01C1
:103CA0003496DC01149601900D922A95E1F7FB0100
:103CB00022813381FC01338322830895EF92FF92A6
:103CC0000F931F93CF93DF93EC011B828EA9882360
:103CD00021F0CE01C3960E94A46F7E0189E5E81A07
:103CE0008EEFF80A45E360E0C7010E94256A811162
:103CF0001FC0EEE0FCE08491882341F09091C00069
:103D000095FFFCCF8093C6003196F5CFEDE8F3E048
:103D10008491882341F09091C00095FFFCCF80935F
:103D2000C6003196F5CF8091C00085FFFCCF76C0EC
:103D30008E0104551E4F41E0B701C8010E94A577CE
:103D4000811126C040E0B701C8010E94A57781110A
:103D50001FC0E4E1FCE08491882341F09091C00011
:103D600095FFFCCF8093C6003196F5CFEAE7F3E0EC
:103D70008491882341F09091C00095FFFCCF8093FF
:103D8000C6003196F5CF8091C00085FFFCCF46C0BC
:103D9000B801CE01C3960E94B26C81111FC0E4E14C
:103DA000FCE08491882341F09091C00095FFFCCF06
:103DB0008093C6003196F5CFEAE6F3E0849188233C
:103DC00041F09091C00095FFFCCF8093C6003196E2
:103DD000F5CF8091C00085FFFCCF20C081E08B83B0
:103DE000EEE0FCE08491882341F09091C00095FFC3
:103DF000FCCF8093C6003196F5CFEFE5F3E08491D8
:103E0000882341F09091C00095FFFCCF8093C600BD
:103E10003196F5CF8091C00085FFFCCF8AE080937A
:103E2000C6008E01015D1F4FB801CE01805B9F4F20
:103E300035DFC25BDF4F19830883DF91CF911F917C
:103E40000F91FF90EF900895FC0112821382089564
:103E5000FC012381222311F021E022830895FC013B
:103E60002281211112820895AF92BF92CF92DF92E8
:103E7000EF92FF920F931F93CF93DF931F92CDB7D3
:103E8000DEB78C018FE2FB0181935F01D12C41E011
:103E90007801FBE5EF1AFEEFFF0A9FE1C92E2D2DF9
:103EA00030E0F7018081918128173907D8F4C29E4C
:103EB000C001C39E900D11248D589F4FB501800FF6
:103EC000911F49830E94596CC50149815C0101968B
:103ED000F5012081222321F04D3810F44F5FF6CFF9
:103EE000D394DDCF47FD11C0B501C80182539E4F69
:103EF0000F90DF91CF911F910F91FF90EF90DF9086
:103F0000CF90BF90AF900C94596CF50110820F9038
:103F1000DF91CF911F910F91FF90EF90DF90CF90A5
:103F2000BF90AF9008953F924F925F926F927F92B1
:103F30008F929F92AF92BF92CF92DF92EF92FF92B9
:103F40000F931F93CF93DF93CDB7DEB7AC970FB628
:103F5000F894DEBF0FBECDBF7C015B01FC01838105
:103F6000882309F407C1C70182539E4F0E94A46FA2
:103F7000F7011282CE0101966C0123DC27019EE439
:103F8000490E511CC7018F96F20191838083F50180
:103F900080818F3209F084C06FE270E0C5010E9419
:103FA000F4E48C010F5F1F4F2AE0322E011511053A
:103FB00009F47CC06FE270E0C8010E94F4E44C0197
:103FC000009709F474C00817190708F070C03C0185
:103FD000601A710AA301B801CE0180960E941DE506
:103FE000E0E2F0E0EC0FFD1FE60DF71D1082FE0190
:103FF000B0968191882339F09091C00095FFFCCF55
:104000008093C600F6CF8091C00085FFFCCF309230
:10401000C600F201608171816115710519F06C5F54
:104020007F4F02C060E070E021E0AE01405E5F4F74
:10403000CE0105960E949B7181112BC0E4E4F2E051
:104040008491882341F09091C00095FFFCCF80932C
:10405000C6003196F5CFFE01B0968191882339F0E4
:104060009091C00095FFFCCF8093C600F6CFE2E4AC
:10407000F2E08491882341F09091C00095FFFCCF3D
:104080008093C6003196F5CF8091C00085FFFCCFAC
:104090006CC0F201D182C08284010F5F1F4F86CFB6
:1040A000C701805B9F4FF201918380838501F201FC
:1040B00080819181009711F0049602C080E090E029
:1040C000B8010E947172882339F1E4E3F2E084912F
:1040D000882341F09091C00095FFFCCF8093C600EB
:1040E0003196F5CFF8018191882339F09091C00085
:1040F00095FFFCCF8093C600F6CF8091C00085FF6E
:10410000FCCF8AE08093C600F701ED57FD4F108287
:104110001182128213822CC0ECE1F2E08491882398
:1041200041F09091C00095FFFCCF8093C60031967E
:10413000F5CFF8018191882339F09091C00095FF67
:10414000FCCF8093C600F6CFEAE1F2E084918823A9
:1041500041F09091C00095FFFCCF8093C60031964E
:10416000F5CF8091C00085FFFCCF8AE08093C60028
:10417000C60131DBAC960FB6F894DEBF0FBECDBFE3
:10418000DF91CF911F910F91FF90EF90DF90CF9033
:10419000BF90AF909F908F907F906F905F904F9067
:1041A0003F900895CF93DF93EC018B818823C1F179
:1041B000E8E0F2E08491882341F09091C00095FFFF
:1041C000FCCF8093C6003196F5CFFE01ED57FD4F31
:1041D00040815181628173812AE030E086E095E080
:1041E0000E946D2EE6E0F2E08491882341F09091E8
:1041F000C00095FFFCCF8093C6003196F5CFC5581F
:10420000DD4F488159816A817B812AE030E086E078
:1042100095E00E946D2E8091C00085FFFCCF11C0FB
:10422000E6EFF1E08491882341F09091C00095FF82
:10423000FCCF8093C6003196F5CF8091C00085FFFA
:10424000FCCF8AE08093C600DF91CF910895AF92B2
:10425000BF92CF92DF92EF92FF920F931F93CF9373
:10426000DF935C01EB01FB0101900020E9F78F0176
:1042700001501109061B170B6C01F2E3CF1AFEEF78
:10428000DF0AF60110826EE470E0CE010E94F4E4D1
:104290007C01009729F4F8013197EC0FFD1F0DC048
:1042A00060E270E00E94F4E4EC0121966AE270E0C2
:1042B000C7010E94F4E4FC0131978DE081838AE01C
:1042C00082831382BE01C50186539E4F0E944E74A5
:1042D000F6018081882309F1E4E1FCE084918823E0
:1042E00041F09091C00095FFFCCF8093C6003196BD
:1042F000F5CFE0EEF1E08491882341F09091C00089
:1043000095FFFCCF8093C6003196F5CF8091C00019
:1043100085FFFCCF8AE08093C600DF91CF911F918B
:104320000F91FF90EF90DF90CF90BF90AF900895E6
:104330002F923F924F925F926F927F928F929F92B5
:10434000AF92BF92CF92DF92EF92FF920F931F93A3
:10435000CF93DF93CDB7DEB7CC55D1090FB6F89424
:10436000DEBF0FBECDBF8C0189579D4F5C0161112F
:1043700012C0FC018081882309F4B0C03897C08046
:10438000D180E280F3800E9481D6C616D706E80667
:10439000F90608F4A3C0F5011082F80183818111A8
:1043A00007C0C8018BDCF8018381882309F496C01B
:1043B000F80186A58F9385A58F9387ED91E09F9354
:1043C0008F937E01FFE3EF0EF11CFF92EF920E94AC
:1043D0002CE50F900F900F900F900F900F90B12C35
:1043E000F70101900020E9F73197EE19FF09BE1699
:1043F00084F46701CB0CD11CB7FCDA94F601808100
:10440000992787FD90950E9470E4F6018083B3940C
:10441000E7CF4801F3E38F0E911C40E050E0BA0172
:10442000C4010E94C16E512CCE0101966C0130ED89
:10443000632E31E0732E5E0191E2A90EB11C40E0C3
:1044400050E0B601C4010E940E6E1816DCF5412C36
:10445000F60101900020E9F73197EC19FD094E169D
:1044600074F41601240C311C47FC3A94F10180814C
:1044700090E00E9470E4F10180834394E9CF8A8543
:104480008E37E9F245E050E0B701C6010E940FE522
:10449000892BA9F6FF92EF927F926F92BF92AF9213
:1044A0000E942CE5C5010E9409318CEC91E00E942C
:1044B000D9310F900F900F900F900F900F905524BF
:1044C0005394BDCF511004C08FEF9FEFF80104C08B
:1044D000F80185A596A5019696A785A7C45ADF4F32
:1044E0000FB6F894DEBF0FBECDBFDF91CF911F9105
:1044F0000F91FF90EF90DF90CF90BF90AF909F9083
:104500008F907F906F905F904F903F902F90089585
:104510000F931F93CF93DF93EC018C0102531E4F37
:10452000C8010E945A6FC8010E94A46F19821882A4
:10453000DF91CF911F910F910895CF92DF92EF926B
:10454000FF920F931F93CF93DF93CDB7DEB76F9793
:104550000FB6F894DEBF0FBECDBF8C016A017C019F
:104560008EE4E80EF11CC801805B9F4FF701918338
:104570008083E65CFD4F22E030E031832083329679
:104580007183608340E050E0BA0104960E94C16EDE
:10459000F701808191812BE1FC013496DE011596B3
:1045A00001900D922A95E1F7FC01828193819C8311
:1045B0008B8388E694E09A8389839601AE014F5FEE
:1045C0005F4F6FE774E0C8018FD9CE01019603D920
:1045D0006F960FB6F894DEBF0FBECDBFDF91CF91BF
:1045E0001F910F91FF90EF90DF90CF9008952F9241
:1045F0003F924F925F926F927F928F929F92AF9273
:10460000BF92CF92DF92EF92FF920F931F93CF93BF
:10461000DF93CDB7DEB7AC970FB6F894DEBF0FBE11
:10462000CDBF8C016B01342EFC018381882309F4FA
:10463000E1C2EF52FE4F8081882309F4F8C02111B6
:10464000C4C07801F7E1EF1AFEEFFF0AF70180819D
:10465000882361F1E4E1FCE08491882341F09091AA
:10466000C00095FFFCCF8093C6003196F5CFECE1FA
:10467000F3E08491882341F09091C00095FFFCCF36
:104680008093C6003196F5CF4AE050E061E070E0DB
:1046900086E095E00E94412E8091C00085FFFCCF0E
:1046A0008AE08093C6000E94AD43A4C2EEE0FCE025
:1046B0008491882341F09091C00095FFFCCF8093B6
:1046C000C6003196F5CFE3E0F3E08491882341F012
:1046D0009091C00095FFFCCF8093C6003196F5CF36
:1046E000F6018191882339F09091C00095FFFCCFAD
:1046F0008093C600F6CFE8EFF2E08491882341F082
:104700009091C00095FFFCCF8093C6003196F5CF05
:10471000F70180815DE8B52EB801B89E600D711D6E
:10472000112462517E4FC8019FDBF7018081F8019F
:10473000B89EE00DF11D1124E251FE4F81918823B6
:1047400039F09091C00095FFFCCF8093C600F6CF62
:10475000E2EFF2E08491882341F09091C00095FF50
:10476000FCCF8093C6003196F5CF5801FDE7AF1A14
:10477000FDEFBF0AF50140815181628173812AE01A
:1047800030E086E095E00E946D2E8091C00085FFAC
:10479000FCCF8AE08093C600F7012081F80184E015
:1047A000289FE00DF11D1124AF0146515E4FF50128
:1047B00080819181A281B381FA0180839183A28358
:1047C000B3832F5FF70120832CC0EEE0FCE08491DF
:1047D000882341F09091C00095FFFCCF8093C600E4
:1047E0003196F5CFE1EEF2E08491882341F090918B
:1047F000C00095FFFCCF8093C6003196F5CFF6013F
:104800008191882339F09091C00095FFFCCF80936F
:10481000C600F6CF8091C00085FFFCCF8AE0809370
:10482000C600C80182539E4F0E94A46F30C0F80199
:10483000E751FE4F1082EEE0FCE08491882341F0C6
:104840009091C00095FFFCCF8093C6003196F5CFC4
:10485000E0EDF2E08491882341F09091C00095FF53
:10486000FCCF8093C6003196F5CFF6018191882365
:1048700039F09091C00095FFFCCF8093C600F6CF31
:104880008091C00085FFFCCF8AE08093C600F801CC
:104890001282CE0101965C010E94E11B28019EE478
:1048A000490E511CC8018F96F20191838083F60155
:1048B00080818F3209F081C07601FFEFEF1AFF0A85
:1048C0004AE0242EE114F10409F47DC06FE270E0A7
:1048D000C7010E94F4E44C01009709F475C0E81682
:1048E000F90608F071C03C016E187F08A301B701FA
:1048F000CE0180960E941DE5E0E2F0E0EC0FFD1F86
:10490000E60DF71D1082FE01B0968191882339F0E3
:104910009091C00095FFFCCF8093C600F6CF8091A8
:10492000C00085FFFCCF2092C600F201608171813A
:104930006115710519F06C5F7F4F02C060E070E097
:1049400021E0AE01405E5F4FCE0105960E949B7153
:1049500081112BC0ECEBF2E08491882341F090911F
:10496000C00095FFFCCF8093C6003196F5CFFE01C5
:10497000B0968191882339F09091C00095FFFCCFCB
:104980008093C600F6CFEAEBF2E08491882341F0F1
:104990009091C00095FFFCCF8093C6003196F5CF73
:1049A0008091C00085FFFCCFF9C0F201B182A082E6
:1049B0007401FFEFEF1AFF0A85CFC801805B9F4F9C
:1049C000F201918380837601C80182539E4F4C018E
:1049D000F20160817181332009F4A8C0611571056D
:1049E00019F06C5F7F4F02C060E070E021E0A7012A
:1049F000C4010E949B71882309F46EC0F40181896F
:104A00009289A389B489F801E558FD4F8083918389
:104A1000A283B383ECEAF2E08491D801A558BD4F9C
:104A2000882349F09091C00095FFFCCF8093C60089
:104A300031968491F5CFF7018191882339F09091D7
:104A4000C00095FFFCCF8093C600F6CFE4EAF2E009
:104A50008491882341F09091C00095FFFCCF809312
:104A6000C6003196F5CF4D915D916D917C912AE014
:104A700030E086E095E00E946D2E8091C00085FFB9
:104A8000FCCF8AE08093C600F801ED57FD4F1082FD
:104A9000118212821382E6E9F2E08491882341F0C8
:104AA0009091C00095FFFCCF8093C6003196F5CF62
:104AB0008091C00085FFFCCF8AE08093C600A701EB
:104AC00060E070E0C80139DDF8018289882309F4CB
:104AD0008BC0C801429689C0E2E8F2E08491882345
:104AE00041F09091C00095FFFCCF8093C6003196B5
:104AF000F5CFF7018191882339F09091C00095FF9F
:104B0000FCCF8093C600F6CFE0E8F2E084918823E2
:104B100041F09091C00095FFFCCF8093C600319684
:104B2000F5CF8091C00085FFFCCF38C061157105BD
:104B300019F06C5F7F4F02C060E070E026E5A701CE
:104B4000C4010E949B7181112DC0ECE6F2E08491BA
:104B5000882341F09091C00095FFFCCF8093C60060
:104B60003196F5CFF7018191882339F09091C000FB
:104B700095FFFCCF8093C600F6CFEAE6F2E0849181
:104B8000882341F09091C00095FFFCCF8093C60030
:104B90003196F5CF8091C00085FFFCCF8AE08093ED
:104BA000C60025C081E0F8018083E8E5F2E0849149
:104BB000882341F09091C00095FFFCCF8093C60000
:104BC0003196F5CFF6018191882339F09091C0009C
:104BD00095FFFCCF8093C600F6CF8091C00085FF83
:104BE000FCCF8AE08093C600C7010E9437A6C501AA
:104BF0000E94EB1BAC960FB6F894DEBF0FBECDBF84
:104C0000DF91CF911F910F91FF90EF90DF90CF90A8
:104C1000BF90AF909F908F907F906F905F904F90DC
:104C20003F902F90089521E0FC01218340E0DFCCEC
:104C3000CF92DF92EF92FF920F931F93CF93DF9368
:104C4000CDB7DEB76F970FB6F894DEBF0FBECDBFFE
:104C50008C016C012EE4C20ED11C805B9F4FF601CB
:104C600091838083E65CFD4F21E030E03183208337
:104C70007801F6E7EF1AFDEFFF0AF70111821082C3
:104C800040E050E0BA0104960E94C16EF6018081B6
:104C900091812BE1FC013496DE01159601900D9275
:104CA0002A95E1F7FC01828193819C838B8388E6BE
:104CB00094E09A83898320E030E0AE014F5F5F4F3C
:104CC0006FE774E0C8010E94741CCE0101960E9437
:104CD000EB1BF701808191816F960FB6F894DEBFD0
:104CE0000FBECDBFDF91CF911F910F91FF90EF903D
:104CF000DF90CF900895AF92BF92CF92DF92EF9264
:104D0000FF920F931F93CF93DF93CDB7DEB76F97CB
:104D10000FB6F894DEBF0FBECDBF8C017B01CE0174
:104D200001960E94E11BF801E95AFF4F808168015A
:104D3000811104C02FE2C20ED11C03C080E5C80E51
:104D4000D11C21E0A701B6016C5F7F4FCE01059613
:104D50000E949B7181112DC0EEE0FCE084918823BC
:104D600041F09091C00095FFFCCF8093C600319632
:104D7000F5CFE6EBF1E08491882341F09091C000FB
:104D800095FFFCCF8093C6003196F5CFF701819156
:104D9000882339F09091C00095FFFCCF8093C60026
:104DA000F6CF8091C00085FFFCCF8AE08093C600DB
:104DB00036C0F801EB55FE4F808191818A30910514
:104DC00030F59C012F5F3F4F318320832FE1289FD7
:104DD0007001299FF00C11242FE6E20EF11CE00E69
:104DE000F11E5C01B701C7014F960E944E1E81E083
:104DF000A81AB1082FE1E21AF1088FEFA816B80639
:104E000089F7B601C80181599F4F0E944E1EBE010D
:104E10006F5F7F4FC801805B9F4F0E944E1ECE0187
:104E200001960E94EB1B6F960FB6F894DEBF0FBE83
:104E3000CDBFDF91CF911F910F91FF90EF90DF9049
:104E4000CF90BF90AF900895EF92FF920F931F9372
:104E5000CF93DF93EC01CB55DE4F288139812115AB
:104E60003105F9F021503109398328838C0101592A
:104E70001F4FB801805B9F4F0E944E1EC80100E08B
:104E800010E07C012FE1E20EF11C2881398102172C
:104E9000130738F40F5F1F4FB7010E944E1EC70162
:104EA000F0CFDF91CF911F910F91FF90EF90089578
:104EB000EF92FF920F931F93CF93DF93EC010E9429
:104EC000F8808E0107511E4FF80180819E01225308
:104ED0003E4F79018823A1F1C9010E94A46FF80116
:104EE000808181508083BE01FDE88F9F600D711D20
:104EF000112462517E4F21E041E0CE0178DBF801C0
:104F00008081FE0124E0829FE00DF11D1124E65115
:104F1000FE4F4081518162817381FE01ED57FD4F4B
:104F20004083518362837383C7010E94C16ECE01A7
:104F3000DF91CF911F910F91FF90EF900C94281F5C
:104F4000C9010E94A46F1A828AEA91E00E94D931B5
:104F50008091060F8823F9F01092060FC091670721
:104F6000D0E0CC0FDD1FC45BDD4E688179818827DE
:104F700077FD8095982F0E9439DE2091490230916B
:104F80004A0240914B0250914C020E949ADF18163F
:104F900014F419821882DF91CF911F910F91FF9025
:104FA000EF900895AF92BF92CF92DF92EF92FF926F
:104FB0000F931F93CF93DF93CDB7DEB7E0970FB674
:104FC000F894DEBF0FBECDBF80E1E0EAF2E0DE0183
:104FD000919601900D928A95E1F780E1E0EBF2E085
:104FE000DE01519601900D928A95E1F780E1E0ECA7
:104FF000F2E0DE01119601900D928A95E1F76E01C3
:1050000081E2C80ED11C3BE6E32E3FE0F32E8E0179
:105010000F5E1F4F6BE77FE0AE014F5F5F4FEBE529
:10502000AE2EEFE0BE2E20E030E0F60181919191AE
:10503000A191B1916F01F70181939193A193B193E4
:105040007F01F80181919191A191B1918F01FB01B3
:1050500081939193A193B193BF01FA0181919191B1
:10506000A191B191AF01F50181939193A193B19376
:105070005F012F5F3F4F24303105B9F60E94F06881
:1050800080E090E0AAEFB3E48093530F9093540F25
:10509000A093550FB093560F80E090E8ABE3B5E4D2
:1050A00080934F0F9093500FA093510FB093520FD6
:1050B00080934B0F90934C0FA0934D0FB0934E0FD6
:1050C0001092570F1092580F1092590F10925A0FBA
:1050D00080E29EE4A0E0B0E080938B0F90938C0F71
:1050E000A0938D0FB0938E0F10923B0F10923C0F38
:1050F00010923D0F10923E0F80E090E0A0E0B1E4EE
:105100008093470F9093480FA093490FB0934A0F95
:105110008DEC9CECACECBEE38093430F9093440F7A
:10512000A093450FB093460F80E090E0A0E2B1E479
:1051300080933F0F9093400FA093410FB093420F85
:1051400010928307109284071092850710928607A9
:1051500010927F07109280071092810710928207A9
:1051600010927B0710927C0710927D0710927E07A9
:1051700084EB90E09093D5148093D41482E390E074
:105180009093D3148093D2141092D1141092D0140F
:1051900086EE90E09093CF148093CE1485E590E056
:1051A0009093CD148093CC141092CB141092CA1407
:1051B00080E290E09093C8128093C71280E090E064
:1051C000A0ECB0E48093690290936A02A0936B0212
:1051D000B0936C026AE979E989E99EE30E944D90F7
:1051E00060936502709366028093670290936802F1
:1051F00060E070E08AEF92E40E945990609361024F
:1052000070936202809363029093640280E090E066
:10521000A0E8BFE380935D0290935E02A0935F02DB
:10522000B09360020E9489851092970780E090E019
:10523000A0E4B0E48093210290932202A093230281
:10524000B09324020E94F64FEEE0FCE084918823A4
:1052500041F09091C00095FFFCCF8093C60031963D
:10526000F5CFE3EBF5E08491882341F09091C00005
:1052700095FFFCCF8093C6003196F5CF8091C0009A
:1052800085FFFCCF8AE08093C600E0960FB6F894C5
:10529000DEBF0FBECDBFDF91CF911F910F91FF9069
:1052A000EF90DF90CF90BF90AF9008951F93CF9372
:1052B000DF93182FCEE0DCE0FE018491882341F0DB
:1052C0009091C00095FFFCCF8093C6003196F5CF3A
:1052D000112369F140916B0F50916C0F60916D0F2C
:1052E00070916E0F8BE995E072D740916F0F5091DE
:1052F000700F6091710F7091720F88E995E067D718
:105300004091730F5091740F6091750F7091760FEB
:1053100085E995E05CD74091770F5091780F6091C7
:10532000790F70917A0F82E995E051D724C0E3EAB2
:10533000F5E08491882341F09091C00095FFFCCF67
:105340008093C6003196F5CF8091C00085FFFCCFD9
:105350008AE08093C600FE018491EEE0FCE08823A1
:1053600009F4B8CF9091C00095FFFCCF8093C600A0
:1053700031968491F4CF8091C00085FFFCCF8AE004
:105380008093C600FE018491EEE0FCE0882349F0A2
:105390009091C00095FFFCCF8093C6003196849118
:1053A000F5CF112369F140917B0F50917C0F6091F3
:1053B0007D0F70917E0F8FE695E009D740917F0FAA
:1053C0005091800F6091810F7091820F8CE695E073
:1053D000FED64091830F5091840F6091850F70919C
:1053E000860F89E695E0F3D64091870F5091880F9C
:1053F0006091890F70918A0F86E695E0E8D624C007
:10540000E8E7F5E08491882341F09091C00095FF92
:10541000FCCF8093C6003196F5CF8091C00085FF08
:10542000FCCF8AE08093C600FE018491EEE0FCE0B0
:10543000882309F4B8CF9091C00095FFFCCF8093EA
:10544000C60031968491F4CF8091C00085FFFCCFD7
:105450008AE08093C600FE018491EEE0FCE08823A0
:1054600049F09091C00095FFFCCF8093C600319623
:105470008491F5CF112369F140915B0F50915C0F3E
:1054800060915D0F70915E0F8FE395E0B1D6409112
:105490005F0F5091600F6091610F7091620F8CE30C
:1054A00095E0A6D64091630F5091640F6091650F0F
:1054B0007091660F89E395E09BD64091670F5091FC
:1054C000680F6091690F70916A0F86E395E090D63E
:1054D00024C0E8E4F5E08491882341F09091C00075
:1054E00095FFFCCF8093C6003196F5CF8091C00028
:1054F00085FFFCCF8AE08093C600FE018491EEE038
:10550000FCE0882309F4B8CF9091C00095FFFCCF50
:105510008093C60031968491F4CF8091C00085FFBE
:10552000FCCF8AE08093C600FE018491EEE0FCE0AF
:10553000882349F09091C00095FFFCCF8093C6006E
:1055400031968491F5CF112311F14091530F509171
:10555000540F6091550F7091560F8BEF94E037D632
:1055600040914F0F5091500F6091510F7091520F19
:1055700088EF94E02CD640914B0F50914C0F6091E6
:105580004D0F70914E0F85EF94E021D624C0E4E0DA
:10559000F5E08491882341F09091C00095FFFCCF05
:1055A0008093C6003196F5CF8091C00085FFFCCF77
:1055B0008AE08093C600FE018491EEE0FCE088233F
:1055C00009F4C3CF9091C00095FFFCCF8093C60033
:1055D00031968491F4CF8091C00085FFFCCF8AE0A2
:1055E0008093C600FE018491EEE0FCE0882349F040
:1055F0009091C00095FFFCCF8093C60031968491B6
:10560000F5CF112309F443C04091570F5091580F23
:105610006091590F70915A0F89E394E0D8D5409169
:105620003B0F50913C0F60913D0F70913E0F86E310
:1056300094E0CDD540918B0F50918C0F60918D0FE0
:1056400070918E0F83E394E0D3D54091470F509132
:10565000480F6091490F70914A0F80E394E0B7D5ED
:105660004091430F5091440F6091450F7091460F48
:105670008DE294E0ACD540913F0F5091400F609186
:10568000410F7091420F8AE294E0A1D524C0E2E478
:10569000F4E08491882341F09091C00095FFFCCF05
:1056A0008093C6003196F5CF8091C00085FFFCCF76
:1056B0008AE08093C600FE018491EEE0FCE088233E
:1056C00009F4A2CF9091C00095FFFCCF8093C60053
:1056D00031968491F4CF8091C00085FFFCCF8AE0A1
:1056E0008093C600FE018491EEE0FCE0882349F03F
:1056F0009091C00095FFFCCF8093C60031968491B5
:10570000F5CF112311F140917B0750917C076091F7
:105710007D0770917E078FE094E059D540917F0717
:105720005091800760918107709182078CE094E02E
:105730004ED5409183075091840760918507709101
:10574000860789E094E043D524C0E8E1F4E0849141
:10575000882341F09091C00095FFFCCF8093C60054
:105760003196F5CF8091C00085FFFCCF8AE0809311
:10577000C600FE018491EEE0FCE0882309F4C3CF6B
:105780009091C00095FFFCCF8093C6003196849124
:10579000F4CF8091C00085FFFCCF8AE08093C600E3
:1057A000FE018491EEE0FCE0882349F09091C00076
:1057B00095FFFCCF8093C60031968491F5CF1123DD
:1057C00051F14091690250916A0260916B027091AF
:1057D0006C0281EF93E0FBD46091650270916602E8
:1057E00080916702909168020E945390AB01BC01C6
:1057F0008EEE93E0ECD46091610270916202809130
:105800006302909164020E945F90AB01BC018BEE39
:1058100093E0DDD424C0EBEFF3E08491882341F0E2
:105820009091C00095FFFCCF8093C6003196F5CFD4
:105830008091C00085FFFCCF8AE08093C600FE0106
:105840008491EEE0FCE0882309F4BBCF9091C00086
:1058500095FFFCCF8093C60031968491F4CF809160
:10586000C00085FFFCCF8AE08093C600FE018491D2
:10587000EEE0FCE0882349F09091C00095FFFCCF5A
:105880008093C60031968491F5CF80919707882345
:1058900009F436C0112361F0409121025091220297
:1058A00060912302709124028EEC93E090D423C087
:1058B000E8EDF3E08491882341F09091C00095FFDA
:1058C000FCCF8093C6003196F5CF8091C00085FF54
:1058D000FCCF8AE08093C600FE018491EEE0FCE0FC
:1058E0008823D1F29091C00095FFFCCF8093C60031
:1058F00031968491F5CF8091C00085FFFCCF13C015
:10590000111114C0E2EBF3E08491882341F09091EF
:10591000C00095FFFCCF8093C6003196F5CF8091F3
:10592000C00085FFFCCF8AE08093C600FE01849111
:10593000EEE0FCE0882349F09091C00095FFFCCF99
:105940008093C60031968491F5CF112319F0E4EFCE
:10595000F2E029C0EDE9F3E08491882341F09091D1
:10596000C00095FFFCCF8093C6003196F5CF8091A3
:10597000C00085FFFCCF8AE08093C600FE01C49181
:10598000EEE0FCE0CC2319F38091C00085FFFCCF52
:10599000C093C6003196C491F5CF9091C00095FF99
:1059A000FCCF8093C60081918111F7CF4AE050E08F
:1059B00063E573E086E095E064D14091680750911B
:1059C000690760916A0770916B0770588AE993E0E4
:1059D000FED38091C00085FFFCCF8AE08093C60093
:1059E000DF91CF911F9108951F920F920FB60F92E2
:1059F00011240BB60F922F933F934F935F936F93A6
:105A00008F939F93EF93FF936091C600209187053A
:105A100030918805C90101968F77992740918905B2
:105A200050918A058417950741F0F901E95FFA4F13
:105A300060839093880580938705FF91EF919F91F4
:105A40008F916F915F914F913F912F910F900BBE6E
:105A50000F900FBE0F901F9018959A01AB01211562
:105A600081EE38074105510549F182E08093C0007D
:105A700060E079E08DE390E00E948AE121503109F5
:105A800041095109CA01B90122E030E040E050E08B
:105A90000E948AE13093C5002093C4008091C10028
:105AA00080618093C1008091C10088608093C100B3
:105AB0008091C10080688093C10008951092C00059
:105AC00020E130E0E7CF2091890530918A0580916F
:105AD0008705909188058217930771F0F901E95FB6
