:100000000C944F1C0C94801C0C94801C0C94801C31
:100010000C94801C0C94801C0C94801C0C94801CF0
:100020000C94801C0C94801C0C94801C0C94801CE0
:100030000C94801C0C94C4ED0C94801C0C94801CBB
:100040000C94801C0C9447870C94801C0C94801C8E
:100050000C94801C0C94801C0C949E9C0C949EE729
:100060000C94801C0C94A2310C94801C0C94801C69
:100070000C94801C0C94801C0C94801C0C94801C90
:100080000C94801C0C94801C0C94801C0C94801C80
:100090000C94801C0C94801C0C94801C0C9483E0A9
:1000A0000C94801C0C94801C0C94801C0C94801C60
:1000B0000C94801C0C94801C0C94801C0C94801C50
:1000C0000C94801C0C94801C0C94801C0C94801C40
:1000D0000C94801C0C94801C0C94801C0C94801C30
:1000E0000C94801C7E577E5789578957895794579F
:1000F00094579457A9579F579F579F57F89C079D10
:10010000269D359D509D5F9D7A9D7F9D829D879DFB
:100110008A9D8F9D999DC2E8C7E8CCE8D6E8E0E8C3
:1001200059E9EAE8F2E8FAE804E90EE918E927E90A
:1001300031E959E93BE945E94FE97BE97EE96DE9B8
:1001400071E977E9B5E982E986E98CE990E994E912
:100150009AE99EE9A2E9B5E9A8E9ACE9B0E9084A5B
:10016000D73B3BCE016E84BCBFFDC12F3D6C7431CB
:100170009ABD56833DDA3D00C77F11BED9E4BB4C22
:100180003E916BAAAABE000000803F05A84CCDB2EC
:10019000D44EB93836A9020C50B9918688083CA6CD
:1001A000AAAA2ABE000000803F004D383420582003
:1001B00059205A20450043616E6E6F7420656E743D
:1001C0006572207375626469723A20004D323400A2
:1001D0004D3233202573006175746F25692E6700D9
:1001E0006572726F722077726974696E6720746FBE
:1001F0002066696C65004E6F7420534420707269EC
:100200006E74696E67002F005344207072696E74BB
:10021000696E67206279746520002E0044656C6504
:1002200074696F6E206661696C65642C2046696C28
:10023000653A200046696C652064656C6574656488
:100240003A002E006F70656E206661696C65642CE3
:100250002046696C653A200057726974696E6720A0
:10026000746F2066696C653A20002E006F70656EB1
:10027000206661696C65642C2046696C653A2000D3
:100280002E006F70656E206661696C65642C204677
:10029000696C653A200046696C652073656C65631E
:1002A000746564002053697A653A200046696C657C
:1002B000206F70656E65643A20002E006F70656E69
:1002C000206661696C65642C2046696C653A200083
:1002D0004E6F772066726573682066696C653A2098
:1002E000004E6F7720646F696E672066696C653AAF
:1002F00020002220706F73002220706172656E747E
:100300003A2200535542524F5554494E45204341DD
:100310004C4C207461726765743A2200747279697A
:100320006E6720746F2063616C6C207375622D673B
:10033000636F64652066696C6573207769746820F3
:10034000746F6F206D616E79206C6576656C732EAD
:10035000204D4158206C6576656C2069733A0053D6
:10036000442063617264206F6B006F70656E526F22
:100370006F74206661696C656400766F6C756D657D
:100380002E696E6974206661696C6564005344204F
:10039000696E6974206661696C00205A005A2D509C
:1003A000726F6265204F666673657420286D6D29D3
:1003B0003A0046696C616D656E742073657474698A
:1003C0006E67733A2044697361626C656400202033
:1003D000204D32303020440046696C616D656E748A
:1003E0002073657474696E67733A00204400204975
:1003F000002020204D3330312050005049442073DC
:10040000657474696E67733A00205A0020590020A1
:10041000204D323036205800486F6D65206F66667B
:1004200073657420286D6D293A00204500205A001C
:1004300020580020420020540020204D323035202A
:100440005300416476616E63656420766172696110
:10045000626C65733A20533D4D696E206665656434
:100460007261746520286D6D2F73292C20543D4DC9
:10047000696E2074726176656C2066656564726170
:10048000746520286D6D2F73292C20423D6D696E97
:10049000696D756D207365676D656E742074696D27
:1004A0006520286D73292C20583D6D6178696D7524
:1004B0006D205859206A65726B20286D6D2F732945
:1004C0002C20205A3D6D6178696D756D205A206A27
:1004D00065726B20286D6D2F73292C2020453D6D92
:1004E0006178696D756D2045206A65726B20286D95
:1004F0006D2F73290020540020520020204D3230EF
:1005000034205000416363656C65726174696F6E7D
:10051000733A20503D7072696E74696E672C205278
:100520003D7265747261637420616E6420543D7421
:10053000726176656C00204500205A002059002029
:10054000204D3230312058004D6178696D756D2035
:10055000416363656C65726174696F6E20286D6DAF
:100560002F7332293A00204500205A0020590020DC
:10057000204D3230332058004D6178696D756D2003
:1005800066656564726174657320286D6D2F7329CB
:100590003A00204500205A0020590020204D3932D1
:1005A00020580053746570732070657220756E69F1
:1005B000743A0048617264636F64656420446566E0
:1005C00061756C742053657474696E6773204C6F29
:1005D0006164656400206279746573290020737416
:1005E0006F7265642073657474696E6773207265D9
:1005F0007472696576656420280020627974657379
:10060000290053657474696E67732053746F726543
:10061000642028004572726F722077726974696E67
:100620006720746F20454550524F4D210053544F61
:10063000505045442E20005072696E7465722073CC
:10064000746F707065642064756520746F206572C6
:10065000726F72732E204669782074686520657207
:10066000726F7220616E6420757365204D3939395F
:1006700020746F20726573746172742E2028546523
:100680006D7065726174757265206973207265732F
:1006900065742E20536574206974206166746572D8
:1006A0002072657374617274696E6729004B494CDE
:1006B0004C45442E20005072696E7465722068614A
:1006C0006C7465642E206B696C6C28292063616CE6
:1006D0006C656421006F6B00526573656E643A202F
:1006E000005A204F6666736574203A20007A5F6D69
:1006F00061783A20007A5F6D696E3A20005A204F87
:100700006666736574005A204F6666736574206F61
:100710006B006C636420636F6E7472617374207617
:10072000616C75653A200053657474696E67205476
:10073000726176656C20416363656C657261746992
:100740006F6E3A200053657474696E672052657449
:100750007261637420416363656C65726174696F73
:100760006E3A200053657474696E67205072696E2A
:1007700074696E6720416363656C65726174696F4B
:100780006E3A200053657474696E67205072696E0A
:1007900074696E6720616E642054726176656C6C5A
:1007A000696E6720416363656C65726174696F6E21
:1007B0003A20007A5F6D61783A20007A5F6D696E49
:1007C0003A2000795F6D61783A2000795F6D696E3B
:1007D0003A2000785F6D61783A2000785F6D696E2D
:1007E0003A2000205A3A0020593A0020436F756E93
:1007F0007420583A200020453A00205A3A002059E7
:100800003A00583A004649524D574152455F4E41D1
:100810004D453A4D61726C696E2056313B205370E4
:1008200072696E7465722F6772626C206D61736895
:10083000757020666F722067656E36204649524D8E
:10084000574152455F55524C3A68747470733A2F51
:100850002F6769746875622E636F6D2F4D61726CBE
:10086000696E4669726D776172652F4D61726C6950
:100870006E2050524F544F434F4C5F564552534990
:100880004F4E3A312E30204D414348494E455F543A
:100890005950453A54617A2045585452554445526E
:1008A0005F434F554E543A3120555549443A303004
:1008B0003030303030302D303030302D303030303E
:1008C0002D303030302D303030303030303030302E
:1008D00030300A0054617A204F66662E0054617AE7
:1008E0002072656164792E0042656420646F6E65D4
:1008F0002E0020423A0020453A00543A00426564F6
:100900002048656174696E672E0048656174696E80
:100910006720646F6E652E0020573A0020453A002C
:10092000543A0048656174696E672E2E2E0020428D
:10093000403A0020403A00202F003A002054002086
:100940002F0020423A00202F006F6B20543A0025E0
:1009500069206D696E2C2025692073656300456EE2
:10096000642066696C65206C697374004265676910
:100970006E2066696C65206C697374004E6F206D23
:100980006F76652E0054617A2072656164792E005D
:10099000526573756D696E67207072696E74005769
:1009A00061697420666F7220757365722E2E2E0039
:1009B000473238004D65736820646F6E652E0A00FB
:1009C0004D6573682070726F62696E67206E6F7418
:1009D00020737461727465642E0A004732392053A3
:1009E0003200473238004D65736820626564206CC0
:1009F0006576656C696E67206E6F742061637469DB
:100A000076652E0A002020000A4D656173757265B7
:100A10006420706F696E74733A0A000A5A20736515
:100A200061726368206865696768743A20002C0009
:100A30004E756D20582C593A200053206F75742044
:100A40006F662072616E67652028302D32292E0A6C
:100A500000536C6565702E2E2E002200556E6B6E55
:100A60006F776E20636F6D6D616E643A2022002592
:100A70006920686F757273202569206D696E7574C1
:100A8000657300446F6E65207072696E74696E677D
:100A90002066696C650053544F505045442E200029
:100AA0005072696E7465722073746F707065642023
:100AB00064756520746F206572726F72732E2046A4
:100AC000697820746865206572726F7220616E6447
:100AD00020757365204D39393920746F2072657324
:100AE000746172742E202854656D7065726174751E
:100AF00072652069732072657365742E2053657466
:100B00002069742061667465722072657374617205
:100B100074696E6729004E6F204C696E65204E75B2
:100B20006D626572207769746820636865636B73B2
:100B3000756D2C204C617374204C696E653A2000F1
:100B40004E6F20436865636B73756D2077697468B9
:100B5000206C696E65206E756D6265722C204C612B
:100B60007374204C696E653A2000636865636B732B
:100B7000756D206D69736D617463682C204C6173B1
:100B800074204C696E653A20004C696E65204E7584
:100B90006D626572206973206E6F74204C6173748E
:100BA000204C696E65204E756D6265722B312C206C
:100BB0004C617374204C696E653A20004D313130C0
:100BC00000446F6E6520736176696E672066696C9C
:100BD000652E006F6B004D3239002020506C616E25
:100BE0006E657242756666657242797465733A2005
:100BF000002046726565204D656D6F72793A200060
:100C00004A756C203233203230313500436F6D70BD
:100C1000696C65643A2000286E6F6E652C206465EF
:100C20006661756C7420636F6E6669672900207C4D
:100C300020417574686F723A20004A756C20323317
:100C400020323031352031373A35373A32370020CB
:100C50004C61737420557064617465643A2000318E
:100C60002E302E32004D61726C696E0020536F661B
:100C700074776172652052657365740020576174E2
:100C80006368646F67205265736574002042726FF9
:100C9000776E206F757420526573657400204578F7
:100CA0007465726E616C20526573657400506F7765
:100CB00065725570007374617274002200656E7104
:100CC0007565696E67202200FFFFFF00004040004D
:100CD00000404000004040000095430080894300F0
:100CE000007A430000000000000000000000000047
:100CF0000095430080894300007A43000000000013
:100D0000000000000000006563686F3A00457272E1
:100D10006F723A0020746F6F206C6F6E6720657879
:100D200074727573696F6E2070726576656E746526
:100D3000640020636F6C6420657874727573696FEA
:100D40006E2070726576656E746564007C3C3E5EF4
:100D50002B3D3F2F5B5D3B2C2A225C0045313A2026
:100D60000045303A20005A3A2000593A2000583ABB
:100D700020004D53312C4D53322050696E730A00C0
:100D80004D383420582059205A204500656E647330
:100D9000746F7073206869743A205A00205A3A00C0
:100DA000656E6473746F7073206869743A205900BB
:100DB00020593A00656E6473746F707320686974AB
:100DC0003A20580020583A00656E6473746F70734F
:100DD000206869743A200024F4D43050C38E20C2B5
:100DE000A24017828B7011127A910D816CD90AA8DA
:100DF00061E108C7586607615143061E4B5D05C196
:100E000045A7041A411104093D9803713931034083
:100E100036DB0265339102D4305402802E1D02630A
:100E20002CEE01752AC501B028A001102781018F81
:100E30002564012B244B01E0223401AC211F018DDC
:100E4000200D01801FFC00841EED00971DDF00B8FF
:100E50001CD200E61BC600201BBC00641AB200B204
:100E600019A8000A19A0006A189900D1179100402A
:100E7000178B00B516840031167E00B31579003A41
:100E8000157300C7146F0058146A00EE13660088CB
:100E900013630025135E00C7125B006C1257001528
:100EA000125400C111510070114F0021114B00D696
:100EB0001049008D1047004610440002104200C047
:100EC0000F4000800F3E00420F3C00060F3B00CB5E
:100ED0000E3800930E37005C0E3500270E3400F3F9
:100EE0000D3200C10D3100900D3000600D2E00322A
:100EF0000D2D00050D2C00D90C2B00AE0C29008502
:100F00000C29005C0C2700350C27000E0C2600E88D
:100F10000B2400C40B2400A00B23007D0B23005ADC
:100F20000B2100390B2100180B2000F80A1F00D9F3
:100F30000A1E00BB0A1E009D0A1D00800A1D0063D8
:100F40000A1C00470A1B002C0A1B00110A1A00F792
:100F5000091A00DD091900C4091900AB091900922A
:100F60000917007B091800630917004C09160036A1
:100F7000091600200916000A091500F5081500E0F9
:100F8000081400CC081400B8081400A40814009039
:100F90000813007D0812006B081300580812004661
:100FA0000812003408110023081100120811000172
:100FB000081100F0071000E0071000D0071000C073
:100FC000071000B0070F00A107100091070E008363
:100FD000070F0074070F0065070E0057070E004942
:100FE000070E003B070D002E070E0020070D001313
:100FF000070D0006070D00F9060C00ED060D00E0D8
:10100000060C00D4060C00C8060C00BC060C00B090
:10101000060C00A4060B0099060C008D060B00823E
:10102000060B0077060B006C060B0061060A0057E2
:10103000060B004C060A0042060A0038060A002E7B
:10104000060A0024060A001A060A0010060900070C
:10105000060A00FD050900F4050900EB050900E298
:10106000050900D9050900D0050900C7050900BE1A
:10107000050900B5050800AD050800A50509009C97
:10108000050800940508008C050800840508007C0C
:10109000050800740508006C050700650508005D7B
:1010A000050700560508004E0507004705070040E4
:1010B00005080038050700310507002A0507002349
:1010C0000507001C050600160507000F05070008A8
:1010D00005060002050700FB040600F5040700EE04
:1010E000040600E8040600E2040700DB040600D55D
:1010F000040600CF040600C9040600C3040600BDB0
:10110000040600B7040600B1040500AC040600A6FE
:10111000040600A00405009B040600950405009049
:101120000406008A04050085040500800406007A90
:1011300004050075040500700405006B04050066D5
:10114000040500610405005C040500570405005215
:101150000405004D04050048040500430405003E55
:101160000404003A04050035040500300404002C92
:1011700004050027040400230405001E0404001ACB
:1011800004040016040500110404000D0404000901
:101190000405000404040000040400FC030400F837
:1011A000030400F4030400F0030400EC030400E86B
:1011B000030400E4030400E0030400DC030400D89B
:1011C000030400D4030400D0030400CC030400C8CB
:1011D000030300C503030024F404D9201BC40C5CE2
:1011E0000E9804C4095F0265077101F405F900FB5C
:1011F00004B30048048700C1036900580355000385
:10120000034500BE023A008402310053022A00293D
:1012100002250004022000E4011C00C8011900AFEF
:10122000011700980114008401130071011000617E
:1012300001100051010E0043010D0036010B002B7F
:10124000010B0020010B00150109000C010900032E
:10125000010800FB000800F3000800EB000700E4B1
:10126000000600DE000600D8000600D2000600CC12
:10127000000500C7000500C2000500BD000400B95C
:10128000000400B5000400B1000400AD000400A992
:10129000000400A5000300A20003009F0004009BBF
:1012A00000030098000300950002009300030090E3
:1012B0000003008D0002008B0003008800020086FE
:1012C00000020084000300810002007F0002007D14
:1012D0000002007B00020079000200770001007626
:1012E0000002007400020072000100710002006F31
:1012F0000002006D0001006C0002006A000100693C
:101300000002006700010066000100650001006442
:101310000002006200010061000100600001005F46
:101320000002005D0001005C0001005B0001005A4A
:10133000000100590001005800010057000100564B
:10134000000100550001005400010053000000534B
:101350000001005200010051000100500001004F47
:101360000001004E0000004E0001004D0001004C45
:101370000001004B0000004B0001004A0001004941
:10138000000100480000004800010047000100463D
:101390000000004600010045000000450001004437
:1013A0000001004300000043000100420000004231
:1013B0000001004100000041000100400001003F29
:1013C0000000003F0001003E0000003E0001003D23
:1013D0000000003D0001003C0000003C0000003C1B
:1013E0000001003B0000003B0001003A0000003A11
:1013F0000001003900000039000100380000003809
:1014000000000038000100370000003700010036FE
:1014100000000036000000360001003500000035F5
:1014200000000035000100340000003400000034EA
:1014300000010033000000330000003300010032DF
:1014400000000032000000320001003100000031D5
:1014500000000031000100300000003000000030CA
:101460000001002F0000002F0000002F0000002FBF
:101470000001002E0000002E0000002E0001002DB3
:101480000000002D0000002D0000002D0001002CA8
:101490000000002C0000002C0000002C0001002B9C
:1014A0000000002B0000002B0000002B0001002A90
:1014B0000000002A0000002A0000002A0001002984
:1014C0000000002900000029000000290000002978
:1014D000000100280000002800000028000000286B
:1014E000000000280001002700000027000000275E
:1014F0000000002700000027000100260000002651
:101500000000002600000026000000260001002543
:101510000000002500000025000000250000002537
:101520000000002500010024000000240000002429
:10153000000000240000002400010023000000231C
:10154000000000230000002300000023000000230F
:101550000000002300010022000000220000002201
:1015600000000022000000220000002200010021F3
:1015700000000021000000210000002100000021E7
:1015800000000021000000210001002000000020D8
:1015900000000020000000200000002000000020CB
:1015A00000000020000000200001001F0000001FBC
:1015B0000000001F0000001F0000001F0000001FAF
:1015C0000000001F0001001E0000001E0000001EA1
:1015D0000000001E000000486561746564206265BB
:1015E00064207377697463686564206F66662E2073
:1015F0004D415854454D5020747269676765726556
:1016000064202121004572723A204D415854454DC5
:101610005020424544003A204578747275646572E2
:10162000207377697463686564206F66662E204D49
:10163000494E54454D502074726967676572656400
:101640002021004572723A204D494E54454D5000BC
:101650003A20457874727564657220737769746393
:10166000686564206F66662E204D415854454D5084
:101670002074726967676572656420212100457274
:10168000723A204D415854454D5000202D20496E4E
:1016900076616C6964206578747275646572206E19
:1016A000756D626572202100504944204175746F48
:1016B00074756E652066696E697368656421205073
:1016C000757420746865206C617374204B702C20D5
:1016D0004B6920616E64204B6420636F6E7374618C
:1016E0006E74732066726F6D2061626F766520691B
:1016F0006E746F20436F6E66696775726174696F8F
:101700006E2E6800504944204175746F74756E6583
:10171000206661696C6564212074696D656F7574FC
:101720000020403A006F6B20543A006F6B20423A21
:1017300000504944204175746F74756E6520666170
:10174000696C6564212054656D7065726174757291
:101750006520746F6F206869676800204B643A20C9
:1017600000204B693A2000204B703A200020436C47
:1017700061737369632050494420002054753A20F6
:1017800000204B753A2000206D61783A2000206DD2
:10179000696E3A200020643A200020626961733A41
:1017A00020001000AD0330016A0150022B017003CC
:1017B0000A019004F500B005E500D006D800F00756
:1017C000CE001009C500300ABE00500BB700700CE7
:1017D000B100900DAB00B00EA600D00FA200F0102B
:1017E0009D0010129900301395005014920070154E
:1017F0008E0090168B00B0178700D0188400F01967
:101800008100101B7E00301C7B00501D7900701E73
:101810007600901F7300B0207000D0216E00F0227F
:101820006B00102469003025660050266300702785
:10183000610090285E00B0295C00D02A5900F02B8E
:101840005600102D5400302E5100502F4E00703095
:101850004B0090314800B0324500D0334200F034A4
:101860003E0010363B0030373700503833007039B7
:101870002E00903A2900B03B2300D03C1B00F03DE5
:101880001100103F0100F03F0000436172642072BC
:10189000656D6F766564004361726420696E73657F
:1018A00072746564004D3330302053363539205022
:1018B0003230300A4D3330302053363938205032F0
:1018C000303000B02000B020002D2D3A2D2D0046E4
:1018D0006C6F77203100466C6F77203100466C6F5B
:1018E00077203000466C6F77203000466C6F7700B1
:1018F000466C6F770046616E2073706565640046C4
:10190000616E2073706565640042656400426564C1
:10191000004E6F7A7A6C652032004E6F7A7A6C6571
:101920002032004E6F7A7A6C65004E6F7A7A6C6561
:10193000005370656564005370656564004D6169AE
:101940006E005072656865617420504C412042659C
:1019500064005072656865617420504C4120416C90
:101960006C005072656865617420504C41203200F3
:101970005072656865617420504C4120310050728E
:1019800065706172650050726568656174204142DE
:10199000532042656400507265686561742041425D
:1019A0005320416C6C00507265686561742041423F
:1019B00053203200507265686561742041425320A3
:1019C00031005072657061726500580059005A000C
:1019D00045787472756465720045787472756465D3
:1019E00072004D6F7665205A004D6F766520590064
:1019F0004D6F76652058004D6F766520617869736C
:101A0000004D6F766520302E316D6D004D6F76651F
:101A100020316D6D004D6F76652031306D6D005059
:101A200072657061726500473238005A004732387B
:101A3000004C6576656C20626564004D6F766520AC
:101A400061786973004D383000537769746368209A
:101A5000706F776572206F6E004D38310053776973
:101A600074636820706F776572206F666600436FDD
:101A70006F6C646F776E00507265686561742041A9
:101A80004253005072656865617420504C410053A8
:101A9000657420686F6D65206F666673657473008A
:101AA000473238004175746F20686F6D65004D389E
:101AB000340044697361626C65207374657070658D
:101AC0007273004D61696E0053746F7265206D65AD
:101AD0006D6F72790042656400426564004E6F7AF2
:101AE0007A6C65004E6F7A7A6C650046616E207381
:101AF000706565640046616E2073706565640054AE
:101B0000656D70657261747572650053746F72658E
:101B1000206D656D6F7279004265640042656400F6
:101B20004E6F7A7A6C65004E6F7A7A6C650046610A
:101B30006E2073706565640046616E207370656524
:101B4000640054656D7065726174757265005072E1
:101B500065686561742041425320636F6E66005072
:101B600072656865617420504C4120636F6E660039
:101B70005049442D43005049442D43005049442DC1
:101B800044005049442D44005049442D49005049D7
:101B9000442D49005049442D50005049442D5000D7
:101BA00020FF20466163740020FF204661637400BB
:101BB00020FF204D61780020FF204D61780020FF3C
:101BC000204D696E0020FF204D696E004175746FD5
:101BD00074656D70004F6666004F6E200046616E42
:101BE0002073706565640046616E2073706565647E
:101BF0000042656400426564004E6F7A7A6C65004D
:101C00004E6F7A7A6C6500436F6E74726F6C00452C
:101C100073746570732F6D6D004573746570732FE9
:101C20006D6D005A73746570732F6D6D005A737407
:101C30006570732F6D6D005973746570732F6D6DC2
:101C4000005973746570732F6D6D005873746570EF
:101C5000732F6D6D005873746570732F6D6D004137
:101C60002D74726176656C00412D74726176656CBD
:101C700000412D7265747261637400412D72657448
:101C80007261637400416D6178206500416D617817
:101C9000206500416D6178207A00416D6178207A7D
:101CA00000416D6178207900416D617820790041B3
:101CB0006D6178207800416D61782078005654720B
:101CC0006176206D696E005654726176206D696E82
:101CD00000566D696E00566D696E00566D61782014
:101CE0006500566D6178206500566D6178207A0038
:101CF000566D6178207A00566D6178207900566DB6
:101D00006178207900566D6178207800566D617891
:101D100020780056652D6A65726B0056652D6A65E0
:101D2000726B00567A2D6A65726B00567A2D6A6561
:101D3000726B005678792D6A65726B005678792D32
:101D40006A65726B00416363656C00416363656C37
:101D500000436F6E74726F6C0046696C2E2044698C
:101D6000612E20310046696C2E204469612E20319D
:101D7000004520696E206D6DB3004F6666004F6EA2
:101D80002000436F6E74726F6C004C434420636F8D
:101D90006E747261737400526573746F726520663D
:101DA00061696C73616665004C6F6164206D656D7F
:101DB0006F72790053746F7265206D656D6F727903
:101DC000004C434420636F6E747261737400466903
:101DD0006C616D656E74004D6F74696F6E00546553
:101DE0006D7065726174757265004D61696E004D4C
:101DF0003234004D323320257300F92E2E004D6110
:101E0000696E004E6F20534420636172640050720B
:101E1000696E742066726F6D2053440053746F7046
:101E2000207072696E7400526573756D65207072F2
:101E3000696E74005061757365207072696E74000C
:101E4000436F6E74726F6C005072657061726500E2
:101E500054756E6500496E666F2073637265656EBA
:101E60000000060900FE070192032120FFFF08FE83
:101E700007FF00000006000001070706020080803F
:101E80008080800080030202060105A0A0050707EC
:101E90000600005050F850F85050050707060000A3
:101EA0002078A07028F020050707060000C0C810A1
:101EB000204098180507070600006090A040A890F1
:101EC00068020303060104C04080030707060100FF
:101ED00020408080804020030707060100804020CA
:101EE0002020408005050506000120A870A82005D7
:101EF00005050600012020F820200203030602FF4A
:101F0000C04080050101060003F80202020602003B
:101F1000C0C0050505060001081020408005070720
:101F2000060000708888888888700307070601000B
:101F300040C040404040E0050707060000708808A8
:101F4000708080F8050707060000F81020100808C8
:101F5000F005070706000010305090F81010050734
:101F600007060000F880F0080888700507070600DB
:101F700000708080F0888870050707060000F80868
:101F80001020202020050707060000708888708830
:101F900088700507070600007088887808087002B6
:101FA0000505060200C0C000C0C00206060602FF0A
:101FB000C0C000C040800407070600001020408019
:101FC000402010050303060002F800F80407070686
:101FD00001008040201020408005070706000070A7
:101FE0008808102000200507070600007088086890
:101FF000A8A870050707060000708888F8888888F8
:10200000050707060000F08888F08888F0050707B4
:102010000600007088808080887005070706000031
:10202000F08888888888F0050707060000F8808017
:10203000F08080F8050707060000F88080F08080B7
:1020400080050707060000708880B888887005073B
:1020500007060000888888F8888888010707060234
:10206000008080808080808005070706000038108F
:1020700010101090600507070600008890A0C0A00F
:102080009088050707060000808080808080F80522
:10209000070706000088D8A88888888805070706EB
:1020A00000008888C8A8988888050707060000707F
:1020B000888888888870050707060000F08888F0FF
:1020C00080808005070706000070888888A89068CF
:1020D000050707060000F08888F0A090880507072C
:1020E000060000788080700808F0050707060000E9
:1020F000F820202020202005070706000088888877
:1021000088888870050707060000888888888850B6
:10211000200507070600008888888888A8500507DA
:1021200007060000888850205088880507070600A9
:102130000088888850202020050707060000F8083E
:1021400010204080F8030707060100E080808080AF
:1021500080E0050505060001804020100803070700
:10216000060100E02020202020E0050303060004F3
:10217000205088050101060000F80202020602054F
:102180008040050505060000700878887805070777
:102190000600008080B0C88888F0050505060000AC
:1021A0007080808870050707060000080868988816
:1021B00088780505050600007088F8807005070717
:1021C0000600003048E0404040400506060600FF9B
:1021D0007088887808700507070600008080B0C8FE
:1021E0008888880107070602008000808080808040
:1021F0000308080601FF200020202020A04004073B
:1022000007060000808090A0C0A090030707060189
:1022100000C04040404040E0050505060000D0A851
:10222000A8A8A8050505060000B0C8888888050587
:102230000506000070888888700506060600FFF015
:102240008888F080800506060600FF788888780870
:1022500008050505060000B0C88080800505050654
:10226000000070807008F00407070600004040E09E
:1022700040404030050505060000888888986805BC
:102280000505060000888888502005050506000021
:102290008888A8A8500505050600008850205088A9
:1022A0000506060600FF888888780870050505067B
:1022B0000000F8102040F803070706010020404006
:1022C00080404020010707060200808080808080D7
:1022D000800307070601008040402040408005023F
:1022E00002060002689000000006000000000006E0
:1022F00000000000000600000000000600000000D2
:1023000000060000000000060000000000060000BB
:1023100000000006000000000006000000000006AB
:1023200000000000000600000000000600000000A1
:10233000000600000000000600000000000600008B
:10234000000000060000000000060000000000067B
:102350000000000000060000000000060000000071
:10236000000600000000000600000000000600005B
:10237000000000060000000000060000000000064B
:102380000000000000060000000000060000000041
:10239000000600000000000600000000000600002B
:1023A000000000060000000000060000000000061B
:1023B0000000010707060200800080808080800501
:1023C00007070600002070A8A0A8702005070706D0
:1023D0000000304040E04050A80505050600008898
:1023E00070507088050707060000885020F820F814
:1023F0002001070706020080808000808080050899
:10240000080600003048205050209060030101066B
:102410000107A0050707060000F888B8B8B888F8D3
:10242000050707060001700878887800F80505059B
:102430000600012850A05028050303060001F808F3
:10244000080202020602064080050707060000F89F
:1024500088A88898A8F8050101060006F804040475
:10246000060003609090600507070600002020F832
:10247000202000F804050506000360902040F003CA
:102480000505060003E020E020E002020206020645
:1024900040800508080600FF8888888898E88080C2
:1024A00005070706000078989878181818020202A5
:1024B000060202C0C00202020602FF4080030505B8
:1024C00006000340C04040E0050707060001708891
:1024D00088887000F8050505060001A0502850A066
:1024E0000507070600008890A858B80808050707E0
:1024F0000600008890B848982038050808060000B3
:10250000C040C048D838080805070706000020006A
:102510002040808870050808060000402000708870
:10252000F888880508080600001020007088F888E0
:10253000880508080600002050007088F888880583
:1025400008080600006890007088F8888805080868
:102550000600005000708888F88888050808060082
:10256000002050207088F88888050707060000388A
:1025700060A0B8E0A0B80508080600FF7088808059
:1025800088702060050808060000402000F880F0F0
:1025900080F8050808060000081000F880F080F8B0
:1025A000050808060000205000F880F080F80507B4
:1025B000070600005000F880F080F80308080601C4
:1025C00000804000E0404040E00308080601002091
:1025D0004000E0404040E003080806010040A00041
:1025E000E0404040E0030707060100A000E0404053
:1025F00040E0050707060000704848E848487005B5
:10260000080806000068900088C8A898880508088F
:102610000600004020708888888870050808060039
:10262000001020708888888870050808060000203F
:1026300050007088888870050808060000689000BF
:102640007088888870050808060000500070888827
:102650008888700505050600018850205088050807
:10266000080600FF1070A8A8A8A870400508080672
:1026700000004020888888888870050808060000C7
:102680001020888888888870050808060000205077
:10269000008888888870050808060000500088882F
:1026A00088888870050808060000102088502020BF
:1026B00020200509090600FFC040704848704040CE
:1026C000E00408080601FF609090A09090E080056B
:1026D000080806000040200070087888780508087F
:1026E00006000010200070087888780508080600A9
:1026F00000205000700878887805080806000068F7
:102700009000700878887805070706000050007070
:10271000087888780508080600002050207008789E
:102720008878050606060000D02878A0A85005067F
:10273000060600FF7080887020600508080600000B
:102740004020007088F880700508080600001020FE
:10275000007088F88070050808060000205000709E
:1027600088F8807005070706000050007088F88020
:102770007003080806010080400040C04040E003AC
:10278000080806010020400040C04040E00308085F
:1027900006010040A00040C04040E00307070601DA
:1027A00000A00040C04040E0050707060000A04030
:1027B000A010788870050808060000689000B0C86E
:1027C00088888805080806000040200070888888EE
:1027D00070050808060000102000708888887005C1
:1027E00008080600002050007088888870050808D6
:1027F000060000689000708888887005070706004A
:1028000000500070888888700505050600012000CA
:10281000F8002005080806000040F0C8888898786D
:1028200010050808060000C0F88888888888F80520
:1028300005050600012030F83020050808060000D4
:102840002070F820202020E00509090600FF2070F4
:10285000A8A8B8888870200509090600FFE080C094
:10286000B0A8283028280509090600FFF8A888889C
:10287000888888A8F8050A0A0600FE2050505050A3
:1028800088A8A88870000000000000000000000078
:10289000007FFFE0000000000000000000000000DA
:1028A0007000E00000000000000000000000006177
:1028B000F86000000000000000000000000041F887
:1028C0002000000000000000000000000040F02098
:1028D0000000000000000000000000004060200038
:1028E00000000000000000000000005801A07F80F0
:1028F000000000000000004104005C63A0FFC00075
:102900000000000000002082005EF7A0FFC0000071
:1029100000000000002082005EF7A0FFC000000061
:10292000000000004104005C63A07F800000000004
:102930000000008208005801A07F80000000000015
:102940000001041000406020FFC0000000000000F3
:102950000104100040F020FFC00000000000000053
:1029600082080041F820FFC0000000000000004184
:10297000040061F8603F000000000000000000005B
:10298000007000E01E0000000000000001FFFF805A
:102990007FFFE00C0000000000000001FFFF80004E
:1029A00000000000000000000000000000007FFFA9
:1029B000E00000000000000000000000007000E0E7
:1029C000000000000000000000000000630C600038
:1029D0000000000000000000000000470E20000082
:1029E000000000000000000000004F0F2000000069
:1029F0000000000000000000005F0FA000000000C9
:102A000000000000000000005E07A07F80000000C2
:102A100000000000410400406020FFC000000000F2
:102A200000000020820040F020FFC00000000000F5
:102A3000000020820040F020FFC0000000000000E5
:102A4000004104004060207F800000000000000082
:102A50008208005E07A07F800000000000000104E3
:102A600010005F0FA0FFC000000000000001041074
:102A7000004F0F20FFC0000000000000008208008F
:102A8000470E20FFC000000000000000410400636A
:102A90000C603F000000000000000000000070001B
:102AA000E01E0000000000000001FFFF807FFFE04B
:102AB0000C0000000000000001FFFF800000001F6C
:102AC000FFFFFFFFFFFF600000000001FF4000006C
:102AD000000000FF8000000000007F83CF00000C9A
:102AE000303F87FF80000C301F867980000C000F7C
:102AF0008C30C7838C30E78C30CFC7CC31F38C302F
:102B0000DCECEC33B98C30D86C6C33198C30D06C75
:102B10000C33198C30D86C0C33198C30DC6C0E3BB8
:102B2000198C30CF7C079F198C30C77C038F1940DC
:102B3000000000000002600000000000061FFFFF10
:102B4000FFFFFFF800091200FC0A01E803D720FF8D
:102B5000FD0EFD0BFD00000009000E010B0B09042A
:102B600000808080808080800000808004040409D0
:102B7000030790909090080A0A090000242424FF7B
:102B80002424FF242424070B0B0901FF107C9290BE
:102B900050381412927C10070A0A09010042A4A4BA
:102BA000481010244A4A84070A0A090100609090DC
:102BB0009060629488946201040409040780808014
:102BC00080030C0C0903FF204040808080808080BF
:102BD000404020030C0C0903FF80404020202020AF
:102BE0002020404080070707090103109254385401
:102BF0009210070707090101101010FE10101002B3
:102C000004040904FEC0C04080070101090104FE5C
:102C1000020202090400C0C0070A0A0901000204F6
:102C20000408101020404080070A0A0901003844B7
:102C30008282828282824438070A0A0901001030A7
:102C400050901010101010FE070A0A0901003844B5
:102C500082020408102040FE070A0A090100FE0251
:102C60000408180402028478070A0A090100040C07
:102C700014244484FE040404070A0A090100FE80A7
:102C80008080F80402028478070A0A0901003C40A7
:102C90008080B8C482824438070A0A090100FE0213
:102CA0000404080810101010070A0A09010038442B
:102CB0008244384482824438070A0A0901003844B1
:102CC0008282463A02020478020707090400C0C063
:102CD000000000C0C00209090904FEC0C0000000D5
:102CE000C0C040800509090902000810204080404A
:102CF000201008070404090102FE0000FE0509096E
:102D0000090200804020100810204080070A0A09AC
:102D1000010038448202040810100010070A0A0952
:102D2000010038449AAAAAAAAA9C403C070A0A09A8
:102D3000010010282828447C44828282070A0A095C
:102D40000100F8848284F884828284F8070A0A09E0
:102D500001003C42808080808080423C070A0A0952
:102D60000100F88482828282828284F8070A0A093A
:102D70000100FE808080F880808080FE070A0A09BA
:102D80000100FE808080F88080808080070A0A0928
:102D9000010038448280808E82824438070A0A0902
:102DA000010082828282FE8282828282050A0A0970
:102DB0000200F82020202020202020F8070A0A09FD
:102DC00001003E080808080808888870070A0A09F0
:102DD000010082848890A0D088848282070A0A0930
:102DE0000100808080808080808080FE070A0A0940
:102DF00001008282C6AA928282828282070A0A091E
:102E000001008282C2A2928A86828282070A0A090D
:102E100001007C82828282828282827C070A0A0985
:102E20000100F884828284F880808080080B0B097E
:102E300001FF384482828282828A443A01070A0A68
:102E4000090100F884828284F890888482070A0A43
:102E50000901007C8280807C020202827C070A0ACF
:102E6000090100FE101010101010101010070A0AAF
:102E700009010082828282828282824438070A0AA1
:102E800009010082828244444428282810070A0A43
:102E90000901008282828292929292AA44070A0ACF
:102EA00009010082824428101028448282070A0AFD
:102EB00009010082824428101010101010070A0A1D
:102EC000090100FE0204081020408080FE040C0C62
:102ED0000903FFF080808080808080808080F00700
:102EE0000A0A09010080404020101008040402046E
:102EF0000C0C0902FFF01010101010101010101020
:102F0000F0070404090106102844820801010900A1
:102F1000FFFF03030309030A804020070707090195
:102F2000007C02027E82867A070A0A0901008080FC
:102F300080BCC2828282C2BC0707070901007C8272
:102F4000808080827C070A0A0901000202027A86D8
:102F5000828282867A0707070901007C8282FE80CE
:102F6000827C070A0A0901001C22222020F8202066
:102F70002020070A0A0901FD7A84848478807C82F3
:102F8000827C070A0A090100808080BCC28282829A
:102F90008282050A0A090200600000E02020202049
:102FA00020F8050D0D0902FD180000380808080872
:102FB0000808888870070A0A0901008080808488D0
:102FC00090B0C88482050A0A090200E0202020206F
:102FD00020202020F8070707090100EC9292929226
:102FE0009282070707090100BCC28282828282079F
:102FF00007070901007C82828282827C070A0A0913
:1030000001FDB8C4828282C4B8808080070A0A09A0
:1030100001FD3A46828282463A0202020707070908
:1030200001009C6242404040400707070901007CC4
:1030300082807C02827C0709090901002020FC2093
:10304000202020221C070707090100828282828239
:10305000867A07070709010082824444282810075E
:1030600007070901008282929292AA440707070982
:10307000010082442810284482070A0A0901FD42FF
:10308000422424241818109060070707090100FE45
:103090000408102040FE060B0B0902001C20202013
:1030A00020C0202020201C010C0C0904FF808080FF
:1030B000808080808080808080060B0B090100E08A
:1030C000101010100C10101010E007030309010776
:1030D00062928CFFFFFFFFFFFFFFFFFFFFFFFFFF7D
:1030E000FFFFFFFFFFFFFFFFFFFFFFFFFFFFFFFFF0
:1030F000FFFFFFFF00000009000E010B0B09040099
:10310000808000008080808080808006080809011F
:103110000008789490A0A47840070A0A0901001CCE
:10312000222020F8202060A25C0706060901038205
:103130007C44447C82070A0A090100828244287C7C
:10314000107C101010010B0B0904FF808080808020
:10315000008080808080040B0B0902FF60908060FB
:103160009090906010906003020209030BA0A008E9
:1031700009090900013C4299A5A1A599423C05070E
:1031800007090103609070907800F80708080901AA
:10319000011224489090482412060404090102FCFC
:1031A000040404050101090204F8080909090001E1
:1031B0003C42B9A5BDA9A5423C060101090109FC93
:1031C00004040409030660909060070909090101DD
:1031D000101010FE10101000FE0406060901046015
:1031E00090106080F00406060901046090201090A1
:1031F0006003030309030A2040800709090901FE4F
:103200008282828282C6BA8080070A0A0901007E11
:103210008A8A8A7A0A0A0A0A0A020202090404C08D
:10322000C00403030902FD2090600306060901049F
:1032300040C0404040E005060609010470888870DF
:1032400000F8070808090101904824121224489048
:10325000070A0A09010040C0404042E60A121A0665
:10326000070A0A09010040C040404CF2020C101E3F
:10327000070A0A0901006090201092660A121A06D5
:10328000070A0A0901001000101020408082827C89
:10329000070E0E0901002010080010282828447C81
:1032A00044828282070E0E090100081020001028B7
:1032B0002828447C44828282070E0E0901001028CF
:1032C000440010282828447C44828282070D0D097E
:1032D000010034580010282828447C448282820748
:1032E0000D0D09010028280010282828447C44825C
:1032F0008282070E0E0901001028281010282828A5
:10330000447C44828282070A0A0901001E28282878
:103310004E784888888E070D0D0901FD3C4280805B
:1033200080808080423C082418070E0E090100208E
:10333000100800FE808080F880808080FE070E0EDE
:1033400009010008102000FE808080F880808080C5
:10335000FE070E0E09010010284400FE808080F850
:1033600080808080FE070D0D090100282800FE8066
:103370008080F880808080FE050E0E0902004020CB
:103380001000F82020202020202020F8050E0E0913
:10339000020010204000F82020202020202020F8CB
:1033A000050E0E09020020508800F8202020202061
:1033B000202020F8050D0D090200505000F82020B3
:1033C000202020202020F8070A0A09010078444222
:1033D00042F24242424478070D0D09010034580080
:1033E0008282C2A2928A86828282070E0E09010020
:1033F000201008007C82828282828282827C070E78
:103400000E090100081020007C8282828282828262
:10341000827C070E0E090100102844007C82828203
:1034200082828282827C070D0D0901003458007C63
:1034300082828282828282827C070D0D09010028AD
:1034400028007C82828282828282827C070707092E
:10345000010182442810284482070C0C0901FF0254
:103460007C868A8A9292A2A2C27C80070E0E0901F3
:103470000020100800828282828282828244380781
:103480000E0E090100081020008282828282828250
:10349000824438070E0E09010010284400828282FF
:1034A00082828282824438070D0D0901002828009B
:1034B00082828282828282824438070E0E09010053
:1034C0000810200082824428101010101010070AE3
:1034D0000A0901008080FC828282FC808080060ACA
:1034E0000A09010038444448D04844444458070B72
:1034F0000B090100201008007C02027E82867A07F8
:103500000B0B090100081020007C02027E82867AE3
:10351000070B0B090100102844007C02027E828602
:103520007A070A0A0901003458007C02027E82866A
:103530007A070A0A0901002828007C02027E828696
:103540007A070C0C09010010282810007C02027E6A
:1035500082867A0707070901006C12127E90926C2E
:10356000070A0A0901FD7C82808080827C10483035
:10357000070B0B090100201008007C8282FE80826C
:103580007C070B0B090100081020007C8282FE8062
:10359000827C070B0B090100102844007C8282FE0C
:1035A00080827C070A0A0901002828007C8282FEAA
:1035B00080827C050C0C0902008040200000E02085
:1035C00020202020F8050C0C0902001020400000EB
:1035D000E02020202020F8050C0C09020020508853
:1035E0000000E02020202020F8050B0B09020050ED
:1035F000500000E02020202020F8070B0B090100DC
:10360000483050083C448282824438070A0A090143
:1036100000345800BCC28282828282070B0B0901EF
:1036200000201008007C82828282827C070B0B09BA
:103630000100081020007C82828282827C070B0BB2
:10364000090100102844007C82828282827C070A61
:103650000A0901003458007C82828282827C070A37
:103660000A0901002828007C82828282827C070964
:103670000909010010381000FE0010381007090970
:103680000901FF027C8A8A92A2A27C80070B0B09A7
:103690000100402010008282828282867A070B0B12
:1036A000090100081020008282828282867A070B3C
:1036B0000B090100102844008282828282867A07E8
:1036C0000A0A0901002828008282828282867A07FB
:1036D0000E0E0901FD04081000424224242418188B
:1036E000109060070B0B0901FE8080B8C4828282B3
:1036F000C4B88080070D0D0901FD24240042422436
:103700002424181810906000000A0B02090C0D0EFA
:103710000807030401000000000000000000000092
:103720000000000000000000000000000000000099
:103730000000001211100000000000000000000056
:103740000000000000000000000000000000000079
:103750000000000000000000000000000001021056
:10376000202008081020401020408002010201089B
:10377000040201010204081020408080402010084B
:1037800004020180040201804020100804020108A4
:103790000402010102040810204080010204081004
:1037A0002040801008040880102040044080102031
:1037B00040048005050505070508080808020202FF
:1037C000020A0A08080404040401010101010101BC
:1037D000010303030303030303040707070C0C0C93
:1037E0000C0C0C0C0C02020202060606060606066B
:1037F000060B0B0B0B0B0B0B0B07070A0A0A0A0A2B
:103800000A0505050404040808000020002300261A
:103810000029002C002F00320000010000030106E7
:1038200001090100002200250028002B002E003194
:1038300000340002010000050108010B0100002115
:1038400000240027002A002D003000330001010071
:1038500000040107010A01024E414E494E495459E4
:10386000494E46CDCCCC3D0AD7233C17B7D138774B
:10387000CC2B329595E6241FB14F0A000020410061
:1038800000C84200401C4620BCBE4CCA1B0E5AAEAB
:10389000C59D74002B615961BDDF57E02F61112474
:1038A0001FBECFEFD1E2DEBFCDBF00E00CBF15E001
:1038B000A0E0B2E0EEEFF2EF01E00BBF02C0079034
:1038C0000D92A830B107D9F726E1A8E0B5E001C014
:1038D0001D92A730B207E1F718E3CCE9D8E300E086
:1038E00006C022970109FE010BBF0E9432F3C439C2
:1038F000D10780E00807A9F70E944DEA0C946EF901
:103900000C940000FC0114821782138212828AE652
:1039100094E09183808308952AE634E0FC013183AA
:1039200020832781222319F004960C94607D08954A
:10393000CF92DF92EF92FF920F931F93CF93DF937B
:10394000EC018F96DFDFCE01805B9F4FDBDF7E01D6
:103950002FE6E20EF11C87016E013BE5C31A3EEF34
:10396000D30AC801CFDF015E1F4F0C151D05C9F733
:10397000FE01E955FE4F89E1818314823596178A4D
:10398000CE0186539E4FBEDFFE01E558FD4F1082EB
:10399000118212821382389610821182128213824F
:1039A0001A821B8218821982F80111821082FE018C
:1039B000E751FE4F108286E391E0F7019C011192DE
:1039C00021503040E1F7FE01E957FD4F81E080834F
:1039D0001EA61DA60E94E8E7C158DD4F68577C4E21
:1039E0008F4F9F4F688379838A839B83DF91CF9129
:1039F0001F910F91FF90EF90DF90CF900895FC0101
:103A000020E03EE2DB014C91403241F0283011F4DD
:103A100030833196DB014C91408331962F5F6F5F8D
:103A20007F4F2B3079F7108208952F923F924F925B
:103A30005F926F927F928F929F92AF92BF92CF923E
:103A4000DF92EF92FF920F931F93CF93DF93CDB747
:103A5000DEB7C858D1090FB6F894DEBF0FBECDBF90
:103A60008C016B017A014901CA57DF4F1882C65891
:103A7000D04084E0E80EF11C1801E2E12E0E311C6A
:103A80003801F8E76F1AFDEF7F0A580186E7A81A98
:103A90008DEFB80A80E4482E512C4C0E5D1EE4E0F8
:103AA0004E0E511CA101BE016F5F7F4FC7010E94E6
:103AB000CA7B18160CF031C12C85322F3871303189
:103AC00009F09EC0F301808191810197029708F46B
:103AD00097C0BE016F5F7F4FCE0187589F4F8FDF2A
:103AE000A0961FAEA097F6018081811107C061EEFC
:103AF00072E0CE01815A9F4F0E9450F6B601CE016E
:103B0000815A9F4F0E9450F6BE0167587F4FCE01E9
:103B1000815A9F4F0E9450F661EE72E0CE01815AA9
:103B20009F4F0E9450F6CE01805C9F4FEBDE21E05C
:103B3000AE0147585F4FB701C2010E94577F811104
:103B400039C0F30180819181892BA1F5E7E0FDE087
:103B50008491882341F09091C00095FFFCCF809321
:103B6000C6003196F5CFE3EEF2E08191882339F07B
:103B70009091C00095FFFCCF8093C600F6CF809156
:103B8000C00085FFFCCF8AE08093C600FE01E758A5
:103B9000FF4F8191882339F09091C00095FFFCCFB1
:103BA0008093C600F6CF8091C00085FFFCCF8AE0ED
:103BB0008093C6008BE1FE01EC5BFF4FDE01959622
:103BC00001900D928A95E1F724968EAD9FAD2497D2
:103BD0009CA38BA38AE694E09AA389A320E030E01B
:103BE000AE014F5D5F4FBE01615A7F4FC8011DDFBF
:103BF000CE01819691DECE01805C9F4F8DDE52CF4B
:103C00008981882309F489C08E3209F44BCFF801E9
:103C100082898E3209F446CF23FD44CF81E03031D2
:103C200009F080E0F8018483811108C08985873418
:103C300009F038CF8A858E3709F434CF98012B5F8D
:103C40003F4FBE016F5F7F4FC901C957DF4F2883C8
:103C5000C758D040C857DF4F3883C858D040CFDE50
:103C6000F30180819181C957DF4F2881C758D04027
:103C7000C857DF4F3881C858D0400097F1F4F6019B
:103C80008191882339F09091C00095FFFCCF8093FB
:103C9000C600F6CFF9018191882339F09091C000D8
:103CA00095FFFCCF8093C600F6CF8091C00085FFC2
:103CB000FCCF8AE08093C600F5CE8130910539F4BF
:103CC000F50180819181019691838083EBCE0297EB
:103CD00009F0E8CE8114910439F0B901C4010E94C1
:103CE0003DF6892B71F419C0CA57DF4FF881C658C9
:103CF000D0402F2F30E0F5018081918128173907BE
:103D000061F0CA57DF4FF881C658D040FF5FCA57ED
:103D1000DF4FF883C658D040C5CEC857DF4F0FB627
:103D2000F894DEBF0FBECDBFDF91CF911F910F91F1
:103D3000FF90EF90DF90CF90BF90AF909F908F90CB
:103D40007F906F905F904F903F902F900895EF92EB
:103D5000FF920F931F93CF93DF93CDB7DEB76F978B
:103D60000FB6F894DEBF0FBECDBF8C01FC01E85743
:103D7000FD4F118210827C0183E3E80EF11C40E0CC
:103D800050E0BA01C7010E947D7C8BE1F701DE01A2
:103D9000159601900D928A95E1F7F80181A992A9F3
:103DA0009C838B838AE694E09A83898320E030E0C9
:103DB000AE014F5F5F4F61E874E0C80136DECE01AF
:103DC0000196AADD6F960FB6F894DEBF0FBECDBF89
:103DD000DF91CF911F910F91FF90EF9008952BE10C
:103DE000FB013496DC01149601900D922A95E1F7BF
:103DF000FB0122813381FC01338322830895EF92FA
:103E0000FF920F931F93CF93DF93EC011B828EA938
:103E1000882321F0CE01C3960E94607D7E0189E552
:103E2000E81A8EEFF80A45E360E0C7010E94E177E7
:103E300081111FC0E7E0FDE08491882341F090915B
:103E4000C00095FFFCCF8093C6003196F5CFEDE81A
:103E5000F3E08491882341F09091C00095FFFCCF5E
:103E60008093C6003196F5CF8091C00085FFFCCFCE
:103E700076C08E0104551E4F41E0B701C8010E9473
:103E80006185811126C040E0B701C8010E946185AB
:103E900081111FC0EDE0FDE08491882341F09091F5
:103EA000C00095FFFCCF8093C6003196F5CFEAE7BE
:103EB000F3E08491882341F09091C00095FFFCCFFE
:103EC0008093C6003196F5CF8091C00085FFFCCF6E
:103ED00046C0B801CE01C3960E946E7A81111FC000
:103EE000EDE0FDE08491882341F09091C00095FFC2
:103EF000FCCF8093C6003196F5CFEAE6F3E08491DB
:103F0000882341F09091C00095FFFCCF8093C600BC
:103F10003196F5CF8091C00085FFFCCF20C081E0B5
:103F20008B83E7E0FDE08491882341F09091C0000D
:103F300095FFFCCF8093C6003196F5CFEFE5F3E017
:103F40008491882341F09091C00095FFFCCF80932D
:103F5000C6003196F5CF8091C00085FFFCCF8AE086
:103F60008093C6008E01015D1F4FB801CE01805BBA
:103F70009F4F35DFC25BDF4F19830883DF91CF91FD
:103F80001F910F91FF90EF900895FC011282138210
:103F90000895FC012381222311F021E0228308955A
:103FA000FC012281211112820895AF92BF92CF921B
:103FB000DF92EF92FF920F931F93CF93DF931F92A5
:103FC000CDB7DEB78C018FE2FB0181935F01D12C6D
:103FD00041E07801FBE5EF1AFEEFFF0A9FE1C92EF1
:103FE0002D2D30E0F7018081918128173907D8F411
:103FF000C29EC001C39E900D11248D589F4FB501E4
:10400000800F911F49830E94157AC50149815C0187
:104010000196F5012081222321F04D3810F44F5FE5
:10402000F6CFD394DDCF47FD11C0B501C80182534F
:104030009E4F0F90DF91CF911F910F91FF90EF90C6
:10404000DF90CF90BF90AF900C94157AF50110825D
:104050000F90DF91CF911F910F91FF90EF90DF9024
:10406000CF90BF90AF9008953F924F925F926F9222
:104070007F928F929F92AF92BF92CF92DF92EF92F8
:10408000FF920F931F93CF93DF93CDB7DEB7AC971B
:104090000FB6F894DEBF0FBECDBF7C015B01FC0103
:1040A0008381882309F407C1C70182539E4F0E9470
:1040B000607DF7011282CE0101966C0123DC27019D
:1040C0009EE4490E511CC7018F96F20191838083B3
:1040D000F50180818F3209F084C06FE270E0C50184
:1040E0000E945BF68C010F5F1F4F2AE0322E0115F4
:1040F000110509F47CC06FE270E0C8010E945BF614
:104100004C01009709F474C00817190708F070C033
:104110003C01601A710AA301B801CE0180960E9489
:1041200084F6E0E2F0E0EC0FFD1FE60DF71D1082D3
:10413000FE01B0968191882339F09091C00095FFDF
:10414000FCCF8093C600F6CF8091C00085FFFCCFE6
:104150003092C600F201608171816115710519F01C
:104160006C5F7F4F02C060E070E021E0AE01405E16
:104170005F4FCE0105960E94577F81112BC0E4E46A
:10418000F2E08491882341F09091C00095FFFCCF2C
:104190008093C6003196F5CFFE01B09681918823B9
:1041A00039F09091C00095FFFCCF8093C600F6CF08
:1041B000E2E4F2E08491882341F09091C00095FF01
:1041C000FCCF8093C6003196F5CF8091C00085FF6B
:1041D000FCCF6CC0F201D182C08284010F5F1F4FFF
:1041E00086CFC701805B9F4FF20191838083850159
:1041F000F20180819181009711F0049602C080E065
:1042000090E0B8010E942D80882339F1E4E3F2E0C8
:104210008491882341F09091C00095FFFCCF80935A
:10422000C6003196F5CFF8018191882339F090913D
:10423000C00095FFFCCF8093C600F6CF8091C000F0
:1042400085FFFCCF8AE08093C600F701ED57FD4F54
:1042500010821182128213822CC0ECE1F2E0849170
:10426000882341F09091C00095FFFCCF8093C60059
:104270003196F5CFF8018191882339F09091C000F3
:1042800095FFFCCF8093C600F6CFEAE1F2E084917F
:10429000882341F09091C00095FFFCCF8093C60029
:1042A0003196F5CF8091C00085FFFCCF8AE08093E6
:1042B000C600C60131DBAC960FB6F894DEBF0FBE68
:1042C000CDBFDF91CF911F910F91FF90EF90DF90C5
:1042D000CF90BF90AF909F908F907F906F905F90A6
:1042E0004F903F900895CF93DF93EC018B8188230B
:1042F000C1F1E8E0F2E08491882341F09091C000A0
:1043000095FFFCCF8093C6003196F5CFFE01ED57A7
:10431000FD4F40815181628173812AE030E088E065
:1043200095E00E941B33E6E0F2E08491882341F09F
:104330009091C00095FFFCCF8093C6003196F5CFD9
:10434000C558DD4F488159816A817B812AE030E080
:1043500088E095E00E941B338091C00085FFFCCF70
:1043600011C0E6EFF1E08491882341F09091C00004
:1043700095FFFCCF8093C6003196F5CF8091C000A9
:1043800085FFFCCF8AE08093C600DF91CF9108952E
:10439000AF92BF92CF92DF92EF92FF920F931F9353
:1043A000CF93DF935C01EB01FB0101900020E9F763
:1043B0008F0101501109061B170B6C01F2E3CF1A94
:1043C000FEEFDF0AF60110826EE470E0CE010E947B
:1043D0005BF67C01009729F4F8013197EC0FFD1F83
:1043E0000DC060E270E00E945BF6EC0121966AE28B
:1043F00070E0C7010E945BF6FC0131978DE081837C
:104400008AE082831382BE01C50186539E4F0E94BB
:104410000A82F6018081882309F1EDE0FDE08491B4
:10442000882341F09091C00095FFFCCF8093C60097
:104430003196F5CFE0EEF1E08491882341F0909140
:10444000C00095FFFCCF8093C6003196F5CF8091D8
:10445000C00085FFFCCF8AE08093C600DF91CF913A
:104460001F910F91FF90EF90DF90CF90BF90AF9092
:1044700008952F923F924F925F926F927F928F9208
:104480009F92AF92BF92CF92DF92EF92FF920F93E3
:104490001F93CF93DF93CDB7DEB7CC55D1090FB6BD
:1044A000F894DEBF0FBECDBF8C0189579D4F5C01D4
:1044B000611112C0FC018081882309F4B0C03897D3
:1044C000C080D180E280F3800E94E8E7C616D7065C
:1044D000E806F90608F4A3C0F5011082F80183810B
:1044E000811107C0C8018BDCF8018381882309F49E
:1044F00096C0F80186A58F9385A58F9387ED91E0EF
:104500009F938F937E01FFE3EF0EF11CFF92EF92DA
:104510000E9493F60F900F900F900F900F900F90B6
:10452000B12CF70101900020E9F73197EE19FF094E
:10453000BE1684F46701CB0CD11CB7FCDA94F601EB
:104540008081992787FD90950E94D7F5F601808399
:10455000B394E7CF4801F3E38F0E911C40E050E0A5
:10456000BA01C4010E947D7C512CCE0101966C01E0
:1045700030ED632E31E0732E5E0191E2A90EB11C85
:1045800040E050E0B601C4010E94CA7B1816DCF579
:10459000412CF60101900020E9F73197EC19FD0953
:1045A0004E1674F41601240C311C47FC3A94F101A8
:1045B000808190E00E94D7F5F10180834394E9CF98
:1045C0008A858E37E9F245E050E0B701C6010E94C6
:1045D00076F6892BA9F6FF92EF927F926F92BF92A7
:1045E000AF920E9493F6C5010E948E368CEC91E04A
:1045F0000E945E370F900F900F900F900F900F90CA
:1046000055245394BDCF511004C08FEF9FEFF80194
:1046100004C0F80185A596A5019696A785A7C45A5A
:10462000DF4F0FB6F894DEBF0FBECDBFDF91CF9145
:104630001F910F91FF90EF90DF90CF90BF90AF90C0
:104640009F908F907F906F905F904F903F902F90B2
:1046500008950F931F93CF93DF93EC018C010253C6
:104660001E4FC8010E94167DC8010E94607D1982FC
:104670001882DF91CF911F910F910895CF92DF9211
:10468000EF92FF920F931F93CF93DF93CDB7DEB7D7
:104690006F970FB6F894DEBF0FBECDBF8C016A01D5
:1046A0007C018EE4E80EF11CC801805B9F4FF7018E
:1046B00091838083E65CFD4F22E030E031832083EC
:1046C00032967183608340E050E0BA0104960E9404
:1046D0007D7CF701808191812BE1FC013496DE0124
:1046E000159601900D922A95E1F7FC018281938144
:1046F0009C838B838AE694E09A8389839601AE013A
:104700004F5F5F4F61E874E0C8018FD9CE01019619
:1047100003D96F960FB6F894DEBF0FBECDBFDF9101
:10472000CF911F910F91FF90EF90DF90CF90089560
:104730002F923F924F925F926F927F928F929F92B1
:10474000AF92BF92CF92DF92EF92FF920F931F939F
:10475000CF93DF93CDB7DEB7AC970FB6F894DEBF3B
:104760000FBECDBF8C016B01342EFC0183818823E9
:1047700009F4E1C2EF52FE4F8081882309F4F8C0AA
:104780002111C4C07801F7E1EF1AFEEFFF0AF7012B
:104790008081882361F1EDE0FDE08491882341F080
:1047A0009091C00095FFFCCF8093C6003196F5CF65
:1047B000ECE1F3E08491882341F09091C00095FFF3
:1047C000FCCF8093C6003196F5CF4AE050E061E01F
:1047D00070E088E095E00E94EF328091C00085FF94
:1047E000FCCF8AE08093C6000E94244FA4C2E7E079
:1047F000FDE08491882341F09091C00095FFFCCFAB
:104800008093C6003196F5CFE3E0F3E084918823EE
:1048100041F09091C00095FFFCCF8093C600319687
:10482000F5CFF6018191882339F09091C00095FF72
:10483000FCCF8093C600F6CFE8EFF2E084918823A6
:1048400041F09091C00095FFFCCF8093C600319657
:10485000F5CFF70180815DE8B52EB801B89E600DF7
:10486000711D112462517E4FC8019FDBF7018081C9
:10487000F801B89EE00DF11D1124E251FE4F819127
:10488000882339F09091C00095FFFCCF8093C6003B
:10489000F6CFE2EFF2E08491882341F09091C000DE
:1048A00095FFFCCF8093C6003196F5CF5801FDE708
:1048B000AF1AFDEFBF0AF50140815181628173811A
:1048C0002AE030E088E095E00E941B338091C00030
:1048D00085FFFCCF8AE08093C600F7012081F801B4
:1048E00084E0289FE00DF11D1124AF0146515E4F79
:1048F000F50180819181A281B381FA018083918346
:10490000A283B3832F5FF70120832CC0E7E0FDE093
:104910008491882341F09091C00095FFFCCF809353
:10492000C6003196F5CFE1EEF2E08491882341F0A4
:104930009091C00095FFFCCF8093C6003196F5CFD3
:10494000F6018191882339F09091C00095FFFCCF4A
:104950008093C600F6CF8091C00085FFFCCF8AE02F
:104960008093C600C80182539E4F0E94607D30C074
:10497000F801E751FE4F1082E7E0FDE084918823C3
:1049800041F09091C00095FFFCCF8093C600319616
:10499000F5CFE0EDF2E08491882341F09091C000E2
:1049A00095FFFCCF8093C6003196F5CFF60181913B
:1049B000882339F09091C00095FFFCCF8093C6000A
:1049C000F6CF8091C00085FFFCCF8AE08093C600BF
:1049D000F8011282CE0101965C010E94821C28011E
:1049E0009EE4490E511CC8018F96F2019183808389
:1049F000F60180818F3209F081C07601FFEFEF1A56
:104A0000FF0A4AE0242EE114F10409F47DC06FE2AC
:104A100070E0C7010E945BF64C01009709F475C075
:104A2000E816F90608F071C03C016E187F08A30172
:104A3000B701CE0180960E9484F6E0E2F0E0EC0F30
:104A4000FD1FE60DF71D1082FE01B09681918823AF
:104A500039F09091C00095FFFCCF8093C600F6CF4F
:104A60008091C00085FFFCCF2092C600F2016081DA
:104A700071816115710519F06C5F7F4F02C060E0B4
:104A800070E021E0AE01405E5F4FCE0105960E94CE
:104A9000577F81112BC0ECEBF2E08491882341F029
:104AA0009091C00095FFFCCF8093C6003196F5CF62
:104AB000FE01B0968191882339F09091C00095FF56
:104AC000FCCF8093C600F6CFEAEBF2E08491882316
:104AD00041F09091C00095FFFCCF8093C6003196C5
:104AE000F5CF8091C00085FFFCCFF9C0F201B18203
:104AF000A0827401FFEFEF1AFF0A85CFC801805B27
:104B00009F4FF201918380837601C80182539E4FAB
:104B10004C01F20160817181332009F4A8C0611554
:104B2000710519F06C5F7F4F02C060E070E021E01A
:104B3000A701C4010E94577F882309F46EC0F401C5
:104B400081899289A389B489F801E558FD4F808352
:104B50009183A283B383ECEAF2E08491D801A55853
:104B6000BD4F882349F09091C00095FFFCCF809302
:104B7000C60031968491F5CFF7018191882339F0F1
:104B80009091C00095FFFCCF8093C600F6CFE4EA79
:104B9000F2E08491882341F09091C00095FFFCCF12
:104BA0008093C6003196F5CF4D915D916D917C91CA
:104BB0002AE030E088E095E00E941B338091C0003D
:104BC00085FFFCCF8AE08093C600F801ED57FD4FCA
:104BD0001082118212821382E6E9F2E08491882326
:104BE00041F09091C00095FFFCCF8093C6003196B4
:104BF000F5CF8091C00085FFFCCF8AE08093C6008E
:104C0000A70160E070E0C80139DDF80182898823DE
:104C100009F48BC0C801429689C0E2E8F2E08491B1
:104C2000882341F09091C00095FFFCCF8093C6008F
:104C30003196F5CFF7018191882339F09091C0002A
:104C400095FFFCCF8093C600F6CFE0E8F2E08491B8
:104C5000882341F09091C00095FFFCCF8093C6005F
:104C60003196F5CF8091C00085FFFCCF38C061152B
:104C7000710519F06C5F7F4F02C060E070E026E5BF
:104C8000A701C4010E94577F81112DC0ECE6F2E01C
:104C90008491882341F09091C00095FFFCCF8093D0
:104CA000C6003196F5CFF7018191882339F09091B4
:104CB000C00095FFFCCF8093C600F6CFEAE6F2E095
:104CC0008491882341F09091C00095FFFCCF8093A0
:104CD000C6003196F5CF8091C00085FFFCCF8AE0F9
:104CE0008093C60025C081E0F8018083E8E5F2E00A
:104CF0008491882341F09091C00095FFFCCF809370
:104D0000C6003196F5CFF6018191882339F0909154
:104D1000C00095FFFCCF8093C600F6CF8091C00005
:104D200085FFFCCF8AE08093C600C7010E9425B5AD
:104D3000C5010E948C1CAC960FB6F894DEBF0FBE66
:104D4000CDBFDF91CF911F910F91FF90EF90DF903A
:104D5000CF90BF90AF909F908F907F906F905F901B
:104D60004F903F902F90089521E0FC01218340E077
:104D7000DFCCCF92DF92EF92FF920F931F93CF93EE
:104D8000DF93CDB7DEB76F970FB6F894DEBF0FBED7
:104D9000CDBF8C016C012EE4C20ED11C805B9F4FF5
:104DA000F60191838083E65CFD4F21E030E03183A2
:104DB00020837801F6E7EF1AFDEFFF0AF701118271
:104DC000108240E050E0BA0104960E947D7CF6011A
:104DD000808191812BE1FC013496DE0115960190D2
:104DE0000D922A95E1F7FC01828193819C838B834C
:104DF0008AE694E09A83898320E030E0AE014F5F39
:104E00005F4F61E874E0C8010E94151DCE01019654
:104E10000E948C1CF701808191816F960FB6F894E7
:104E2000DEBF0FBECDBFDF91CF911F910F91FF90DD
:104E3000EF90DF90CF900895AF92BF92CF92DF9224
:104E4000EF92FF920F931F93CF93DF93CDB7DEB70F
:104E50006F970FB6F894DEBF0FBECDBF8C017B01FC
:104E6000CE0101960E94821CF801E95AFF4F808111
:104E70006801811104C02FE2C20ED11C03C080E57D
:104E8000C80ED11C21E0A701B6016C5F7F4FCE0197
:104E900005960E94577F81112DC0E7E0FDE08491C7
:104EA000882341F09091C00095FFFCCF8093C6000D
:104EB0003196F5CFE6EBF1E08491882341F09091B3
:104EC000C00095FFFCCF8093C6003196F5CFF70167
:104ED0008191882339F09091C00095FFFCCF809399
:104EE000C600F6CF8091C00085FFFCCF8AE080939A
:104EF000C60036C0F801EB55FE4F808191818A30A3
:104F0000910530F59C012F5F3F4F318320832FE1C6
:104F1000289F7001299FF00C11242FE6E20EF11C4E
:104F2000E00EF11E5C01B701C7014F960E94EF1E13
:104F300081E0A81AB1082FE1E21AF1088FEFA81654
:104F4000B80689F7B601C80181599F4F0E94EF1E2C
:104F5000BE016F5F7F4FC801805B9F4F0E94EF1EB5
:104F6000CE0101960E948C1C6F960FB6F894DEBF9E
:104F70000FBECDBFDF91CF911F910F91FF90EF90AA
:104F8000DF90CF90BF90AF900895EF92FF920F9374
:104F90001F93CF93DF93EC01CB55DE4F28813981EE
:104FA00021153105F9F021503109398328838C010D
:104FB00001591F4FB801805B9F4F0E94EF1EC8012F
:104FC00000E010E07C012FE1E20EF11C2881398124
:104FD0000217130738F40F5F1F4FB7010E94EF1E2F
:104FE000C701F0CFDF91CF911F910F91FF90EF900C
:104FF0000895EF92FF920F931F93CF93DF93EC01ED
:105000000E94B48E8E0107511E4FF80180819E01CF
:1050100022533E4F79018823A1F1C9010E94607D8E
:10502000F801808181508083BE01FDE88F9F600D73
:10503000711D112462517E4F21E041E0CE0178DBE9
:10504000F8018081FE0124E0829FE00DF11D112412
:10505000E651FE4F4081518162817381FE01ED571F
:10506000FD4F4083518362837383C7010E947D7C1F
:10507000CE01DF91CF911F910F91FF90EF900C9493
:10508000C91FC9010E94607D1A828AEA91E00E94CC
:105090005E378091350F8823F9F01092350FC0915B
:1050A0007107D0E0CC0FDD1FC558DD4E68817981D6
:1050B000882777FD8095982F0E94A0EF20914B02C2
:1050C00030914C0240914D0250914E020E9401F1EC
:1050D000181614F419821882DF91CF911F910F9145
:1050E000FF90EF9008956F927F929F92AF92BF9240
:1050F000CF92DF92EF92FF920F931F93CF93DF93A4
:105100001F92CDB7DEB78C013B01460F87E0E82E3A
:105110008DE0F82E94E1C92E96E0D92E2AE0922E49
:10512000461509F43FC05301F30161913F01F801B5
:105130008081918149830E94B7F8F8018081918133
:105140000E94AFF8F50190814981891721F1F7019B
:105150008491E7E0FDE0882349F09091C00095FF3D
:10516000FCCF8093C60031968491F5CFF60124914F
:10517000E4E1F6E0222349F03091C00035FFFCCF96
:105180002093C60031962491F5CF8091C00085FF11
:10519000FCCF9092C600F8018081918101969183A5
:1051A0008083BECF0F90DF91CF911F910F91FF9021
:1051B000EF90DF90CF90BF90AF909F907F906F90D7
:1051C0000895EF92FF920F931F93CF93DF931F9257
:1051D000CDB7DEB78C017B01460FF801808191814C
:1051E00049830E94AFF8F70181937F01F801808124
:1051F000918101969183808349814E11EECF0F906A
:10520000DF91CF911F910F91FF90EF900895AF9292
:10521000BF92CF92DF92EF92FF920F931F93CF93A3
:10522000DF93CDB7DEB762970FB6F894DEBF0FBE3F
:10523000CDBF19861A861B861C8680E390E3A0E307
:10524000B0E08D839E83AF83B88784E690E0988B2F
:105250008F8744E0BE016B5F7F4FCE010F9643DF27
:1052600040E16AE97FE0CE010F963DDF40E16AEA66
:105270007FE0CE010F9637DF40E16AE87FE0CE01A4
:105280000F9631DF44E062E87FE0CE010F962BDF1E
:1052900044E06EE77FE0CE010F9625DF44E06AE749
:1052A0007FE0CE010F961FDF44E066E87FE0CE018D
:1052B0000F9619DF44E06AE67FE0CE010F9613DF18
:1052C00044E06AEB7FE0CE010F960DDF44E066E735
:1052D0007FE0CE010F9607DF44E062E77FE0CE017A
:1052E0000F9601DF44E06EE67FE0CE010F96FBDE15
:1052F0004CE065E877E0CE010F96F5DE83E08A8B1F
:10530000898B41E066E37AE0CE010F96ECDE41E066
:10531000BE016E5E7F4FCE010F96E5DE41E0BE011D
:105320006F5E7F4FCE010F96DEDE44E267E37AE0E8
:10533000CE010F96D8DE19861A861B861C8607E0DA
:1053400010E00150110941F044E0BE01675F7F4F5A
:10535000CE010F96C8DEF5CF42E066E075E1CE01E2
:105360000F96C1DE42E064E075E1CE010F96BBDE30
:1053700042E062E075E1CE010F96B5DE42E060E00A
:1053800075E1CE010F96AFDE42E06EEF74E1CE0123
:105390000F96A9DE42E06CEF74E1CE010F96A3DE1A
:1053A00044E062E777E0CE010F969DDE00E010E07A
:1053B000C12C40E8D42E4BE3E42E45E4F42E011535
:1053C0001105C9F444E06BE672E0CE010F968BDE66
:1053D00044E067E672E0CE010F9685DE44E063E6C6
:1053E00072E0CE010F967FDE44E06FE572E0CE0101
:1053F0000F9679DE1EC0C986DA86EB86FC8644E00D
:10540000BE01675F7F4FCE010F966DDE19861A864B
:105410001B861C8634E0A32EB12C81E0A81AB108AB
:1054200041F044E0BE01675F7F4FCE010F965BDE27
:10543000F4CF0F5F1F4F0430110509F0C0CF42E0D9
:1054400069EF72E1CE010F964EDE80E090E0A0E8B9
:10545000BFE389879A87AB87BC8744E0BE01675F5B
:105460007F4FCE010F963FDE41E061EA77E0CE014B
:105470000F9639DE00E010E00115110561F480910E
:10548000230290912402A0912502B09126028987DF
:105490009A87AB87BC8744E0BE01675F7F4FCE0130
:1054A0000F9621DE0F5F1F4F0430110529F786E5A7
:1054B00091E3A7E3B0E089839A83AB83BC8384E65E
:1054C00090E09E878D8744E0BE016F5F7F4FCE01E5
:1054D0000D9609DEE7E0FDE08491882341F090918C
:1054E000C00095FFFCCF8093C6003196F5CF4F8565
:1054F0005889662757FD6095762F82E096E00E94D6
:105500007D36EAEFF5E08491882341F09091C00068
:1055100095FFFCCF8093C6003196F5CF8091C000F7
:1055200085FFFCCF8AE08093C60062960FB6F894A0
:10553000DEBF0FBECDBFDF91CF911F910F91FF90C6
:10554000EF90DF90CF90BF90AF900895AF92BF9251
:10555000CF92DF92EF92FF920F931F93CF93DF933F
:10556000CDB7DEB7E0970FB6F894DEBF0FBECDBF64
:1055700080E1E2EAF2E0DE01919601900D928A95D7
:10558000E1F780E1E2EBF2E0DE01519601900D924D
:105590008A95E1F780E1E2ECF2E0DE0111960190FC
:1055A0000D928A95E1F76E0181E2C80ED11C5AE98D
:1055B000E52E5FE0F52E8E010F5E1F4F6AEA7FE059
:1055C000AE014F5F5F4FEAE8AE2EEFE0BE2E20E067
:1055D00030E0F60181919191A191B1916F01F701B4
:1055E00081939193A193B1937F01F801819191915E
:1055F000A191B1918F01FB0181939193A193B193FB
:10560000BF01FA0181919191A191B191AF01F50191
:1056100081939193A193B1935F012F5F3F4F24300A
:105620003105B9F60E94AC7680E090E0AAEFB3E4D1
:105630008093820F9093830FA093840FB093850F74
:1056400080E090E8ABE3B5E480937E0F90937F0F0A
:10565000A093800FB093810F80937A0F90937B0F6C
:10566000A0937C0FB0937D0F1092860F1092870F3E
:105670001092880F1092890F80E29EE4A0E0B0E0C3
:105680008093BA0F9093BB0FA093BC0FB093BD0F44
:1056900010926A0F10926B0F10926C0F10926D0F98
:1056A00080E090E0A0E0B1E48093760F9093770FD4
:1056B000A093780FB093790F8DEC9CECACECBEE32B
:1056C0008093720F9093730FA093740FB093750F24
:1056D00080E090E0A0E2B1E480936E0F90936F0FB2
:1056E000A093700FB093710F10928D0710928E07D8
:1056F00010928F07109290071092890710928A07D4
:1057000010928B0710928C071092850710928607D3
:1057100010928707109288071092360A84EB90E067
:10572000909307158093061582E390E090930515FA
:1057300080930415109203151092021586EE90E0E6
:10574000909301158093001585E590E09093FF14E8
:105750008093FE141092FD141092FC1480E290E0ED
:105760009093FA128093F91280E090E0A0ECB0E4FC
:1057700080936B0290936C02A0936D02B0936E02C3
:105780006AE979E989E99EE30E94099E60936702CC
:10579000709368028093690290936A0260E070E0FF
:1057A0008AEF92E40E94159E6093630270936402F4
:1057B000809365029093660280E090E0A0E8BFE3EA
:1057C00080935F0290936002A0936102B0936202A3
:1057D0000E9445931092A10780E090E0A0E4B0E41D
:1057E0008093230290932402A0932502B093260273
:1057F0000E948B5BE7E0FDE08491882341F090916B
:10580000C00095FFFCCF8093C6003196F5CFE3EB47
:10581000F5E08491882341F09091C00095FFFCCF82
:105820008093C6003196F5CF8091C00085FFFCCFF4
:105830008AE08093C600E0960FB6F894DEBF0FBEF4
:10584000CDBFDF91CF911F910F91FF90EF90DF902F
:10585000CF90BF90AF9008951F93CF93DF93182FF1
:10586000C7E0DDE0FE018491882341F09091C00003
:1058700095FFFCCF8093C6003196F5CF112389F1B7
:1058800040919A0F50919B0F60919C0F70919D0FCA
:105890008BE995E00E946C3640919E0F50919F0FCE
:1058A0006091A00F7091A10F88E995E00E946C367D
:1058B0004091A20F5091A30F6091A40F7091A50F7A
:1058C00085E995E00E946C364091A60F5091A70F94
:1058D0006091A80F7091A90F82E995E00E946C3643
:1058E00024C0E3EAF5E08491882341F09091C00060
:1058F00095FFFCCF8093C6003196F5CF8091C00014
:1059000085FFFCCF8AE08093C600FE018491E7E02A
:10591000FDE0882309F4B4CF9091C00095FFFCCF3F
:105920008093C60031968491F4CF8091C00085FFAA
:10593000FCCF8AE08093C600FE018491E7E0FDE0A1
:10594000882349F09091C00095FFFCCF8093C6005A
:1059500031968491F5CF112389F14091AA0F50918E
:10596000AB0F6091AC0F7091AD0F8FE695E00E9488
:105970006C364091AE0F5091AF0F6091B00F7091A7
:10598000B10F8CE695E00E946C364091B20F5091B9
:10599000B30F6091B40F7091B50F89E695E00E9446
:1059A0006C364091B60F5091B70F6091B80F70915F
:1059B000B90F86E695E00E946C3624C0E8E7F5E072
:1059C0008491882341F09091C00095FFFCCF809393
:1059D000C6003196F5CF8091C00085FFFCCF8AE0EC
:1059E0008093C600FE018491E7E0FDE0882309F47E
:1059F000B4CF9091C00095FFFCCF8093C600319644
:105A00008491F4CF8091C00085FFFCCF8AE0809321
:105A1000C600FE018491E7E0FDE0882349F0909103
:105A2000C00095FFFCCF8093C60031968491F5CFDE
:105A3000112389F140918A0F50918B0F60918C0F47
:105A400070918D0F8FE395E00E947D3640918E0F0F
:105A500050918F0F6091900F7091910F8CE395E0B2
:105A60000E947D364091920F5091930F6091940F58
:105A70007091950F89E395E00E947D364091960FD5
:105A80005091970F6091980F7091990F86E395E070
:105A90000E947D3624C0E8E4F5E08491882341F03B
:105AA0009091C00095FFFCCF8093C6003196F5CF52
:105AB0008091C00085FFFCCF8AE08093C600FE0184
:105AC0008491E7E0FDE0882309F4B4CF9091C00011
:105AD00095FFFCCF8093C60031968491F4CF8091DE
