:100000000C94091C0C943A1C0C943A1C0C943A1C49
:100010000C943A1C0C943A1C0C943A1C0C943A1C08
:100020000C943A1C0C943A1C0C943A1C0C943A1CF8
:100030000C943A1C0C9466E80C943A1C0C943A1CF0
:100040000C943A1C0C94A1820C943A1C0C943A1C0B
:100050000C943A1C0C943A1C0C94F8970C9440E2C3
:100060000C943A1C0C94552D0C943A1C0C943A1C8C
:100070000C943A1C0C943A1C0C943A1C0C943A1CA8
:100080000C943A1C0C943A1C0C943A1C0C943A1C98
:100090000C943A1C0C943A1C0C943A1C0C9425DBDE
:1000A0000C943A1C0C943A1C0C943A1C0C943A1C78
:1000B0000C943A1C0C943A1C0C943A1C0C943A1C68
:1000C0000C943A1C0C943A1C0C943A1C0C943A1C58
:1000D0000C943A1C0C943A1C0C943A1C0C943A1C48
:1000E0000C943A1CD852D852E352E352E352EE52E7
:1000F000EE52EE520353F952F952F9525298619866
:1001000080988F98AA98B998D498D998DC98E19853
:10011000E498E998F39864E369E36EE378E382E3B3
:10012000FBE38CE394E39CE3A6E3B0E3BAE3C9E327
:10013000D3E3FBE3DDE3E7E3F1E31DE420E40FE4D5
:1001400013E419E457E424E428E42EE432E436E42A
:100150003CE440E444E457E44AE44EE452E4084A10
:10016000D73B3BCE016E84BCBFFDC12F3D6C7431CB
:100170009ABD56833DDA3D00C77F11BED9E4BB4C22
:100180003E916BAAAABE000000803F05A84CCDB2EC
:10019000D44EB93836A9020C50B9918688083CA6CD
:1001A000AAAA2ABE000000803F004D383420582003
:1001B00059205A20450043616E6E6F7420656E743D
:1001C0006572207375626469723A20004D323400A2
:1001D0004D3233202573006175746F25692E6700D9
:1001E0006572726F722077726974696E6720746FBE
:1001F0002066696C65004E6F7420534420707269EC
:100200006E74696E67002F005344207072696E74BB
:10021000696E67206279746520002E0044656C6504
:1002200074696F6E206661696C65642C2046696C28
:10023000653A200046696C652064656C6574656488
:100240003A002E006F70656E206661696C65642CE3
:100250002046696C653A200057726974696E6720A0
:10026000746F2066696C653A20002E006F70656EB1
:10027000206661696C65642C2046696C653A2000D3
:100280002E006F70656E206661696C65642C204677
:10029000696C653A200046696C652073656C65631E
:1002A000746564002053697A653A200046696C657C
:1002B000206F70656E65643A20002E006F70656E69
:1002C000206661696C65642C2046696C653A200083
:1002D0004E6F772066726573682066696C653A2098
:1002E000004E6F7720646F696E672066696C653AAF
:1002F00020002220706F73002220706172656E747E
:100300003A2200535542524F5554494E45204341DD
:100310004C4C207461726765743A2200747279697A
:100320006E6720746F2063616C6C207375622D673B
:10033000636F64652066696C6573207769746820F3
:10034000746F6F206D616E79206C6576656C732EAD
:10035000204D4158206C6576656C2069733A0053D6
:10036000442063617264206F6B006F70656E526F22
:100370006F74206661696C656400766F6C756D657D
:100380002E696E6974206661696C6564005344204F
:10039000696E6974206661696C00205A005A2D509C
:1003A000726F6265204F666673657420286D6D29D3
:1003B0003A0046696C616D656E742073657474698A
:1003C0006E67733A2044697361626C656400202033
:1003D000204D32303020440046696C616D656E748A
:1003E0002073657474696E67733A00204400204975
:1003F000002020204D3330312050005049442073DC
:10040000657474696E67733A00205A0020590020A1
:10041000204D323036205800486F6D65206F66667B
:1004200073657420286D6D293A00204500205A001C
:1004300020580020420020540020204D323035202A
:100440005300416476616E63656420766172696110
:10045000626C65733A20533D4D696E206665656434
:100460007261746520286D6D2F73292C20543D4DC9
:10047000696E2074726176656C2066656564726170
:10048000746520286D6D2F73292C20423D6D696E97
:10049000696D756D207365676D656E742074696D27
:1004A0006520286D73292C20583D6D6178696D7524
:1004B0006D205859206A65726B20286D6D2F732945
:1004C0002C20205A3D6D6178696D756D205A206A27
:1004D00065726B20286D6D2F73292C2020453D6D92
:1004E0006178696D756D2045206A65726B20286D95
:1004F0006D2F73290020540020520020204D3230EF
:1005000034205000416363656C65726174696F6E7D
:10051000733A20503D7072696E74696E672C205278
:100520003D7265747261637420616E6420543D7421
:10053000726176656C00204500205A002059002029
:10054000204D3230312058004D6178696D756D2035
:10055000416363656C65726174696F6E20286D6DAF
:100560002F7332293A00204500205A0020590020DC
:10057000204D3230332058004D6178696D756D2003
:1005800066656564726174657320286D6D2F7329CB
:100590003A00204500205A0020590020204D3932D1
:1005A00020580053746570732070657220756E69F1
:1005B000743A0048617264636F64656420446566E0
:1005C00061756C742053657474696E6773204C6F29
:1005D000616465640053544F505045442E200050D0
:1005E00072696E7465722073746F707065642064D4
:1005F000756520746F206572726F72732E20466964
:100600007820746865206572726F7220616E642054
:10061000757365204D39393920746F207265737494
:100620006172742E202854656D70657261747572E4
:10063000652069732072657365742E20536574207C
:100640006974206166746572207265737461727476
:10065000696E6729004B494C4C45442E200050726E
:10066000696E7465722068616C7465642E206B69B4
:100670006C6C28292063616C6C656421006F6B00D1
:10068000526573656E643A20005A204F6666736542
:1006900074203A20007A5F6D61783A20007A5F6DAD
:1006A000696E3A20005A204F6666736574005A20BE
:1006B0004F6666736574206F6B006C636420636FB4
:1006C0006E74726173742076616C75653A200053A4
:1006D000657474696E672054726176656C2041633D
:1006E00063656C65726174696F6E3A20005365745E
:1006F00074696E672052657472616374204163632C
:10070000656C65726174696F6E3A2000536574742C
:10071000696E67205072696E74696E672041636309
:10072000656C65726174696F6E3A2000536574740C
:10073000696E67205072696E74696E6720616E64BD
:100740002054726176656C6C696E672041636365E5
:100750006C65726174696F6E3A20007A5F6D6178C2
:100760003A20007A5F6D696E3A2000795F6D61789A
:100770003A2000795F6D696E3A2000785F6D61788C
:100780003A2000785F6D696E3A2000205A3A0020C6
:10079000593A0020436F756E7420583A2000204566
:1007A0003A00205A3A0020593A00583A0046495235
:1007B0004D574152455F4E414D453A4D61726C690E
:1007C0006E2056313B20537072696E7465722F67CC
:1007D00072626C206D617368757020666F7220673D
:1007E000656E36204649524D574152455F55524C31
:1007F0003A68747470733A2F2F6769746875622E43
:10080000636F6D2F4D61726C696E4669726D7761B1
:1008100072652F4D61726C696E2050524F544F4378
:100820004F4C5F56455253494F4E3A312E30204D72
:10083000414348494E455F545950453A54617A20E6
:1008400045585452554445525F434F554E543A31E2
:1008500020555549443A30303030303030302D302A
:100860003030302D303030302D303030302D303091
:10087000303030303030303030300A0054617A203F
:100880004F66662E0054617A2072656164792E008D
:1008900042656420646F6E652E0020423A00204558
:1008A0003A00543A004265642048656174696E6795
:1008B0002E0048656174696E6720646F6E652E0056
:1008C00020573A0020453A00543A0048656174695F
:1008D0006E672E2E2E002042403A0020403A002023
:1008E0002F003A00205400202F0020423A00202FF1
:1008F000006F6B20543A002569206D696E2C20250D
:10090000692073656300456E642066696C65206CC0
:1009100069737400426567696E2066696C65206C56
:10092000697374004E6F206D6F76652E0054617A86
:100930002072656164792E00526573756D696E670A
:10094000207072696E74005761697420666F72203E
:10095000757365722E2E2E00473238004D65736810
:1009600020646F6E652E0A004D6573682070726F8B
:1009700062696E67206E6F7420737461727465644F
:100980002E0A0047323920533200473238004D6575
:10099000736820626564206C6576656C696E67209B
:1009A0006E6F74206163746976652E0A00202000E2
:1009B0000A4D6561737572656420706F696E74733A
:1009C0003A0A000A5A207365617263682068656993
:1009D0006768743A20002C004E756D20582C593AE7
:1009E000200053206F7574206F662072616E6765FA
:1009F0002028302D32292E0A00536C6565702E2E6A
:100A00002E002200556E6B6E6F776E20636F6D6DDA
:100A1000616E643A202200256920686F7572732028
:100A20002569206D696E7574657300446F6E65206D
:100A30007072696E74696E672066696C65005354E4
:100A40004F505045442E20005072696E74657220DC
:100A500073746F707065642064756520746F2065B1
:100A600072726F72732E20466978207468652065F3
:100A700072726F7220616E6420757365204D393912
:100A80003920746F20726573746172742E2028543B
:100A9000656D706572617475726520697320726529
:100AA0007365742E205365742069742061667465C3
:100AB000722072657374617274696E6729004E6F7B
:100AC000204C696E65204E756D6265722077697481
:100AD0006820636865636B73756D2C204C6173745B
:100AE000204C696E653A20004E6F20436865636B49
:100AF00073756D2077697468206C696E65206E75FA
:100B00006D6265722C204C617374204C696E653A7D
:100B10002000636865636B73756D206D69736D612B
:100B20007463682C204C617374204C696E653A20A4
:100B3000004C696E65204E756D6265722069732088
:100B40006E6F74204C617374204C696E65204E7515
:100B50006D6265722B312C204C617374204C696E70
:100B6000653A20004D31313000446F6E652073616D
:100B700076696E672066696C652E006F6B004D327A
:100B800039002020506C616E6E6572427566666534
:100B90007242797465733A20002046726565204D73
:100BA000656D6F72793A20004170722032372032C1
:100BB00030313500436F6D70696C65643A200028F0
:100BC0006E6F6E652C2064656661756C7420636F52
:100BD0006E6669672900207C20417574686F723ADF
:100BE00020004170722032372032303135203230CF
:100BF0003A31393A333000204C61737420557064B7
:100C0000617465643A2000312E302E32004D6172DD
:100C10006C696E0020536F6674776172652052654F
:100C200073657400205761746368646F6720526550
:100C3000736574002042726F776E206F7574205256
:100C400065736574002045787465726E616C20521E
:100C50006573657400506F776572557000737461C9
:100C60007274002200656E717565696E67202200DE
:100C7000FFFFFF00000040000000400000004000B7
:100C80000095430080894300007A43000000000083
:100C90000000000000000000009543008089430030
:100CA000007A430000000000000000000000006522
:100CB00063686F3A004572726F723A0020746F6F0A
:100CC000206C6F6E6720657874727573696F6E2023
:100CD00070726576656E7465640020636F6C642065
:100CE000657874727573696F6E2070726576656E63
:100CF000746564007C3C3E5E2B3D3F2F5B5D3B2C6E
:100D00002A225C0045313A200045303A20005A3A08
:100D10002000593A2000583A20004D53312C4D53B1
:100D2000322050696E730A004D3834205820592003
:100D30005A204500656E6473746F7073206869741F
:100D40003A205A00205A3A00656E6473746F7073CB
:100D5000206869743A20590020593A00656E64731E
:100D6000746F7073206869743A20580020583A00F4
:100D7000656E6473746F7073206869743A20002420
:100D8000F4D43050C38E20C2A24017828B7011124F
:100D90007A910D816CD90AA861E108C7586607618C
:100DA0005143061E4B5D05C145A7041A41110409B4
:100DB0003D9803713931034036DB0265339102D42B
:100DC000305402802E1D02632CEE01752AC501B03D
:100DD00028A001102781018F2564012B244B01E0FD
:100DE000223401AC211F018D200D01801FFC0084E5
:100DF0001EED00971DDF00B81CD200E61BC60020C8
:100E00001BBC00641AB200B219A8000A19A0006A3B
:100E1000189900D117910040178B00B51684003146
:100E2000167E00B31579003A157300C7146F005889
:100E3000146A00EE1366008813630025135E00C772
:100E4000125B006C12570015125400C11151007052
:100E5000114F0021114B00D61049008D104700465C
:100E600010440002104200C00F4000800F3E0042BC
:100E70000F3C00060F3B00CB0E3800930E37005C92
:100E80000E3500270E3400F30D3200C10D310090F5
:100E90000D3000600D2E00320D2D00050D2C00D9F7
:100EA0000C2B00AE0C2900850C29005C0C270035AA
:100EB0000C27000E0C2600E80B2400C40B2400A015
:100EC0000B23007D0B23005A0B2100390B21001846
:100ED0000B2000F80A1F00D90A1E00BB0A1E009D45
:100EE0000A1D00800A1D00630A1C00470A1B002C13
:100EF0000A1B00110A1A00F7091A00DD091900C4BB
:100F0000091900AB091900920917007B0918006341
:100F10000917004C09160036091600200916000AA8
:100F2000091500F5081500E0081400CC081400B8F5
:100F3000081400A4081400900813007D0812006B28
:100F40000813005808120046081200340811002344
:100F50000811001208110001081100F0071000E04C
:100F6000071000D0071000C0071000B0070F00A145
:100F700007100091070E0083070F0074070F00652C
:100F8000070E0057070E0049070E003B070D002E05
:100F9000070E0020070D0013070D0006070D00F9CE
:100FA000060C00ED060D00E0060C00D4060C00C88F
:100FB000060C00BC060C00B0060C00A4060B009941
:100FC000060C008D060B0082060B0077060B006CEA
:100FD000060B0061060A0057060B004C060A004289
:100FE000060A0038060A002E060A0024060A001A1D
:100FF000060A001006090007060A00FD050900F4AC
:10100000050900EB050900E2050900D9050900D032
:10101000050900C7050900BE050900B5050800ADB2
:10102000050800A50509009C050800940508008C2A
:10103000050800840508007C050800740508006C9C
:10104000050700650508005D050700560508004E08
:10105000050700470507004005080038050700316F
:101060000507002A050700230507001C05060016D2
:101070000507000F0507000805060002050700FB2D
:10108000040600F5040700EE040600E8040600E28A
:10109000040700DB040600D5040600CF040600C9DF
:1010A000040600C3040600BD040600B7040600B130
:1010B000040500AC040600A6040600A00405009B7D
:1010C00004060095040500900406008A04050085C6
:1010D000040500800406007A04050075040500700C
:1010E0000405006B04050066040500610405005C4E
:1010F00004050057040500520405004D040500488E
:10110000040500430405003E0404003A04050035CC
:10111000040500300404002C040500270404002307
:101120000405001E0404001A04040016040500113E
:101130000404000D04040009040500040404000074
:10114000040400FC030400F8030400F4030400F0AA
:10115000030400EC030400E8030400E4030400E0DB
:10116000030400DC030400D8030400D4030400D00B
:10117000030400CC030400C8030300C503030024D8
:10118000F404D9201BC40C5C0E9804C4095F0265EA
:10119000077101F405F900FB04B30048048700C19E
:1011A0000369005803550003034500BE023A00845A
:1011B00002310053022A002902250004022000E423
:1011C000011C00C8011900AF011700980114008428
:1011D000011300710110006101100051010E004364
:1011E000010D0036010B002B010B0020010B001537
:1011F0000109000C01090003010800FB000800F3CD
:10120000000800EB000700E4000600DE000600D83E
:10121000000600D2000600CC000500C7000500C291
:10122000000500BD000400B9000400B5000400B1D1
:10123000000400AD000400A9000400A5000300A202
:101240000003009F0004009B00030098000300952A
:1012500000020093000300900003008D0002008B49
:101260000003008800020086000200840003008161
:101270000002007F0002007D0002007B0002007976
:101280000002007700010076000200740002007284
:10129000000100710002006F0002006D0001006C8F
:1012A0000002006A00010069000200670001006698
:1012B000000100650001006400020062000100619D
:1012C000000100600001005F0002005D0001005CA1
:1012D0000001005B0001005A0001005900010058A4
:1012E00000010057000100560001005500010054A4
:1012F00000010053000000530001005200010051A2
:10130000000100500001004F0001004E0000004E9F
:101310000001004D0001004C0001004B0000004B9B
:101320000001004A00010049000100480000004897
:101330000001004700010046000000460001004592
:10134000000000450001004400010043000000438C
:101350000001004200000042000100410000004185
:10136000000100400001003F0000003F0001003E7E
:101370000000003E0001003D0000003D0001003C77
:101380000000003C0000003C0001003B0000003B6E
:101390000001003A0000003A000100390000003965
:1013A000000100380000003800000038000100375C
:1013B0000000003700010036000000360000003653
:1013C0000001003500000035000000350001003448
:1013D000000000340000003400010033000000333E
:1013E0000000003300010032000000320000003233
:1013F0000001003100000031000000310001003028
:1014000000000030000000300001002F0000002F1D
:101410000000002F0000002F0001002E0000002E11
:101420000000002E0001002D0000002D0000002D06
:101430000000002D0001002C0000002C0000002CFA
:101440000000002C0001002B0000002B0000002BEE
:101450000000002B0001002A0000002A0000002AE2
:101460000000002A000100290000002900000029D6
:1014700000000029000000290001002800000028C9
:1014800000000028000000280000002800010027BC
:1014900000000027000000270000002700000027B0
:1014A00000010026000000260000002600000026A3
:1014B0000000002600010025000000250000002596
:1014C0000000002500000025000000250001002488
:1014D000000000240000002400000024000000247C
:1014E000000100230000002300000023000000236F
:1014F0000000002300000023000000230001002260
:101500000000002200000022000000220000002253
:101510000000002200010021000000210000002145
:101520000000002100000021000000210000002137
:10153000000100200000002000000020000000202A
:10154000000000200000002000000020000000201B
:101550000001001F0000001F0000001F0000001F0E
:101560000000001F0000001F0000001F0001001EFF
:101570000000001E0000001E0000001E00000048C9
:10158000656174656420626564207377697463685B
:101590006564206F66662E204D415854454D50209D
:1015A00074726967676572656420212100457272F3
:1015B0003A204D415854454D5020424544003A2070
:1015C00045787472756465722073776974636865B1
:1015D00064206F66662E204D494E54454D50207450
:1015E00072696767657265642021004572723A20EE
:1015F0004D494E54454D50003A20457874727564FB
:101600006572207377697463686564206F66662EFF
:10161000204D415854454D5020747269676765727A
:101620006564202121004572723A204D415854458D
:101630004D5000202D20496E76616C6964206578DC
:10164000747275646572206E756D6265722021001A
:10165000504944204175746F74756E652066696EDB
:101660006973686564212050757420746865206C06
:10167000617374204B702C204B6920616E64204B89
:101680006420636F6E7374616E74732066726F6D25
:101690002061626F766520696E746F20436F6E669D
:1016A000696775726174696F6E2E680050494420D5
:1016B0004175746F74756E65206661696C6564212F
:1016C0002074696D656F75740020403A006F6B205F
:1016D000543A006F6B20423A0050494420417574DF
:1016E0006F74756E65206661696C65642120546550
:1016F0006D706572617475726520746F6F206869B2
:10170000676800204B643A2000204B693A20002093
:101710004B703A200020436C617373696320504919
:101720004420002054753A2000204B753A200020B8
:101730006D61783A2000206D696E3A200020643A8D
:10174000200020626961733A20001000AD0330016F
:101750006A0150022B0170030A019004F500B005E4
:10176000E500D006D800F007CE001009C500300A09
:10177000BE00500BB700700CB100900DAB00B00E66
:10178000A600D00FA200F0109D0010129900301397
:1017900095005014920070158E0090168B00B017B3
:1017A0008700D0188400F0198100101B7E00301CC7
:1017B0007B00501D7900701E7600901F7300B020D2
:1017C0007000D0216E00F0226B00102469003025DB
:1017D0006600502663007027610090285E00B029E3
:1017E0005C00D02A5900F02B5600102D5400302EEA
:1017F0005100502F4E0070304B0090314800B032F5
:101800004500D0334200F0343E0010363B00303704
:1018100037005038330070392E00903A2900B03B21
:101820002300D03C1B00F03D1100103F0100F03FB1
:101830000000436172642072656D6F7665640043D9
:1018400061726420696E736572746564004D333033
:1018500030205336353920503230300A4D33303055
:101860002053363938205032303000B02000B020BC
:10187000002D2D3A2D2D00466C6F77203100466CDF
:101880006F77203100466C6F77203000466C6F77A1
:10189000203000466C6F7700466C6F770046616EB3
:1018A0002073706565640046616E207370656564C1
:1018B0000042656400426564004E6F7A7A6C652070
:1018C00032004E6F7A7A6C652032004E6F7A7A6CF5
:1018D00065004E6F7A7A6C650053706565640053DD
:1018E00070656564004D61696E0050726568656180
:1018F0007420504C412042656400507265686561F7
:101900007420504C4120416C6C00507265686561D8
:101910007420504C4120320050726568656174201B
:10192000504C4120310050726570617265005072F8
:1019300065686561742041425320426564005072BD
:1019400065686561742041425320416C6C0050729F
:1019500065686561742041425320320050726568A9
:10196000656174204142532031005072657061728C
:101970006500580059005A004578747275646572A4
:10198000004578747275646572004D6F7665205AF3
:10199000004D6F76652059004D6F76652058004DDB
:1019A0006F76652061786973004D6F766520302E03
:1019B000316D6D004D6F766520316D6D004D6F7628
:1019C000652031306D6D0050726570617265004741
:1019D0003238005A00473238004C6576656C206218
:1019E0006564004D6F76652061786973004D38300D
:1019F0000053776974636820706F776572206F6E2B
:101A0000004D38310053776974636820706F7765D3
:101A100072206F666600436F6F6C646F776E005064
:101A20007265686561742041425300507265686553
:101A3000617420504C410053657420686F6D6520BF
:101A40006F66667365747300473238004175746F52
:101A500020686F6D65004D38340044697361626CB5
:101A600065207374657070657273004D61696E00F6
:101A700042656400426564004E6F7A7A6C65004E80
:101A80006F7A7A6C650046616E20737065656400DC
:101A900046616E2073706565640054656D70657293
:101AA00061747572650042656400426564004E6F42
:101AB0007A7A6C65004E6F7A7A6C650046616E20AA
:101AC00073706565640046616E20737065656400BF
:101AD00054656D70657261747572650050726568E9
:101AE0006561742041425320636F6E6600507265D9
:101AF0006865617420504C4120636F6E66005049E8
:101B0000442D43005049442D43005049442D440086
:101B10005049442D44005049442D49005049442D1A
:101B200049005049442D50005049442D500020FF99
:101B300020466163740020FF20466163740020FF2B
:101B4000204D61780020FF204D61780020FF204D5E
:101B5000696E0020FF204D696E004175746F7465D9
:101B60006D70004F6666004F6E200046616E2073F8
:101B7000706565640046616E20737065656400423F
:101B8000656400426564004E6F7A7A6C65004E6F42
:101B90007A7A6C6500436F6E74726F6C0045737473
:101BA0006570732F6D6D004573746570732F6D6D67
:101BB000005A73746570732F6D6D005A737465707D
:101BC000732F6D6D005973746570732F6D6D0059AF
:101BD00073746570732F6D6D005873746570732F17
:101BE0006D6D005873746570732F6D6D00412D74A9
:101BF000726176656C00412D74726176656C00418E
:101C00002D7265747261637400412D726574726126
:101C1000637400416D6178206500416D61782065D5
:101C200000416D6178207A00416D6178207A004131
:101C30006D6178207900416D6178207900416D6196
:101C400078207800416D6178207800565472617672
:101C5000206D696E005654726176206D696E005673
:101C60006D696E00566D696E00566D617820650075
:101C7000566D6178206500566D6178207A00566D4A
:101C80006178207A00566D6178207900566D617810
:101C9000207900566D6178207800566D6178207843
:101CA0000056652D6A65726B0056652D6A65726B0C
:101CB00000567A2D6A65726B00567A2D6A65726BD2
:101CC000005678792D6A65726B005678792D6A65B1
:101CD000726B00416363656C00416363656C004334
:101CE0006F6E74726F6C0046696C2E204469612EB1
:101CF00020310046696C2E204469612E2031004558
:101D000020696E206D6DB3004F6666004F6E200037
:101D1000436F6E74726F6C004C434420636F6E743B
:101D20007261737400526573746F726520666169C5
:101D30006C73616665004C434420636F6E7472611E
:101D400073740046696C616D656E74004D6F7469E3
:101D50006F6E0054656D7065726174757265004DCB
:101D600061696E004D3234004D323320257300F925
:101D70002E2E004D61696E004E6F2053442063612A
:101D80007264005072696E742066726F6D205344E5
:101D90000053746F70207072696E740052657375B1
:101DA0006D65207072696E74005061757365207086
:101DB00072696E7400436F6E74726F6C005072655E
:101DC000706172650054756E6500496E666F2073B0
:101DD000637265656E0000060900FE07019203212B
:101DE00020FFFF08FE07FF000000060000010707B4
:101DF00006020080808080800080030202060105C8
:101E0000A0A00507070600005050F850F8505005F4
:101E100007070600002078A07028F02005070706B5
:101E20000000C0C810204098180507070600006091
:101E300090A040A89068020303060104C0408003FC
:101E40000707060100204080808040200307070626
:101E5000010080402020204080050505060001206B
:101E6000A870A8200505050600012020F820200202
:101E700003030602FFC04080050101060003F802CB
:101E80000202060200C0C005050506000108102078
:101E900040800507070600007088888888887003DE
:101EA000070706010040C040404040E00507070624
:101EB0000000708808708080F8050707060000F8A9
:101EC0001020100808F00507070600001030509099
:101ED000F81010050707060000F880F00808887061
:101EE000050707060000708080F0888870050707E6
:101EF000060000F808102020202005070706000033
:101F000070888870888870050707060000708888C8
:101F100078080870020505060200C0C000C0C002B3
:101F200006060602FFC0C000C04080040707060086
:101F30000010204080402010050303060002F80036
:101F4000F8040707060100804020102040800507A4
:101F5000070600007088081020002005070706000B
:101F60000070880868A8A870050707060000708838
:101F700088F8888888050707060000F08888F088B8
:101F800088F005070706000070888080808870054B
:101F90000707060000F08888888888F0050707068C
:101FA0000000F88080F08080F8050707060000F840
:101FB0008080F0808080050707060000708880B868
:101FC000888870050707060000888888F888888850
:101FD0000107070602008080808080808005070757
:101FE000060000381010101090600507070600006A
:101FF0008890A0C0A0908805070706000080808018
:10200000808080F805070706000088D8A88888889F
:10201000880507070600008888C8A89888880507EB
:102020000706000070888888888870050707060002
:1020300000F08888F080808005070706000070881F
:102040008888A89068050707060000F08888F0A037
:102050009088050707060000788080700808F00562
:102060000707060000F8202020202020050707068B
:10207000000088888888888870050707060000881F
:102080008888888850200507070600008888888887
:1020900088A85005070706000088885020508888C7
:1020A00005070706000088888850202020050707BC
:1020B000060000F80810204080F80307070601001A
:1020C000E08080808080E0050505060001804020DA
:1020D0001008030707060100E02020202020E0056B
:1020E0000303060004205088050101060000F802E1
:1020F000020206020580400505050600007008780A
:1021000088780507070600008080B0C88888F00539
:10211000050506000070808088700507070600002E
:10212000080868988888780505050600007088F812
:1021300080700507070600003048E0404040400539
:1021400006060600FF7088887808700507070600F5
:10215000008080B0C88888880107070602008000D8
:1021600080808080800308080601FF200020202056
:1021700020A040040707060000808090A0C0A09027
:10218000030707060100C04040404040E005050548
:10219000060000D0A8A8A8A8050505060000B0C83C
:1021A00088888805050506000070888888700506FF
:1021B000060600FFF08888F080800506060600FF0E
:1021C000788888780808050505060000B0C8808072
:1021D0008005050506000070807008F004070706FA
:1021E00000004040E0404040300505050600008802
:1021F00088889868050505060000888888502005AD
:1022000005050600008888A8A850050505060000F9
:1022100088502050880506060600FF8888887808C0
:1022200070050505060000F8102040F803070706B2
:102230000100204040804040200107070602008046
:102240008080808080800307070601008040402056
:10225000404080050202060002689000000006006F
:102260000000000006000000000006000000000062
:10227000060000000000060000000000060000004C
:10228000000006000000000006000000000006003C
:102290000000000006000000000006000000000032
:1022A000060000000000060000000000060000001C
:1022B000000006000000000006000000000006000C
:1022C0000000000006000000000006000000000002
:1022D00006000000000006000000000006000000EC
:1022E00000000600000000000600000000000600DC
:1022F00000000000060000000000060000000000D2
:1023000006000000000006000000000006000000BB
:1023100000000600000000000600000000000600AB
:102320000000000006000001070706020080008090
:10233000808080800507070600002070A8A0A87094
:1023400020050707060000304040E04050A8050582
:102350000506000088705070880507070600008891
:102360005020F820F8200107070602008080800036
:1023700080808005080806000030482050502090DA
:1023800060030101060107A0050707060000F888A1
:10239000B8B8B888F805070706000170087888788B
:1023A00000F80505050600012850A0502805030384
:1023B000060001F80808020202060206408005072E
:1023C00007060000F888A88898A8F805010106000B
:1023D00006F80404040600036090906005070706F1
:1023E00000002020F8202000F80405050600036006
:1023F000902040F0030505060003E020E020E00205
:10240000020206020640800508080600FF88888848
:102410008898E88080050707060000789898781863
:102420001818020202060202C0C00202020602FFDF
:10243000408003050506000340C04040E005070753
:10244000060001708888887000F8050505060001FF
:10245000A0502850A00507070600008890A858B88B
:1024600008080507070600008890B8489820380536
:102470000808060000C040C048D83808080507070B
:102480000600002000204080887005080806000033
:102490004020007088F88888050808060000102091
:1024A000007088F888880508080600002050007031
:1024B00088F888880508080600006890007088F889
:1024C00088880508080600005000708888F8888809
:1024D0000508080600002050207088F88888050745
:1024E000070600003860A0B8E0A0B805080806009C
:1024F000FF70888080887020600508080600004012
:102500002000F880F080F805080806000008100098
:10251000F880F080F8050808060000205000F880D8
:10252000F080F80507070600005000F880F080F8FA
:10253000030808060100804000E0404040E0030836
:1025400008060100204000E0404040E00308080683
:10255000010040A000E0404040E003070706010002
:10256000A000E0404040E005070706000070484832
:10257000E848487005080806000068900088C8A868
:1025800098880508080600004020708888888870B0
:1025900005080806000010207088888888700508E3
:1025A000080600002050007088888870050808061A
:1025B0000000689000708888887005080806000090
:1025C00050007088888888700505050600018850CD
:1025D0002050880508080600FF1070A8A8A8A87059
:1025E0004005080806000040208888888888700513
:1025F0000808060000102088888888887005080868
:1026000006000020500088888888700508080600A9
:102610000050008888888888700508080600001027
:10262000208850202020200509090600FFC04070A6
:102630004848704040E00408080601FF609090A000
:102640009090E0800508080600004020007008789F
:10265000887805080806000010200070087888783F
:1026600005080806000020500070087888780508E2
:10267000080600006890007008788878050707064B
:1026800000005000700878887805080806000020CF
:1026900050207008788878050606060000D0287853
:1026A000A0A8500506060600FF708088702060050F
:1026B00008080600004020007088F88070050808AF
:1026C0000600001020007088F880700508080600D9
:1026D000002050007088F880700507070600005041
:1026E000007088F8807003080806010080400040F0
:1026F000C04040E003080806010020400040C04000
:1027000040E003080806010040A00040C04040E04F
:10271000030707060100A00040C04040E00507078E
:10272000060000A040A01078887005080806000088
:10273000689000B0C8888888050808060000402016
:102740000070888888700508080600001020007056
:102750008888887005080806000020500070888866
:1027600088700508080600006890007088888870E6
:102770000507070600005000708888887005050569
:102780000600012000F8002005080806000040F0BF
:10279000C88888987810050808060000C0F888885E
:1027A000888888F80505050600012030F8302005E6
:1027B00008080600002070F820202020E005090904
:1027C0000600FF2070A8A8B88888702005090906AF
:1027D00000FFE080C0B0A8283028280509090600BD
:1027E000FFF8A88888888888A8F8050A0A0600FEE5
:1027F000205050505088A8A88870000000000000A9
:102800000000000000007FFFE0000000000000006A
:1028100000000000007000E0000000000000000068
:102820000000000061F860000000000000000000EF
:1028300000000041F820000000000000000000003F
:10284000000040F020000000000000000000000038
:1028500000406020000000000000000000000000B8
:102860005801A07F80000000000000004104005CCF
:1028700063A0FFC0000000000000002082005EF79F
:10288000A0FFC0000000000000002082005EF7A052
:10289000FFC0000000000000004104005C63A07F56
:1028A00080000000000000008208005801A07F8026
:1028B00000000000000001041000406020FFC00084
:1028C00000000000000104100040F020FFC00000E4
:1028D000000000000082080041F820FFC000000056
:1028E0000000000041040061F8603F0000000000AB
:1028F0000000000000007000E01E0000000000006A
:102900000001FFFF807FFFE00C00000000000000DE
:1029100001FFFF8000000000000000000000000038
:102920000000007FFFE00000000000000000000049
:1029300000007000E0000000000000000000000047
:1029400000630C60000000000000000000000000B8
:10295000470E200000000000000000000000004FB3
:102960000F200000000000000000000000005F0FCA
:10297000A00000000000000000000000005E07A0B2
:102980007F8000000000000000410400406020FF44
:10299000C00000000000000020820040F020FFC0C6
:1029A0000000000000000020820040F020FFC00076
:1029B0000000000000004104004060207F80000013
:1029C00000000000008208005E07A07F8000000079
:1029D000000000010410005F0FA0FFC00000000015
:1029E0000000010410004F0F20FFC0000000000095
:1029F0000000820800470E20FFC000000000000019
:102A000000410400630C603F000000000000000073
:102A10000000007000E01E0000000000000001FF48
:102A2000FF807FFFE00C0000000000000001FFFFBE
:102A3000800000001FFFFFFFFFFFFF60000000009D
:102A400001FF400000000000FF8000000000007F48
:102A500083CF00000C303F87FF80000C301F867949
:102A600080000C000F8C30C7838C30E78C30CFC7D0
:102A7000CC31F38C30DCECEC33B98C30D86C6C336B
:102A8000198C30D06C0C33198C30D86C0C33198CF9
:102A900030DC6C0E3B198C30CF7C079F198C30C713
:102AA0007C038F194000000000000260000000005D
:102AB00000061FFFFFFFFFFFF800091200FC0A01DC
:102AC000E803D720FFFD0EFD0BFD00000009000EFE
:102AD000010B0B09040080808080808080000080D2
:102AE0008004040409030790909090080A0A0900E2
:102AF00000242424FF2424FF242424070B0B090191
:102B0000FF107C929050381412927C10070A0A0928
:102B1000010042A4A4481010244A4A84070A0A0962
:102B200001006090909060629488946201040409AE
:102B3000040780808080030C0C0903FF2040408044
:102B40008080808080404020030C0C0903FF80407F
:102B50004020202020202040408007070709010353
:102B600010925438549210070707090101101010F1
:102B7000FE1010100204040904FEC0C040800701CA
:102B800001090104FE020202090400C0C0070A0A8A
:102B900009010002040408101020404080070A0ABE
:102BA00009010038448282828282824438070A0AFC
:102BB000090100103050901010101010FE070A0A82
:102BC000090100384482020408102040FE070A0A66
:102BD000090100FE020408180402028478070A0AA8
:102BE000090100040C14244484FE040404070A0AA6
:102BF000090100FE808080F80402028478070A0A36
:102C00000901003C408080B8C482824438070A0A27
:102C1000090100FE020404080810101010070A0A37
:102C200009010038448244384482824438070A0A41
:102C300009010038448282463A02020478020707FA
:102C4000090400C0C0000000C0C00209090904FE58
:102C5000C0C0000000C0C04080050909090200088A
:102C60001020408040201008070404090102FE00E3
:102C700000FE0509090902008040201008102040CC
:102C800080070A0A09010038448202040810100073
:102C900010070A0A09010038449AAAAAAAAA9C4065
:102CA0003C070A0A09010010282828447C44828233
:102CB00082070A0A090100F8848284F884828284E7
:102CC000F8070A0A0901003C428080808080804227
:102CD0003C070A0A090100F8848282828282828487
:102CE000F8070A0A090100FE808080F88080808051
:102CF000FE070A0A090100FE808080F8808080803B
:102D000080070A0A09010038448280808E8282444A
:102D100038070A0A09010082828282FE8282828248
:102D200082050A0A090200F8202020202020202005
:102D3000F8070A0A0901003E0808080808088888F8
:102D400070070A0A09010082848890A0D0888482D2
:102D500082070A0A0901008080808080808080804C
:102D6000FE070A0A0901008282C6AA928282828232
:102D700082070A0A0901008282C2A2928A8682829E
:102D800082070A0A0901007C828282828282828210
:102D90007C070A0A090100F884828284F880808016
:102DA00080080B0B0901FF384482828282828A44A8
:102DB0003A01070A0A090100F884828284F890889F
:102DC0008482070A0A0901007C8280807C02020258
:102DD000827C070A0A090100FE1010101010101062
:102DE0001010070A0A09010082828282828282828E
:102DF0004438070A0A090100828282444444282890
:102E00002810070A0A090100828282829292929215
:102E1000AA44070A0A0901008282442810102844A3
:102E20008282070A0A0901008282442810101010C9
:102E30001010070A0A090100FE0204081020408051
:102E400080FE040C0C0903FFF0808080808080806D
:102E5000808080F0070A0A0901008040402010109D
:102E600008040402040C0C0902FFF01010101010EA
:102E70001010101010F007040409010610284482F5
:102E80000801010900FFFF03030309030A80402032
:102E90000707070901007C02027E82867A070A0A78
:102EA000090100808080BCC2828282C2BC07070701
:102EB0000901007C82808080827C070A0A09010067
:102EC0000202027A86828282867A07070709010057
:102ED0007C8282FE80827C070A0A0901001C222271
:102EE0002020F820202020070A0A0901FD7A848486
:102EF0008478807C82827C070A0A090100808080B5
:102F0000BCC28282828282050A0A09020060000035
:102F1000E02020202020F8050D0D0902FD180000FA
:102F200038080808080808888870070A0A09010094
:102F3000808080848890B0C88482050A0A090200D3
:102F4000E02020202020202020F80707070901008A
:102F5000EC929292929282070707090100BCC2820A
:102F6000828282820707070901007C828282828234
:102F70007C070A0A0901FDB8C4828282C4B8808035
:102F800080070A0A0901FD3A46828282463A020215
:102F9000020707070901009C6242404040400707C2
:102FA000070901007C82807C02827C0709090901F3
:102FB000002020FC20202020221C070707090100F8
:102FC0008282828282867A07070709010082824410
:102FD000442828100707070901008282929292AACA
:102FE0004407070709010082442810284482070A81
:102FF0000A0901FD42422424241818109060070792
:1030000007090100FE0408102040FE060B0B090210
:10301000001C20202020C0202020201C010C0C0996
:1030200004FF808080808080808080808080060B8C
:103030000B090100E0101010100C10101010E00728
:10304000030309010762928CFFFFFFFFFFFFFFFFF1
:10305000FFFFFFFFFFFFFFFFFFFFFFFFFFFFFFFF80
:10306000FFFFFFFFFFFFFFFFFF00000009000E0151
:103070000B0B0904008080000080808080808080AD
:1030800006080809010008789490A0A47840070A6F
:103090000A0901001C222020F8202060A25C0706FB
:1030A00006090103827C44447C82070A0A09010064
:1030B000828244287C107C101010010B0B0904FF45
:1030C0008080808080008080808080040B0B0902DB
:1030D000FF60908060909090601090600302020901
:1030E000030BA0A00809090900013C4299A5A1A56C
:1030F00099423C050707090103609070907800F839
:103100000708080901011224489090482412060477
:1031100004090102FC040404050101090204F80881
:1031200009090900013C42B9A5BDA9A5423C060117
:1031300001090109FC04040409030660909060077A
:103140000909090101101010FE10101000FE0406FC
:10315000060901046090106080F00406060901046D
:1031600060902010906003030309030A2040800749
:1031700009090901FE8282828282C6BA8080070A1A
:103180000A0901007E8A8A8A7A0A0A0A0A0A02025F
:1031900002090404C0C00403030902FD2090600377
:1031A000060609010440C0404040E005060609014A
:1031B000047088887000F807080809010190482405
:1031C0001212244890070A0A09010040C0404042F8
:1031D000E60A121A06070A0A09010040C040404CDC
:1031E000F2020C101E070A0A0901006090201092DA
:1031F000660A121A06070A0A0901001000101020B8
:10320000408082827C070E0E090100201008001009
:10321000282828447C44828282070E0E0901000877
:1032200010200010282828447C44828282070E0E39
:103230000901001028440010282828447C44828278
:1032400082070D0D09010034580010282828447CFD
:1032500044828282070D0D090100282800102828C9
:1032600028447C44828282070E0E0901001028281F
:103270001010282828447C44828282070A0A090107
:10328000001E2828284E784888888E070D0D0901D1
:10329000FD3C42808080808080423C082418070EDC
:1032A0000E09010020100800FE808080F8808080D8
:1032B00080FE070E0E09010008102000FE808080AD
:1032C000F880808080FE070E0E090100102844005F
:1032D000FE808080F880808080FE070D0D0901004F
:1032E000282800FE808080F880808080FE050E0EF9
:1032F00009020040201000F820202020202020205B
:10330000F8050E0E09020010204000F820202020B1
:1033100020202020F8050E0E09020020508800F819
:103320002020202020202020F8050D0D090200502B
:103330005000F82020202020202020F8070A0A0929
:10334000010078444242F24242424478070D0D099E
:1033500001003458008282C2A2928A868282820749
:103360000E0E090100201008007C82828282828277
:1033700082827C070E0E090100081020007C8282E8
:103380008282828282827C070E0E0901001028440C
:10339000007C82828282828282827C070D0D0901FA
:1033A000003458007C82828282828282827C070D75
:1033B0000D0901002828007C82828282828282821A
:1033C0007C07070709010182442810284482070C62
:1033D0000C0901FF027C868A8A9292A2A2C27C809A
:1033E000070E0E090100201008008282828282826C
:1033F00082824438070E0E090100081020008282E4
:103400008282828282824438070E0E0901001028CF
:10341000440082828282828282824438070D0D09B2
:1034200001002828008282828282828282443807B8
:103430000E0E09010008102000828244281010108E
:10344000101010070A0A0901008080FC828282FCA9
:10345000808080060A0A09010038444448D0484464
:10346000444458070B0B090100201008007C02029D
:103470007E82867A070B0B090100081020007C026F
:10348000027E82867A070B0B090100102844007C1B
:1034900002027E82867A070A0A0901003458007CFB
:1034A00002027E82867A070A0A0901002828007C27
:1034B00002027E82867A070C0C090100102828106F
:1034C000007C02027E82867A0707070901006C12DF
:1034D000127E90926C070A0A0901FD7C828080802E
:1034E000827C104830070B0B090100201008007C7B
:1034F0008282FE80827C070B0B09010008102000ED
:103500007C8282FE80827C070B0B0901001028441C
:10351000007C8282FE80827C070A0A09010028283A
:10352000007C8282FE80827C050C0C0902008040B7
:10353000200000E02020202020F8050C0C090200CB
:103540001020400000E02020202020F8050C0C096D
:1035500002002050880000E02020202020F8050BE9
:103560000B09020050500000E02020202020F80726
:103570000B0B090100483050083C448282824438D9
:10358000070A0A090100345800BCC2828282828282
:10359000070B0B090100201008007C8282828282C6
:1035A0007C070B0B090100081020007C82828282BC
:1035B000827C070B0B090100102844007C82828268
:1035C00082827C070A0A0901003458007C828282C8
:1035D00082827C070A0A0901002828007C828282F4
:1035E00082827C07090909010010381000FE0010D2
:1035F00038100709090901FF027C8A8A92A2A27C7D
:1036000080070B0B09010040201000828282828219
:10361000867A070B0B090100081020008282828243
:1036200082867A070B0B09010010284400828282EF
:103630008282867A070A0A0901002828008282828B
:103640008282867A070E0E0901FD040810004242AC
:103650002424241818109060070B0B0901FE8080A9
:10366000B8C4828282C4B88080070D0D0901FD2490
:1036700024004242242424181810906000000A0BF1
:1036800002090C0D0E0807030401000000000000F1
:10369000000000000000000000000000000000002A
:1036A00000000000000000001211100000000000E7
:1036B000000000000000000000000000000000000A
:1036C00000000000000000000000000000000000FA
:1036D0000000010210202008081020401020408027
:1036E00002010201080402010102040810204080C6
:1036F0008040201008040201800402018040201054
:10370000080402010804020101020408102040809C
:103710000102040810204080100804088010204096
:1037200004408010204004800505050507050808B1
:103730000808020202020A0A08080404040401013B
:103740000101010101010303030303030303040750
:1037500007070C0C0C0C0C0C0C0C020202020606E7
:103760000606060606060B0B0B0B0B0B0B0B0707CF
:103770000A0A0A0A0A0A05050504040408080000E2
:1037800020002300260029002C002F003200000119
:1037900000000301060109010000220025002800A5
:1037A0002B002E0031003400020100000501080149
:1037B0000B0100002100240027002A002D0030000A
:1037C000330001010000040107010A01024E414ECD
:1037D000494E495459494E46CDCCCC3D0AD7233C9D
:1037E00017B7D13877CC2B329595E6241FB14F0A05
:1037F000000020410000C84200401C4620BCBE4CD6
:10380000CA1B0E5AAEC59D74855CB35C5FDAF9DAEB
:10381000895C11241FBECFEFD1E2DEBFCDBF00E037
:103820000CBF15E0A0E0B2E0E6E1F8EE01E00BBF6E
:1038300002C007900D92A830B107D9F725E1A8E0A2
:10384000B5E001C01D92AF3FB207E1F718E3C0E158
:10385000D8E300E006C022970109FE010BBF0E94D9
:10386000D4EDC830D10780E00807A9F70E94EFE443
:103870000C94FAF30C940000FC011482178213825A
:1038800012828AE694E09183808308952AE634E0E8
:10389000FC01318320832781222319F004960C94A4
:1038A000BA780895CF92DF92EF92FF920F931F9311
:1038B000CF93DF93EC018F96DFDFCE01805B9F4FCC
:1038C000DBDF7E012FE6E20EF11C87016E013BE596
:1038D000C31A3EEFD30AC801CFDF015E1F4F0C159C
:1038E0001D05C9F7FE01E955FE4F89E18183148268
:1038F0003596178ACE0186539E4FBEDFFE01E558EE
:10390000FD4F10821182128213823896108211822A
:10391000128213821A821B8218821982F801118284
:103920001082FE01E751FE4F108286E391E0F7011D
:103930009C01119221503040E1F7FE01E957FD4F03
:1039400081E080831EA61DA60E948AE2C158DD4F39
:1039500068577C4E8F4F9F4F688379838A839B8300
:10396000DF91CF911F910F91FF90EF90DF90CF905B
:103970000895FC0120E03EE2DB014C91403241F031
:10398000283011F430833196DB014C91408331961D
:103990002F5F6F5F7F4F2B3079F7108208952F9242
:1039A0003F924F925F926F927F928F929F92AF92CF
:1039B000BF92CF92DF92EF92FF920F931F93CF931C
:1039C000DF93CDB7DEB7C858D1090FB6F894DEBF84
:1039D0000FBECDBF8C016B017A014901CA57DF4F81
:1039E0001882C658D04084E0E80EF11C1801E2E1CC
:1039F0002E0E311C3801F8E76F1AFDEF7F0A5801CF
:103A000086E7A81A8DEFB80A80E4482E512C4C0E98
:103A10005D1EE4E04E0E511CA101BE016F5F7F4FA1
:103A2000C7010E94247718160CF031C12C85322F63
:103A30003871303109F09EC0F30180819181019786
:103A4000029708F497C0BE016F5F7F4FCE01875881
:103A50009F4F8FDFA0961FAEA097F6018081811146
:103A600007C061EE72E0CE01815A9F4F0E94F2F0D2
:103A7000B601CE01815A9F4F0E94F2F0BE016758F5
:103A80007F4FCE01815A9F4F0E94F2F061EE72E0AB
:103A9000CE01815A9F4F0E94F2F0CE01805C9F4F71
:103AA000EBDE21E0AE0147585F4FB701C2010E9433
:103AB000B17A811139C0F30180819181892BA1F5FF
:103AC000EFEAFCE08491882341F09091C00095FFDB
:103AD000FCCF8093C6003196F5CFE3EEF2E0819102
:103AE000882339F09091C00095FFFCCF8093C600E9
:103AF000F6CF8091C00085FFFCCF8AE08093C6009E
:103B0000FE01E758FF4F8191882339F09091C00062
:103B100095FFFCCF8093C600F6CF8091C00085FF53
:103B2000FCCF8AE08093C6008BE1FE01EC5BFF4F87
:103B3000DE01959601900D928A95E1F724968EAD5F
:103B40009FAD24979CA38BA38AE694E09AA389A3B4
:103B500020E030E0AE014F5D5F4FBE01615A7F4F04
:103B6000C8011DDFCE01819691DECE01805C9F4FA2
:103B70008DDE52CF8981882309F489C08E3209F401
:103B80004BCFF80182898E3209F446CF23FD44CF12
:103B900081E0303109F080E0F8018483811108C0B0
:103BA0008985873409F038CF8A858E3709F434CF78
:103BB00098012B5F3F4FBE016F5F7F4FC901C9570F
:103BC000DF4F2883C758D040C857DF4F3883C858C5
:103BD000D040CFDEF30180819181C957DF4F28812A
:103BE000C758D040C857DF4F3881C858D0400097D9
:103BF000F1F4F6018191882339F09091C00095FF8E
:103C0000FCCF8093C600F6CFF9018191882339F06B
:103C10009091C00095FFFCCF8093C600F6CF8091B5
:103C2000C00085FFFCCF8AE08093C600F5CE8130CE
:103C3000910539F4F501808191810196918380830A
:103C4000EBCE029709F0E8CE8114910439F0B90166
:103C5000C4010E94DFF0892B71F419C0CA57DF4FED
:103C6000F881C658D0402F2F30E0F5018081918136
:103C70002817390761F0CA57DF4FF881C658D0407E
:103C8000FF5FCA57DF4FF883C658D040C5CEC8572C
:103C9000DF4F0FB6F894DEBF0FBECDBFDF91CF91DF
:103CA0001F910F91FF90EF90DF90CF90BF90AF905A
:103CB0009F908F907F906F905F904F903F902F904C
:103CC0000895EF92FF920F931F93CF93DF93CDB799
:103CD000DEB76F970FB6F894DEBF0FBECDBF8C0175
:103CE000FC01E857FD4F118210827C0183E3E80E4E
:103CF000F11C40E050E0BA01C7010E94D7778BE188
:103D0000F701DE01159601900D928A95E1F7F80111
:103D100081A992A99C838B838AE694E09A83898304
:103D200020E030E0AE014F5F5F4F61E874E0C80112
:103D300036DECE010196AADD6F960FB6F894DEBF8F
:103D40000FBECDBFDF91CF911F910F91FF90EF90EC
:103D500008952BE1FB013496DC01149601900D923D
:103D60002A95E1F7FB0122813381FC013383228311
:103D70000895EF92FF920F931F93CF93DF93EC017F
:103D80001B828EA9882321F0CE01C3960E94BA78A7
:103D90007E0189E5E81A8EEFF80A45E360E0C70185
:103DA0000E943B7381111FC0EFEAFCE084918823DD
:103DB00041F09091C00095FFFCCF8093C6003196F2
:103DC000F5CFEDE8F3E08491882341F09091C000B5
:103DD00095FFFCCF8093C6003196F5CF8091C0004F
:103DE00085FFFCCF76C08E0104551E4F41E0B70120
:103DF000C8010E94BB80811126C040E0B701C80104
:103E00000E94BB8081111FC0E5EBFCE084918823F8
:103E100041F09091C00095FFFCCF8093C600319691
:103E2000F5CFEAE7F3E08491882341F09091C00058
:103E300095FFFCCF8093C6003196F5CF8091C000EE
:103E400085FFFCCF46C0B801CE01C3960E94C8755D
:103E500081111FC0E5EBFCE08491882341F0909133
:103E6000C00095FFFCCF8093C6003196F5CFEAE6FF
:103E7000F3E08491882341F09091C00095FFFCCF3E
:103E80008093C6003196F5CF8091C00085FFFCCFAE
:103E900020C081E08B83EFEAFCE08491882341F02D
:103EA0009091C00095FFFCCF8093C6003196F5CF6E
:103EB000EFE5F3E08491882341F09091C00095FFF5
:103EC000FCCF8093C6003196F5CF8091C00085FF6E
:103ED000FCCF8AE08093C6008E01015D1F4FB801C0
:103EE000CE01805B9F4F35DFC25BDF4F19830883B4
:103EF000DF91CF911F910F91FF90EF900895FC01FA
:103F0000128213820895FC012381222311F021E003
:103F100022830895FC012281211112820895AF921B
:103F2000BF92CF92DF92EF92FF920F931F93CF93A6
:103F3000DF931F92CDB7DEB78C018FE2FB01819337
:103F40005F01D12C41E07801FBE5EF1AFEEFFF0A9B
:103F50009FE1C92E2D2D30E0F70180819181281736
:103F60003907D8F4C29EC001C39E900D11248D580C
:103F70009F4FB501800F911F49830E946F75C50146
:103F800049815C010196F5012081222321F04D3801
:103F900010F44F5FF6CFD394DDCF47FD11C0B501CC
:103FA000C80182539E4F0F90DF91CF911F910F91C7
:103FB000FF90EF90DF90CF90BF90AF900C946F7513
:103FC000F50110820F90DF91CF911F910F91FF901B
:103FD000EF90DF90CF90BF90AF9008953F924F92B7
:103FE0005F926F927F928F929F92AF92BF92CF9289
:103FF000DF92EF92FF920F931F93CF93DF93CDB792
:10400000DEB7AC970FB6F894DEBF0FBECDBF7C0114
:104010005B01FC018381882309F407C1C701825336
:104020009E4F0E94BA78F7011282CE0101966C0170
:1040300023DC27019EE4490E511CC7018F96F20133
:1040400091838083F50180818F3209F084C06FE213
:1040500070E0C5010E94FDF08C010F5F1F4F2AE048
:10406000322E0115110509F47CC06FE270E0C80121
:104070000E94FDF04C01009709F474C0081719075D
:1040800008F070C03C01601A710AA301B801CE01AA
:1040900080960E9426F1E0E2F0E0EC0FFD1FE60DB5
:1040A000F71D1082FE01B0968191882339F090911E
:1040B000C00095FFFCCF8093C600F6CF8091C00072
:1040C00085FFFCCF3092C600F201608171816115DD
:1040D000710519F06C5F7F4F02C060E070E021E075
:1040E000AE01405E5F4FCE0105960E94B17A81110C
:1040F0002BC0E4E4F2E08491882341F09091C00069
:1041000095FFFCCF8093C6003196F5CFFE01B096A7
:104110008191882339F09091C00095FFFCCF809366
:10412000C600F6CFE2E4F2E08491882341F090915A
:10413000C00095FFFCCF8093C6003196F5CF8091EB
:10414000C00085FFFCCF6CC0F201D182C082840127
:104150000F5F1F4F86CFC701805B9F4FF201918396
:1041600080838501F20180819181009711F004968E
:1041700002C080E090E0B8010E94877B882339F17B
:10418000E4E3F2E08491882341F09091C00095FF30
:10419000FCCF8093C6003196F5CFF801819188233A
:1041A00039F09091C00095FFFCCF8093C600F6CF08
:1041B0008091C00085FFFCCF8AE08093C600F701A4
:1041C000ED57FD4F10821182128213822CC0ECE158
:1041D000F2E08491882341F09091C00095FFFCCFDC
:1041E0008093C6003196F5CFF8018191882339F08C
:1041F0009091C00095FFFCCF8093C600F6CFEAE116
:10420000F2E08491882341F09091C00095FFFCCFAB
:104210008093C6003196F5CF8091C00085FFFCCF1A
:104220008AE08093C600C60131DBAC960FB6F894E5
:10423000DEBF0FBECDBFDF91CF911F910F91FF90D9
:10424000EF90DF90CF90BF90AF909F908F907F9036
:104250006F905F904F903F900895CF93DF93EC0164
:104260008B818823C1F1E8E0F2E08491882341F05A
:104270009091C00095FFFCCF8093C6003196F5CF9A
:10428000FE01ED57FD4F40815181628173812AE02B
:1042900030E088E095E00E94CE2EE6E0F2E08491E6
:1042A000882341F09091C00095FFFCCF8093C60019
:1042B0003196F5CFC558DD4F488159816A817B81A0
:1042C0002AE030E088E095E00E94CE2E8091C00088
:1042D00085FFFCCF11C0E6EFF1E08491882341F027
:1042E0009091C00095FFFCCF8093C6003196F5CF2A
:1042F0008091C00085FFFCCF8AE08093C600DF91EB
:10430000CF910895AF92BF92CF92DF92EF92FF923A
:104310000F931F93CF93DF935C01EB01FB0101909F
:104320000020E9F78F0101501109061B170B6C01E2
:10433000F2E3CF1AFEEFDF0AF60110826EE470E0BE
:10434000CE010E94FDF07C01009729F4F80131971D
:10435000EC0FFD1F0DC060E270E00E94FDF0EC016B
:1043600021966AE270E0C7010E94FDF0FC013197DE
:104370008DE081838AE082831382BE01C50186536A
:104380009E4F0E94647DF6018081882309F1E5EB50
:10439000FCE08491882341F09091C00095FFFCCF10
:1043A0008093C6003196F5CFE0EEF1E0849188234A
:1043B00041F09091C00095FFFCCF8093C6003196EC
:1043C000F5CF8091C00085FFFCCF8AE08093C600C6
:1043D000DF91CF911F910F91FF90EF90DF90CF90E1
:1043E000BF90AF9008952F923F924F925F926F923D
:1043F0007F928F929F92AF92BF92CF92DF92EF9275
:10440000FF920F931F93CF93DF93CDB7DEB7CC55B9
:10441000D1090FB6F894DEBF0FBECDBF8C0189570E
:104420009D4F5C01611112C0FC018081882309F459
:10443000B0C03897C080D180E280F3800E948AE2C9
:10444000C616D706E806F90608F4A3C0F5011082DF
:10445000F8018381811107C0C8018BDCF8018381D9
:10446000882309F496C0F80186A58F9385A58F93BC
:1044700087ED91E09F938F937E01FFE3EF0EF11C98
:10448000FF92EF920E9435F10F900F900F900F90D6
:104490000F900F90B12CF70101900020E9F73197B0
:1044A000EE19FF09BE1684F46701CB0CD11CB7FCD2
:1044B000DA94F6018081992787FD90950E9479F022
:1044C000F6018083B394E7CF4801F3E38F0E911C8C
:1044D00040E050E0BA01C4010E94D777512CCE01D0
:1044E00001966C0130ED632E31E0732E5E0191E296
:1044F000A90EB11C40E050E0B601C4010E9424772F
:104500001816DCF5412CF60101900020E9F73197EF
:10451000EC19FD094E1674F41601240C311C47FCED
:104520003A94F101808190E00E9479F0F10180835A
:104530004394E9CF8A858E37E9F245E050E0B70130
:10454000C6010E9418F1892BA9F6FF92EF927F9283
:104550006F92BF92AF920E9435F1C5010E94413225
:104560008CEC91E00E9411330F900F900F900F9000
:104570000F900F9055245394BDCF511004C08FEF6E
:104580009FEFF80104C0F80185A596A5019696A7AE
:1045900085A7C45ADF4F0FB6F894DEBF0FBECDBF5C
:1045A000DF91CF911F910F91FF90EF90DF90CF900F
:1045B000BF90AF909F908F907F906F905F904F9043
:1045C0003F902F9008950F931F93CF93DF93EC01AB
:1045D0008C0102531E4FC8010E947078C8010E94CE
:1045E000BA7819821882DF91CF911F910F910895A7
:1045F000CF92DF92EF92FF920F931F93CF93DF93AF
:10460000CDB7DEB76F970FB6F894DEBF0FBECDBF44
:104610008C016A017C018EE4E80EF11CC801805B0C
:104620009F4FF70191838083E65CFD4F22E030E0ED
:104630003183208332967183608340E050E0BA0179
:1046400004960E94D777F701808191812BE1FC01CC
:104650003496DE01159601900D922A95E1F7FC0142
:10466000828193819C838B838AE694E09A838983F9
:104670009601AE014F5F5F4F61E874E0C8018FD9CA
:10468000CE01019603D96F960FB6F894DEBF0FBE28
:10469000CDBFDF91CF911F910F91FF90EF90DF90F1
:1046A000CF9008952F923F924F925F926F927F9298
:1046B0008F929F92AF92BF92CF92DF92EF92FF9232
:1046C0000F931F93CF93DF93CDB7DEB7AC970FB6A1
:1046D000F894DEBF0FBECDBF8C016B01342EFC0100
:1046E0008381882309F4E1C2EF52FE4F8081882341
:1046F00009F4F8C02111C4C07801F7E1EF1AFEEF08
:10470000FF0AF7018081882361F1E5EBFCE08491E9
:10471000882341F09091C00095FFFCCF8093C600A4
:104720003196F5CFECE1F3E08491882341F090914C
:10473000C00095FFFCCF8093C6003196F5CF4AE0CC
:1047400050E061E070E088E095E00E94A22E809148
:10475000C00085FFFCCF8AE08093C6000E947F4A9C
:10476000A4C2EFEAFCE08491882341F09091C0005C
:1047700095FFFCCF8093C6003196F5CFE3E0F3E0E0
:104780008491882341F09091C00095FFFCCF8093E5
:10479000C6003196F5CFF6018191882339F09091CA
:1047A000C00095FFFCCF8093C600F6CFE8EFF2E0A3
:1047B0008491882341F09091C00095FFFCCF8093B5
:1047C000C6003196F5CFF70180815DE8B52EB801BE
:1047D000B89E600D711D112462517E4FC8019FDB90
:1047E000F7018081F801B89EE00DF11D1124E2511E
:1047F000FE4F8191882339F09091C00095FFFCCF46
:104800008093C600F6CFE2EFF2E08491882341F076
:104810009091C00095FFFCCF8093C6003196F5CFF4
:104820005801FDE7AF1AFDEFBF0AF5014081518144
:10483000628173812AE030E088E095E00E94CE2E0C
:104840008091C00085FFFCCF8AE08093C600F7010D
:104850002081F80184E0289FE00DF11D1124AF01B3
:1048600046515E4FF50180819181A281B381FA01A9
:1048700080839183A283B3832F5FF70120832CC0B1
:10488000EFEAFCE08491882341F09091C00095FF0D
:10489000FCCF8093C6003196F5CFE1EEF2E0849133
:1048A000882341F09091C00095FFFCCF8093C60013
:1048B0003196F5CFF6018191882339F09091C000AF
:1048C00095FFFCCF8093C600F6CF8091C00085FF96
:1048D000FCCF8AE08093C600C80182539E4F0E949D
:1048E000BA7830C0F801E751FE4F1082EFEAFCE0E1
:1048F0008491882341F09091C00095FFFCCF809374
:10490000C6003196F5CFE0EDF2E08491882341F0C6
:104910009091C00095FFFCCF8093C6003196F5CFF3
:10492000F6018191882339F09091C00095FFFCCF6A
:104930008093C600F6CF8091C00085FFFCCF8AE04F
:104940008093C600F8011282CE0101965C010E949C
:104950003C1C28019EE4490E511CC8018F96F201AF
:1049600091838083F60180818F3209F081C07601C6
:10497000FFEFEF1AFF0A4AE0242EE114F10409F4D4
:104980007DC06FE270E0C7010E94FDF04C0100970E
:1049900009F475C0E816F90608F071C03C016E18FC
:1049A0007F08A301B701CE0180960E9426F1E0E2C4
:1049B000F0E0EC0FFD1FE60DF71D1082FE01B09632
:1049C0008191882339F09091C00095FFFCCF8093AE
:1049D000C600F6CF8091C00085FFFCCF2092C600B4
:1049E000F201608171816115710519F06C5F7F4F73
:1049F00002C060E070E021E0AE01405E5F4FCE019A
:104A000005960E94B17A81112BC0ECEBF2E0849103
:104A1000882341F09091C00095FFFCCF8093C600A1
:104A20003196F5CFFE01B0968191882339F09091AF
:104A3000C00095FFFCCF8093C600F6CFEAEBF2E012
:104A40008491882341F09091C00095FFFCCF809322
:104A5000C6003196F5CF8091C00085FFFCCFF9C02C
:104A6000F201B182A0827401FFEFEF1AFF0A85CF35
:104A7000C801805B9F4FF201918380837601C8015A
:104A800082539E4F4C01F20160817181332009F401
:104A9000A8C06115710519F06C5F7F4F02C060E01E
:104AA00070E021E0A701C4010E94B17A882309F4D3
:104AB0006EC0F40181899289A389B489F801E5580F
:104AC000FD4F80839183A283B383ECEAF2E084916B
:104AD000D801A558BD4F882349F09091C00095FF9B
:104AE000FCCF8093C60031968491F5CFF701819178
:104AF000882339F09091C00095FFFCCF8093C600C9
:104B0000F6CFE4EAF2E08491882341F09091C0006E
:104B100095FFFCCF8093C6003196F5CF4D915D9106
:104B20006D917C912AE030E088E095E00E94CE2EE5
:104B30008091C00085FFFCCF8AE08093C600F80119
:104B4000ED57FD4F1082118212821382E6E9F2E0E6
:104B50008491882341F09091C00095FFFCCF809311
:104B6000C6003196F5CF8091C00085FFFCCF8AE06A
:104B70008093C600A70160E070E0C80139DDF8014C
:104B80008289882309F48BC0C801429689C0E2E873
:104B9000F2E08491882341F09091C00095FFFCCF12
:104BA0008093C6003196F5CFF7018191882339F0C3
:104BB0009091C00095FFFCCF8093C600F6CFE0E84F
:104BC000F2E08491882341F09091C00095FFFCCFE2
:104BD0008093C6003196F5CF8091C00085FFFCCF51
:104BE00038C06115710519F06C5F7F4F02C060E03D
:104BF00070E026E5A701C4010E94B17A81112DC0A1
:104C0000ECE6F2E08491882341F09091C00095FF9A
:104C1000FCCF8093C6003196F5CFF70181918823B0
:104C200039F09091C00095FFFCCF8093C600F6CF7D
:104C3000EAE6F2E08491882341F09091C00095FF6C
:104C4000FCCF8093C6003196F5CF8091C00085FFE0
:104C5000FCCF8AE08093C60025C081E0F801808304
:104C6000E8E5F2E08491882341F09091C00095FF3F
:104C7000FCCF8093C6003196F5CFF6018191882351
:104C800039F09091C00095FFFCCF8093C600F6CF1D
:104C90008091C00085FFFCCF8AE08093C600C701E9
:104CA0000E9426B0C5010E94461CAC960FB6F8942F
:104CB000DEBF0FBECDBFDF91CF911F910F91FF904F
:104CC000EF90DF90CF90BF90AF909F908F907F90AC
:104CD0006F905F904F903F902F90089521E0FC01DE
:104CE000218340E0DFCCCF92DF92EF92FF920F93CF
:104CF0001F93CF93DF93CDB7DEB76F970FB6F894BE
:104D0000DEBF0FBECDBF8C016C012EE4C20ED11CE4
:104D1000805B9F4FF60191838083E65CFD4F21E02D
:104D200030E0318320837801F6E7EF1AFDEFFF0AC8
:104D3000F7011182108240E050E0BA0104960E940F
:104D4000D777F601808191812BE1FC013496DE0159
:104D5000159601900D922A95E1F7FC0182819381CD
:104D60009C838B838AE694E09A83898320E030E0F9
:104D7000AE014F5F5F4F61E874E0C8010E94CF1C35
:104D8000CE0101960E94461CF701808191816F96A9
:104D90000FB6F894DEBF0FBECDBFDF91CF911F914C
:104DA0000F91FF90EF90DF90CF900895AF92BF9258
:104DB000CF92DF92EF92FF920F931F93CF93DF93E7
:104DC000CDB7DEB76F970FB6F894DEBF0FBECDBF7D
:104DD0008C017B01CE0101960E943C1CF801E95A2E
:104DE000FF4F80816801811104C02FE2C20ED11CE7
:104DF00003C080E5C80ED11C21E0A701B6016C5F9D
:104E00007F4FCE0105960E94B17A81112DC0EFEA45
:104E1000FCE08491882341F09091C00095FFFCCF85
:104E20008093C6003196F5CFE6EBF1E084918823BC
:104E300041F09091C00095FFFCCF8093C600319661
:104E4000F5CFF7018191882339F09091C00095FF4B
:104E5000FCCF8093C600F6CF8091C00085FFFCCFC9
:104E60008AE08093C60036C0F801EB55FE4F808182
:104E700091818A30910530F59C012F5F3F4F31833E
:104E800020832FE1289F7001299FF00C11242FE629
:104E9000E20EF11CE00EF11E5C01B701C7014F9656
:104EA0000E94A91E81E0A81AB1082FE1E21AF108B8
:104EB0008FEFA816B80689F7B601C80181599F4F30
:104EC0000E94A91EBE016F5F7F4FC801805B9F4F8C
:104ED0000E94A91ECE0101960E94461C6F960FB635
:104EE000F894DEBF0FBECDBFDF91CF911F910F9120
:104EF000FF90EF90DF90CF90BF90AF900895EF922A
:104F0000FF920F931F93CF93DF93EC01CB55DE4FAE
:104F10002881398121153105F9F021503109398372
:104F200028838C0101591F4FB801805B9F4F0E945D
:104F3000A91EC80100E010E07C012FE1E20EF11C87
:104F4000288139810217130738F40F5F1F4FB7010B
:104F50000E94A91EC701F0CFDF91CF911F910F9141
:104F6000FF90EF900895EF92FF920F931F93CF93CE
:104F7000DF93EC010E940E8A8E0107511E4FF8014B
:104F800080819E0122533E4F79018823A1F1C901FE
:104F90000E94BA78F801808181508083BE01FDE8CB
:104FA0008F9F600D711D112462517E4F21E041E001
:104FB000CE0178DBF8018081FE0124E0829FE00DC4
:104FC000F11D1124E651FE4F4081518162817381B0
:104FD000FE01ED57FD4F4083518362837383C70108
:104FE0000E94D777CE01DF91CF911F910F91FF9053
:104FF000EF900C94831FC9010E94BA781A828AEA42
:1050000091E00E94113380912D0F8823F9F01092C6
:105010002D0FC0916907D0E0CC0FDD1FCD58DD4EBC
:1050200068817981882777FD8095982F0E9442EAD0
:1050300020914B0230914C0240914D0250914E0212
:105040000E94A3EB181614F419821882DF91CF91F5
:105050001F910F91FF90EF900895AF92BF92CF9262
:10506000DF92EF92FF920F931F93CF93DF93CDB711
:10507000DEB7E0970FB6F894DEBF0FBECDBF80E17C
:10508000E2EAF2E0DE01919601900D928A95E1F755
:1050900080E1E2EBF2E0DE01519601900D928A95FB
:1050A000E1F780E1E2ECF2E0DE01119601900D9271
:1050B0008A95E1F76E0181E2C80ED11C32E9E32E38
:1050C0003FE0F32E8E010F5E1F4F62EA7FE0AE01DC
:1050D0004F5F5F4FE2E8AE2EEFE0BE2E20E030E003
:1050E000F60181919191A191B1916F01F7018193A5
:1050F0009193A193B1937F01F80181919191A19135
:10510000B1918F01FB0181939193A193B193BF0161
:10511000FA0181919191A191B191AF01F501819332
:105120009193A193B1935F012F5F3F4F24303105DD
:10513000B9F60E94067280E090E0AAEFB3E4809393
:105140007A0F90937B0FA0937C0FB0937D0F80E03C
:1051500090E8ABE3B5E48093760F9093770FA0933C
:10516000780FB093790F8093720F9093730FA09381
:10517000740FB093750F10927E0F10927F0F1092E4
:10518000800F1092810F80E29EE4A0E0B0E0809357
:10519000B20F9093B30FA093B40FB093B50F1092CA
:1051A000620F1092630F1092640F1092650F80E0EF
:1051B00090E0A0E0B1E480936E0F90936F0FA09306
:1051C000700FB093710F8DEC9CECACECBEE3809350
:1051D0006A0F90936B0FA0936C0FB0936D0F80E0EC
:1051E00090E0A0E2B1E48093660F9093670FA093E4
:1051F000680FB093690F109285071092860710927E
:1052000087071092880710928107109282071092E8
:1052100083071092840710927D0710927E071092E8
:105220007F071092800710922E0A84EB90E09093F3
:10523000FF148093FE1482E390E09093FD1480931A
:10524000FC141092FB141092FA1486EE90E09093E6
:10525000F9148093F81485E590E09093F714809307
:10526000F6141092F5141092F41480E290E09093EA
:10527000F2128093F11280E090E0A0ECB0E4809311
:105280006B0290936C02A0936D02B0936E026AE978
:1052900079E989E99EE30E946399609367027093BC
:1052A00068028093690290936A0260E070E08AEF7E
:1052B00092E40E946F9960936302709364028093FA
:1052C00065029093660280E090E0A0E8BFE38093DF
:1052D0005F0290936002A0936102B09362020E9409
:1052E0009F8E1092990780E090E0A0E4B0E4809354
:1052F000230290932402A0932502B09326020E94D9
:10530000E556EFEAFCE08491882341F09091C000DB
:1053100095FFFCCF8093C6003196F5CFE3EBF5E027
:105320008491882341F09091C00095FFFCCF809339
:10533000C6003196F5CF8091C00085FFFCCF8AE092
:105340008093C600E0960FB6F894DEBF0FBECDBFC7
:10535000DF91CF911F910F91FF90EF90DF90CF9051
:10536000BF90AF9008951F93CF93DF93182FCFEA8C
:10537000DCE0FE018491882341F09091C00095FF0C
:10538000FCCF8093C6003196F5CF112389F140916F
:10539000920F5091930F6091940F7091950F8BE93C
:1053A00095E00E941F324091960F5091970F6091A7
:1053B000980F7091990F88E995E00E941F324091F3
:1053C0009A0F50919B0F60919C0F70919D0F85E9F2
:1053D00095E00E941F3240919E0F50919F0F609167
:1053E000A00F7091A10F82E995E00E941F3224C0A6
:1053F000E3EAF5E08491882341F09091C00095FFA5
:10540000FCCF8093C6003196F5CF8091C00085FF18
:10541000FCCF8AE08093C600FE018491EFEAFCE0B5
:10542000882309F4B4CF9091C00095FFFCCF8093FE
:10543000C60031968491F4CF8091C00085FFFCCFE7
:105440008AE08093C600FE018491EFEAFCE08823A5
:1054500049F09091C00095FFFCCF8093C600319633
:105460008491F5CF112369F14091A20F5091A30FC0
:105470006091A40F7091A50F8FE695E0E0D7409161
:10548000A60F5091A70F6091A80F7091A90F8CE6FD
:1054900095E0D5D74091AA0F5091AB0F6091AC0F1A
:1054A0007091AD0F89E695E0CAD74091AE0F50914B
:1054B000AF0F6091B00F7091B10F86E695E0BFD746
:1054C00024C0E8E7F5E08491882341F09091C00082
:1054D00095FFFCCF8093C6003196F5CF8091C00038
:1054E00085FFFCCF8AE08093C600FE018491EFEA3D
:1054F000FCE0882309F4B8CF9091C00095FFFCCF61
:105500008093C60031968491F4CF8091C00085FFCE
:10551000FCCF8AE08093C600FE018491EFEAFCE0B4
:10552000882349F09091C00095FFFCCF8093C6007E
:1055300031968491F5CF112369F14091820F5091FA
:10554000830F6091840F7091850F8FE395E088D76A
:105550004091860F5091870F6091880F7091890F4D
:105560008CE395E07DD740918A0F50918B0F60912D
:105570008C0F70918D0F89E395E072D740918E0F5B
:1055800050918F0F6091900F7091910F86E395E08D
:1055900067D724C0E8E4F5E08491882341F0909136
:1055A000C00095FFFCCF8093C6003196F5CF809167
:1055B000C00085FFFCCF8AE08093C600FE01849185
:1055C000EFEAFCE0882309F4B8CF9091C00095FF82
:1055D000FCCF8093C60031968491F4CF8091C000B7
:1055E00085FFFCCF8AE08093C600FE018491EFEA3C
:1055F000FCE0882349F09091C00095FFFCCF809398
:10560000C60031968491F5CF112311F140917A0FA4
:1056100050917B0F60917C0F70917D0F8BEF94E028
:105620000ED74091760F5091770F6091780F70915F
:10563000790F88EF94E003D74091720F5091730F68
:105640006091740F7091750F85EF94E0F8D624C0C7
:10565000E4E0F5E08491882341F09091C00095FF4B
:10566000FCCF8093C6003196F5CF8091C00085FFB6
:10567000FCCF8AE08093C600FE018491EFEAFCE053
:10568000882309F4C3CF9091C00095FFFCCF80938D
:10569000C60031968491F4CF8091C00085FFFCCF85
:1056A0008AE08093C600FE018491EFEAFCE0882343
:1056B00049F09091C00095FFFCCF8093C6003196D1
:1056C0008491F5CF112309F443C040917E0F50918E
:1056D0007F0F6091800F7091810F89E394E0AFD6C6
:1056E0004091620F5091630F6091640F7091650F4C
:1056F00086E394E0A4D64091B20F5091B30F60912D
:10570000B40F7091B50F83E394E0AAD640916E0F69
:1057100050916F0F6091700F7091710F80E394E062
:105720008ED640916A0F50916B0F60916C0F709103
:105730006D0F8DE294E083D64091660F5091670F14
:105740006091680F7091690F8AE294E078D624C066
:10575000E2E4F4E08491882341F09091C00095FF49
:10576000FCCF8093C6003196F5CF8091C00085FFB5
:10577000FCCF8AE08093C600FE018491EFEAFCE052
:10578000882309F4A2CF9091C00095FFFCCF8093AD
:10579000C60031968491F4CF8091C00085FFFCCF84
:1057A0008AE08093C600FE018491EFEAFCE0882342
:1057B00049F09091C00095FFFCCF8093C6003196D0
:1057C0008491F5CF112311F140917D0750917E070F
:1057D00060917F07709180078FE094E030D6409110
:1057E00081075091820760918307709184078CE054
:1057F00094E025D6409185075091860760918707F0
:105800007091880789E094E01AD624C0E8E1F4E0BA
:105810008491882341F09091C00095FFFCCF809344
:10582000C6003196F5CF8091C00085FFFCCF8AE09D
:105830008093C600FE018491EFEAFCE0882309F41E
:10584000C3CF9091C00095FFFCCF8093C6003196E6
:105850008491F4CF8091C00085FFFCCF8AE08093D3
:10586000C600FE018491EFEAFCE0882349F09091A4
:10587000C00095FFFCCF8093C60031968491F5CF90
:10588000112351F140916B0250916C0260916D02B5
:1058900070916E0281EF93E0D2D5609167027091B2
:1058A00068028091690290916A020E946999AB0135
:1058B000BC018EEE93E0C3D56091630270916402E7
:1058C00080916502909166020E947599AB01BC01BE
:1058D0008BEE93E0B4D524C0EBEFF3E08491882302
:1058E00041F09091C00095FFFCCF8093C6003196A7
:1058F000F5CF8091C00085FFFCCF8AE08093C60081
:10590000FE018491EFEAFCE0882309F4BBCF90917B
:10591000C00095FFFCCF8093C60031968491F4CFF0
:105920008091C00085FFFCCF8AE08093C600FE0115
:105930008491EFEAFCE0882349F09091C00095FF44
:10594000FCCF8093C60031968491F5CF8091990762
:10595000882309F436C0112361F04091230250914D
:10596000240260912502709126028EEC93E067D5A7
:1059700023C0E8EDF3E08491882341F09091C000CA
:1059800095FFFCCF8093C6003196F5CF8091C00083
:1059900085FFFCCF8AE08093C600FE018491EFEA88
:1059A000FCE08823D1F29091C00095FFFCCF80935A
:1059B000C60031968491F5CF8091C00085FFFCCF61
:1059C00013C0111114C0E2EBF3E08491882341F07D
:1059D0009091C00095FFFCCF8093C6003196F5CF23
:1059E0008091C00085FFFCCF8AE08093C600FE0155
:1059F0008491EFEAFCE0882349F09091C00095FF84
:105A0000FCCF8093C60031968491F5CF112319F015
:105A1000E6EFF2E029C0EDE9F3E08491882341F05C
:105A20009091C00095FFFCCF8093C6003196F5CFD2
:105A30008091C00085FFFCCF8AE08093C600FE0104
:105A4000C491EFEAFCE0CC2319F38091C00085FFFC
:105A5000FCCFC093C6003196C491F5CF9091C000A1
:105A600095FFFCCF8093C60081918111F7CF4AE06A
:105A700050E063E573E088E095E064D140916A0707
:105A800050916B0760916C0770916D0770588AE9AF
:105A900093E0D5D48091C00085FFFCCF8AE080934D
:105AA000C600DF91CF911F9108951F920F920FB6FC
:105AB0000F9211240BB60F922F933F934F935F9346
:105AC0006F938F939F93EF93FF936091C600209104
:105AD000890530918A05C90101968F7799274091F0
